{
  "abi": [
    {
      "inputs": [],
      "name": "ExecutionStillLocked",
      "type": "error"
    },
    {
      "inputs": [],
      "name": "InvalidRecipient",
      "type": "error"
    },
    {
      "inputs": [],
      "name": "IsDisabled",
      "type": "error"
    },
    {
      "inputs": [],
      "name": "NoPartOfResolution",
      "type": "error"
    },
    {
      "inputs": [],
      "name": "ResolutionIsAppealed",
      "type": "error"
    },
    {
      "inputs": [],
      "name": "ResolutionIsEndorsed",
      "type": "error"
    },
    {
      "inputs": [],
      "name": "ResolutionIsExecuted",
      "type": "error"
    },
    {
      "inputs": [],
      "name": "ResolutionMustMatch",
      "type": "error"
    },
    {
      "inputs": [],
      "name": "ResolutionNotSubmitted",
      "type": "error"
    },
    {
      "inputs": [],
      "name": "Unauthorized",
      "type": "error"
    },
    {
      "anonymous": false,
      "inputs": [
        {
          "indexed": true,
          "internalType": "address",
          "name": "user",
          "type": "address"
        },
        {
          "indexed": true,
          "internalType": "address",
          "name": "newController",
          "type": "address"
        }
      ],
      "name": "ControllerUpdated",
      "type": "event"
    },
    {
      "anonymous": false,
      "inputs": [
        {
          "indexed": true,
          "internalType": "address",
          "name": "user",
          "type": "address"
        },
        {
          "indexed": true,
          "internalType": "address",
          "name": "newOwner",
          "type": "address"
        }
      ],
      "name": "OwnerUpdated",
      "type": "event"
    },
    {
      "anonymous": false,
      "inputs": [
        {
          "indexed": true,
          "internalType": "bytes32",
          "name": "hash",
          "type": "bytes32"
        },
        {
          "indexed": false,
          "internalType": "address",
          "name": "account",
          "type": "address"
        }
      ],
      "name": "ResolutionAppealed",
      "type": "event"
    },
    {
      "anonymous": false,
      "inputs": [
        {
          "indexed": true,
          "internalType": "bytes32",
          "name": "hash",
          "type": "bytes32"
        }
      ],
      "name": "ResolutionEndorsed",
      "type": "event"
    },
    {
      "anonymous": false,
      "inputs": [
        {
          "indexed": true,
          "internalType": "bytes32",
          "name": "hash",
          "type": "bytes32"
        }
      ],
      "name": "ResolutionExecuted",
      "type": "event"
    },
    {
      "anonymous": false,
      "inputs": [
        {
          "indexed": true,
          "internalType": "address",
          "name": "framework",
          "type": "address"
        },
        {
          "indexed": true,
          "internalType": "bytes32",
          "name": "id",
          "type": "bytes32"
        },
        {
          "indexed": true,
          "internalType": "bytes32",
          "name": "hash",
          "type": "bytes32"
        }
      ],
      "name": "ResolutionSubmitted",
      "type": "event"
    },
    {
      "inputs": [
        {
          "internalType": "bytes32",
          "name": "hash",
          "type": "bytes32"
        },
        {
          "components": [
            {
              "internalType": "address",
              "name": "party",
              "type": "address"
            },
            {
              "internalType": "uint256",
              "name": "balance",
              "type": "uint256"
            }
          ],
          "internalType": "struct PositionParams[]",
          "name": "settlement",
          "type": "tuple[]"
        }
      ],
      "name": "appealResolution",
      "outputs": [],
      "stateMutability": "nonpayable",
      "type": "function"
    },
    {
      "inputs": [
        {
          "internalType": "bytes32",
          "name": "hash",
          "type": "bytes32"
        },
        {
          "components": [
            {
              "internalType": "address",
              "name": "party",
              "type": "address"
            },
            {
              "internalType": "uint256",
              "name": "balance",
              "type": "uint256"
            }
          ],
          "internalType": "struct PositionParams[]",
          "name": "settlement",
          "type": "tuple[]"
        },
        {
          "components": [
            {
              "internalType": "uint256",
              "name": "value",
              "type": "uint256"
            },
            {
              "internalType": "uint256",
              "name": "deadline",
              "type": "uint256"
            },
            {
              "internalType": "uint8",
              "name": "v",
              "type": "uint8"
            },
            {
              "internalType": "bytes32",
              "name": "r",
              "type": "bytes32"
            },
            {
              "internalType": "bytes32",
              "name": "s",
              "type": "bytes32"
            }
          ],
          "internalType": "struct Permit",
          "name": "permit",
          "type": "tuple"
        }
      ],
      "name": "appealResolutionWithPermit",
      "outputs": [],
      "stateMutability": "nonpayable",
      "type": "function"
    },
    {
      "inputs": [],
      "name": "collectFees",
      "outputs": [],
      "stateMutability": "nonpayable",
      "type": "function"
    },
    {
      "inputs": [],
      "name": "controller",
      "outputs": [
        {
          "internalType": "address",
          "name": "",
          "type": "address"
        }
      ],
      "stateMutability": "view",
      "type": "function"
    },
    {
      "inputs": [],
      "name": "enabled",
      "outputs": [
        {
          "internalType": "bool",
          "name": "",
          "type": "bool"
        }
      ],
      "stateMutability": "view",
      "type": "function"
    },
    {
      "inputs": [
        {
          "internalType": "bytes32",
          "name": "hash",
          "type": "bytes32"
        },
        {
          "components": [
            {
              "internalType": "address",
              "name": "party",
              "type": "address"
            },
            {
              "internalType": "uint256",
              "name": "balance",
              "type": "uint256"
            }
          ],
          "internalType": "struct PositionParams[]",
          "name": "settlement",
          "type": "tuple[]"
        }
      ],
      "name": "endorseResolution",
      "outputs": [],
      "stateMutability": "nonpayable",
      "type": "function"
    },
    {
      "inputs": [
        {
          "internalType": "contract IArbitrable",
          "name": "framework",
          "type": "address"
        },
        {
          "internalType": "bytes32",
          "name": "id",
          "type": "bytes32"
        },
        {
          "components": [
            {
              "internalType": "address",
              "name": "party",
              "type": "address"
            },
            {
              "internalType": "uint256",
              "name": "balance",
              "type": "uint256"
            }
          ],
          "internalType": "struct PositionParams[]",
          "name": "settlement",
          "type": "tuple[]"
        }
      ],
      "name": "executeResolution",
      "outputs": [],
      "stateMutability": "nonpayable",
      "type": "function"
    },
    {
      "inputs": [],
      "name": "executionLockPeriod",
      "outputs": [
        {
          "internalType": "uint256",
          "name": "",
          "type": "uint256"
        }
      ],
      "stateMutability": "view",
      "type": "function"
    },
    {
      "inputs": [],
      "name": "fee",
      "outputs": [
        {
          "internalType": "uint256",
          "name": "",
          "type": "uint256"
        }
      ],
      "stateMutability": "view",
      "type": "function"
    },
    {
      "inputs": [],
      "name": "feeRecipient",
      "outputs": [
        {
          "internalType": "address",
          "name": "",
          "type": "address"
        }
      ],
      "stateMutability": "view",
      "type": "function"
    },
    {
      "inputs": [],
      "name": "feeToken",
      "outputs": [
        {
          "internalType": "contract ERC20",
          "name": "",
          "type": "address"
        }
      ],
      "stateMutability": "view",
      "type": "function"
    },
    {
      "inputs": [],
      "name": "owner",
      "outputs": [
        {
          "internalType": "address",
          "name": "",
          "type": "address"
        }
      ],
      "stateMutability": "view",
      "type": "function"
    },
    {
      "inputs": [
        {
          "internalType": "bytes32",
          "name": "",
          "type": "bytes32"
        }
      ],
      "name": "resolution",
      "outputs": [
        {
          "internalType": "enum ResolutionStatus",
          "name": "status",
          "type": "uint8"
        },
        {
          "internalType": "bytes32",
          "name": "mark",
          "type": "bytes32"
        },
        {
          "internalType": "string",
          "name": "metadataURI",
          "type": "string"
        },
        {
          "internalType": "uint256",
          "name": "unlockBlock",
          "type": "uint256"
        }
      ],
      "stateMutability": "view",
      "type": "function"
    },
    {
      "inputs": [
        {
          "internalType": "address",
          "name": "newController",
          "type": "address"
        }
      ],
      "name": "setController",
      "outputs": [],
      "stateMutability": "nonpayable",
      "type": "function"
    },
    {
      "inputs": [
        {
          "internalType": "bool",
          "name": "status",
          "type": "bool"
        }
      ],
      "name": "setEnabled",
      "outputs": [],
      "stateMutability": "nonpayable",
      "type": "function"
    },
    {
      "inputs": [
        {
          "internalType": "contract ERC20",
          "name": "token",
          "type": "address"
        },
        {
          "internalType": "address",
          "name": "recipient",
          "type": "address"
        },
        {
          "internalType": "uint256",
          "name": "amount",
          "type": "uint256"
        }
      ],
      "name": "setFee",
      "outputs": [],
      "stateMutability": "nonpayable",
      "type": "function"
    },
    {
      "inputs": [
        {
          "internalType": "address",
          "name": "newOwner",
          "type": "address"
        }
      ],
      "name": "setOwner",
      "outputs": [],
      "stateMutability": "nonpayable",
      "type": "function"
    },
    {
      "inputs": [
        {
          "internalType": "contract ERC20",
          "name": "feeToken_",
          "type": "address"
        },
        {
          "internalType": "uint256",
          "name": "fee_",
          "type": "uint256"
        },
        {
          "internalType": "uint256",
          "name": "executionLockPeriod_",
          "type": "uint256"
        },
        {
          "internalType": "bool",
          "name": "enabled_",
          "type": "bool"
        }
      ],
      "name": "setUp",
      "outputs": [],
      "stateMutability": "nonpayable",
      "type": "function"
    },
    {
      "inputs": [
        {
          "internalType": "contract IArbitrable",
          "name": "framework",
          "type": "address"
        },
        {
          "internalType": "bytes32",
          "name": "id",
          "type": "bytes32"
        },
        {
          "internalType": "string",
          "name": "metadataURI",
          "type": "string"
        },
        {
          "components": [
            {
              "internalType": "address",
              "name": "party",
              "type": "address"
            },
            {
              "internalType": "uint256",
              "name": "balance",
              "type": "uint256"
            }
          ],
          "internalType": "struct PositionParams[]",
          "name": "settlement",
          "type": "tuple[]"
        }
      ],
      "name": "submitResolution",
      "outputs": [
        {
          "internalType": "bytes32",
          "name": "",
          "type": "bytes32"
        }
      ],
      "stateMutability": "nonpayable",
      "type": "function"
    },
    {
      "inputs": [
        {
          "internalType": "contract ERC20",
          "name": "token",
          "type": "address"
        },
        {
          "internalType": "address",
          "name": "to",
          "type": "address"
        },
        {
          "internalType": "uint256",
          "name": "amount",
          "type": "uint256"
        }
      ],
      "name": "withdrawTokens",
      "outputs": [],
      "stateMutability": "nonpayable",
      "type": "function"
    }
  ],
  "bytecode": {
    "object": "0x608060405234801561001057600080fd5b50600080546001600160a01b031916339081178255604051909182918291829182917f8292fce18fa69edf4db7b94ea2e58241df0ae57f97e0a6c9b29067028bf92d7691a350600180546001600160a01b0319166001600160a01b03831690811790915560405133907f1c87e2bbc4e5fa5d7f6f8c44d66cb241dff224b8602eb5435ca2076d2a5c6fc290600090a350506118cb806100b06000396000f3fe608060405234801561001057600080fd5b506004361061016c5760003560e01c8063856f6874116100cd578063dc7e98df11610081578063e81a014711610066578063e81a0147146102d3578063ee9d2899146102e6578063f77c47911461030957600080fd5b8063dc7e98df146102b7578063ddca3f43146102ca57600080fd5b806392eefe9b116100b257806392eefe9b14610289578063ac2555501461029c578063c8796572146102af57600080fd5b8063856f6874146102635780638da5cb5b1461027657600080fd5b8063328d8f7211610124578063479a4db611610109578063479a4db61461022a5780635e35359e1461023d578063647846a51461025057600080fd5b8063328d8f72146101ec57806346904840146101ff57600080fd5b8063238dafe011610155578063238dafe0146101ac578063252b7a00146101d05780632f7f204e146101d957600080fd5b806302fd597d1461017157806313af403514610197575b600080fd5b61018461017f36600461128e565b61031c565b6040519081526020015b60405180910390f35b6101aa6101a5366004611348565b6104b7565b005b6001546101c090600160a01b900460ff1681565b604051901515815260200161018e565b61018460055481565b6101aa6101e736600461136c565b610539565b6101aa6101fa3660046113dd565b6107ba565b600354610212906001600160a01b031681565b6040516001600160a01b03909116815260200161018e565b6101aa6102383660046113f8565b61081d565b6101aa61024b366004611440565b610893565b600254610212906001600160a01b031681565b6101aa610271366004611481565b6108cd565b600054610212906001600160a01b031681565b6101aa610297366004611348565b61094a565b6101aa6102aa366004611481565b6109cd565b6101aa610b11565b6101aa6102c5366004611440565b610bfc565b61018460045481565b6101aa6102e13660046114cd565b610c31565b6102f96102f4366004611552565b610d7e565b60405161018e9493929190611581565b600154610212906001600160a01b031681565b600154600090600160a01b900460ff16610362576040517f0913100700000000000000000000000000000000000000000000000000000000815260040160405180910390fd5b6001546001600160a01b0316331461038c576040516282b42960e81b815260040160405180910390fd5b60408051606089901b6bffffffffffffffffffffffff191660208083019190915260348083018a9052835180840390910181526054909201909252805191012060009060008181526006602052604090209091506004815460ff1660048111156103f8576103f861156b565b0361041657604051630517160f60e31b815260040160405180910390fd5b805460ff19166001178155604051610434908690869060200161165e565b60408051601f198184030181529190528051602090910120600182015560028101610460878983611718565b5060055461046e90436117ee565b6003820155604051829089906001600160a01b038c16907f13e72125035158f222b3ac6ecbf37d3090cd1a798bd83ee2e7b63efa553bad4990600090a450979650505050505050565b6000546001600160a01b031633146104e1576040516282b42960e81b815260040160405180910390fd5b6000805473ffffffffffffffffffffffffffffffffffffffff19166001600160a01b0383169081178255604051909133917f8292fce18fa69edf4db7b94ea2e58241df0ae57f97e0a6c9b29067028bf92d769190a350565b600154600160a01b900460ff1661057c576040517f0913100700000000000000000000000000000000000000000000000000000000815260040160405180910390fd5b60408051606086901b6bffffffffffffffffffffffff19166020808301919091526034808301879052835180840390910181526054909201909252805191012060009060008181526006602052604090209091506003815460ff1660048111156105e8576105e861156b565b0361061f576040517fe4d068da00000000000000000000000000000000000000000000000000000000815260040160405180910390fd5b6004815460ff1660048111156106375761063761156b565b0361065557604051630517160f60e31b815260040160405180910390fd5b6002815460ff16600481111561066d5761066d61156b565b1415801561067e5750806003015443105b156106b5576040517f2543b86800000000000000000000000000000000000000000000000000000000815260040160405180910390fd5b83836040516020016106c892919061165e565b6040516020818303038152906040528051906020012081600101541461070157604051630b32a3f760e01b815260040160405180910390fd5b6040517f3d3e73d70000000000000000000000000000000000000000000000000000000081526001600160a01b03871690633d3e73d79061074a90889088908890600401611806565b600060405180830381600087803b15801561076457600080fd5b505af1158015610778573d6000803e3d6000fd5b5050825460ff19166004178355505060405182907f661a815b984f1937b7cabcbbc33a63b8b26626ca92664d9acfceb16c7992faf090600090a2505050505050565b6000546001600160a01b031633146107e4576040516282b42960e81b815260040160405180910390fd5b60018054911515600160a01b027fffffffffffffffffffffff00ffffffffffffffffffffffffffffffffffffffff909216919091179055565b6000546001600160a01b03163314610847576040516282b42960e81b815260040160405180910390fd5b610852843085610e33565b60059190915560018054911515600160a01b027fffffffffffffffffffffff00ffffffffffffffffffffffffffffffffffffffff9092169190911790555050565b6000546001600160a01b031633146108bd576040516282b42960e81b815260040160405180910390fd5b6108c8838383610eb5565b505050565b6108d933848484610ec0565b6002546004546108f6916001600160a01b03169033903090611035565b600083815260066020908152604091829020805460ff19166003179055905133815284917f3f824cf63069385a75719519845b75a1eed09db2a8abb11beb05895db8684324910160405180910390a2505050565b6000546001600160a01b03163314610974576040516282b42960e81b815260040160405180910390fd5b6001805473ffffffffffffffffffffffffffffffffffffffff19166001600160a01b03831690811790915560405133907f1c87e2bbc4e5fa5d7f6f8c44d66cb241dff224b8602eb5435ca2076d2a5c6fc290600090a350565b6000546001600160a01b031633146109f7576040516282b42960e81b815260040160405180910390fd5b600083815260066020526040812090815460ff166004811115610a1c57610a1c61156b565b03610a53576040517f1b5aac3000000000000000000000000000000000000000000000000000000000815260040160405180910390fd5b6004815460ff166004811115610a6b57610a6b61156b565b03610a8957604051630517160f60e31b815260040160405180910390fd5b8282604051602001610a9c92919061165e565b60405160208183030381529060405280519060200120816001015414610ad557604051630b32a3f760e01b815260040160405180910390fd5b805460ff1916600217815560405184907f217af70f0b7d2b1d5b2be1986ffb706befa54536757b2e28d8ddec21c64a03b390600090a250505050565b6003546001600160a01b0316610b53576040517f9c8d2cd200000000000000000000000000000000000000000000000000000000815260040160405180910390fd5b6002546040517f70a082310000000000000000000000000000000000000000000000000000000081523060048201526000916001600160a01b0316906370a0823190602401602060405180830381865afa158015610bb5573d6000803e3d6000fd5b505050506040513d601f19601f82011682018060405250810190610bd99190611829565b600254600354919250610bf9916001600160a01b03918216911683610eb5565b50565b6000546001600160a01b03163314610c26576040516282b42960e81b815260040160405180910390fd5b6108c8838383610e33565b610c3d33858585610ec0565b6002546001600160a01b031663d505accf333084356020860135610c676060880160408901611842565b6040517fffffffff0000000000000000000000000000000000000000000000000000000060e088901b1681526001600160a01b0395861660048201529490931660248501526044840191909152606483015260ff166084820152606084013560a4820152608084013560c482015260e401600060405180830381600087803b158015610cf257600080fd5b505af1158015610d06573d6000803e3d6000fd5b5050600254600454610d2993506001600160a01b03909116915033903090611035565b600084815260066020908152604091829020805460ff19166003179055905133815285917f3f824cf63069385a75719519845b75a1eed09db2a8abb11beb05895db8684324910160405180910390a250505050565b60066020526000908152604090208054600182015460028301805460ff909316939192610daa90611690565b80601f0160208091040260200160405190810160405280929190818152602001828054610dd690611690565b8015610e235780601f10610df857610100808354040283529160200191610e23565b820191906000526020600020905b815481529060010190602001808311610e0657829003601f168201915b5050505050908060030154905084565b6001600160a01b038216610e73576040517f9c8d2cd200000000000000000000000000000000000000000000000000000000815260040160405180910390fd5b600280546001600160a01b0394851673ffffffffffffffffffffffffffffffffffffffff19918216179091556003805493909416921691909117909155600455565b6108c88383836110f9565b600083815260066020526040812090815460ff166004811115610ee557610ee561156b565b03610f1c576040517f1b5aac3000000000000000000000000000000000000000000000000000000000815260040160405180910390fd5b6004815460ff166004811115610f3457610f3461156b565b03610f5257604051630517160f60e31b815260040160405180910390fd5b6002815460ff166004811115610f6a57610f6a61156b565b03610fa1576040517ffd6f412000000000000000000000000000000000000000000000000000000000815260040160405180910390fd5b8282604051602001610fb492919061165e565b60405160208183030381529060405280519060200120816001015414610fed57604051630b32a3f760e01b815260040160405180910390fd5b610ff88584846111b8565b61102e576040517fb222674600000000000000000000000000000000000000000000000000000000815260040160405180910390fd5b5050505050565b60006040517f23b872dd0000000000000000000000000000000000000000000000000000000081528460048201528360248201528260448201526020600060648360008a5af13d15601f3d116001600051141617169150508061102e576040517f08c379a000000000000000000000000000000000000000000000000000000000815260206004820152601460248201527f5452414e534645525f46524f4d5f4641494c454400000000000000000000000060448201526064015b60405180910390fd5b60006040517fa9059cbb000000000000000000000000000000000000000000000000000000008152836004820152826024820152602060006044836000895af13d15601f3d11600160005114161716915050806111b2576040517f08c379a000000000000000000000000000000000000000000000000000000000815260206004820152600f60248201527f5452414e534645525f4641494c4544000000000000000000000000000000000060448201526064016110f0565b50505050565b6000805b811580156111c957508281105b1561122557846001600160a01b03168484838181106111ea576111ea611865565b6112009260206040909202019081019150611348565b6001600160a01b03160361121357600191505b8061121d8161187b565b9150506111bc565b509392505050565b6001600160a01b0381168114610bf957600080fd5b60008083601f84011261125457600080fd5b50813567ffffffffffffffff81111561126c57600080fd5b6020830191508360208260061b850101111561128757600080fd5b9250929050565b600080600080600080608087890312156112a757600080fd5b86356112b28161122d565b955060208701359450604087013567ffffffffffffffff808211156112d657600080fd5b818901915089601f8301126112ea57600080fd5b8135818111156112f957600080fd5b8a602082850101111561130b57600080fd5b60208301965080955050606089013591508082111561132957600080fd5b5061133689828a01611242565b979a9699509497509295939492505050565b60006020828403121561135a57600080fd5b81356113658161122d565b9392505050565b6000806000806060858703121561138257600080fd5b843561138d8161122d565b935060208501359250604085013567ffffffffffffffff8111156113b057600080fd5b6113bc87828801611242565b95989497509550505050565b803580151581146113d857600080fd5b919050565b6000602082840312156113ef57600080fd5b611365826113c8565b6000806000806080858703121561140e57600080fd5b84356114198161122d565b93506020850135925060408501359150611435606086016113c8565b905092959194509250565b60008060006060848603121561145557600080fd5b83356114608161122d565b925060208401356114708161122d565b929592945050506040919091013590565b60008060006040848603121561149657600080fd5b83359250602084013567ffffffffffffffff8111156114b457600080fd5b6114c086828701611242565b9497909650939450505050565b60008060008084860360e08112156114e457600080fd5b85359450602086013567ffffffffffffffff81111561150257600080fd5b61150e88828901611242565b90955093505060a07fffffffffffffffffffffffffffffffffffffffffffffffffffffffffffffffc08201121561154457600080fd5b509295919450926040019150565b60006020828403121561156457600080fd5b5035919050565b634e487b7160e01b600052602160045260246000fd5b6000600586106115a157634e487b7160e01b600052602160045260246000fd5b8582526020858184015260806040840152845180608085015260005b818110156115d95786810183015185820160a0015282016115bd565b818111156115eb57600060a083870101525b5060608401949094525050601f91909101601f19160160a0019392505050565b8183526000602080850194508260005b8581101561165357813561162e8161122d565b6001600160a01b0316875281830135838801526040968701969091019060010161161b565b509495945050505050565b60208152600061167260208301848661160b565b949350505050565b634e487b7160e01b600052604160045260246000fd5b600181811c908216806116a457607f821691505b6020821081036116c457634e487b7160e01b600052602260045260246000fd5b50919050565b601f8211156108c857600081815260208120601f850160051c810160208610156116f15750805b601f850160051c820191505b81811015611710578281556001016116fd565b505050505050565b67ffffffffffffffff8311156117305761173061167a565b6117448361173e8354611690565b836116ca565b6000601f84116001811461177857600085156117605750838201355b600019600387901b1c1916600186901b17835561102e565b600083815260209020601f19861690835b828110156117a95786850135825560209485019460019092019101611789565b50868210156117c65760001960f88860031b161c19848701351681555b505060018560011b0183555050505050565b634e487b7160e01b600052601160045260246000fd5b60008219821115611801576118016117d8565b500190565b83815260406020820152600061182060408301848661160b565b95945050505050565b60006020828403121561183b57600080fd5b5051919050565b60006020828403121561185457600080fd5b813560ff8116811461136557600080fd5b634e487b7160e01b600052603260045260246000fd5b6000600019820361188e5761188e6117d8565b506001019056fea2646970667358221220f71907ba871938c4b8d112a6b80c74a9b342f7c3be1a83c7e90f4ad53735fbb864736f6c634300080f0033",
    "linkReferences": {}
  },
  "methodIdentifiers": {
    "appealResolution(bytes32,(address,uint256)[])": "856f6874",
    "appealResolutionWithPermit(bytes32,(address,uint256)[],(uint256,uint256,uint8,bytes32,bytes32))": "e81a0147",
    "collectFees()": "c8796572",
    "controller()": "f77c4791",
    "enabled()": "238dafe0",
    "endorseResolution(bytes32,(address,uint256)[])": "ac255550",
    "executeResolution(address,bytes32,(address,uint256)[])": "2f7f204e",
    "executionLockPeriod()": "252b7a00",
    "fee()": "ddca3f43",
    "feeRecipient()": "46904840",
    "feeToken()": "647846a5",
    "owner()": "8da5cb5b",
    "resolution(bytes32)": "ee9d2899",
    "setController(address)": "92eefe9b",
    "setEnabled(bool)": "328d8f72",
    "setFee(address,address,uint256)": "dc7e98df",
    "setOwner(address)": "13af4035",
    "setUp(address,uint256,uint256,bool)": "479a4db6",
    "submitResolution(address,bytes32,string,(address,uint256)[])": "02fd597d",
    "withdrawTokens(address,address,uint256)": "5e35359e"
  },
  "id": 14
}