{
  "abi": [
    {
      "inputs": [
        {
          "internalType": "contract Permit2",
          "name": "permit2_",
          "type": "address"
        },
        {
          "internalType": "address",
          "name": "owner",
          "type": "address"
        }
      ],
      "stateMutability": "nonpayable",
      "type": "constructor"
    },
    {
      "inputs": [],
      "name": "InvalidPermit",
      "type": "error"
    },
    {
      "inputs": [],
      "name": "IsDisabled",
      "type": "error"
    },
    {
      "inputs": [],
      "name": "NoPartOfSettlement",
      "type": "error"
    },
    {
      "inputs": [],
      "name": "NonExistentResolution",
      "type": "error"
    },
    {
      "inputs": [],
      "name": "ResolutionIsAppealed",
      "type": "error"
    },
    {
      "inputs": [],
      "name": "ResolutionIsEndorsed",
      "type": "error"
    },
    {
      "inputs": [],
      "name": "ResolutionIsExecuted",
      "type": "error"
    },
    {
      "inputs": [],
      "name": "ResolutionIsLocked",
      "type": "error"
    },
    {
      "inputs": [],
      "name": "SettlementPositionsMustMatch",
      "type": "error"
    },
    {
      "inputs": [],
      "name": "Unauthorized",
      "type": "error"
    },
    {
      "anonymous": false,
      "inputs": [
        {
          "indexed": true,
          "internalType": "address",
          "name": "user",
          "type": "address"
        },
        {
          "indexed": true,
          "internalType": "address",
          "name": "newController",
          "type": "address"
        }
      ],
      "name": "ControlTransferred",
      "type": "event"
    },
    {
      "anonymous": false,
      "inputs": [
        {
          "indexed": true,
          "internalType": "address",
          "name": "user",
          "type": "address"
        },
        {
          "indexed": true,
          "internalType": "address",
          "name": "newOwner",
          "type": "address"
        }
      ],
      "name": "OwnershipTransferred",
      "type": "event"
    },
    {
      "anonymous": false,
      "inputs": [
        {
          "indexed": true,
          "internalType": "bytes32",
          "name": "resolution",
          "type": "bytes32"
        },
        {
          "indexed": false,
          "internalType": "bytes32",
          "name": "settlement",
          "type": "bytes32"
        },
        {
          "indexed": false,
          "internalType": "address",
          "name": "account",
          "type": "address"
        }
      ],
      "name": "ResolutionAppealed",
      "type": "event"
    },
    {
      "anonymous": false,
      "inputs": [
        {
          "indexed": true,
          "internalType": "bytes32",
          "name": "resolution",
          "type": "bytes32"
        },
        {
          "indexed": false,
          "internalType": "bytes32",
          "name": "settlement",
          "type": "bytes32"
        }
      ],
      "name": "ResolutionEndorsed",
      "type": "event"
    },
    {
      "anonymous": false,
      "inputs": [
        {
          "indexed": true,
          "internalType": "bytes32",
          "name": "resolution",
          "type": "bytes32"
        },
        {
          "indexed": false,
          "internalType": "bytes32",
          "name": "settlement",
          "type": "bytes32"
        }
      ],
      "name": "ResolutionExecuted",
      "type": "event"
    },
    {
      "anonymous": false,
      "inputs": [
        {
          "indexed": true,
          "internalType": "address",
          "name": "framework",
          "type": "address"
        },
        {
          "indexed": true,
          "internalType": "bytes32",
          "name": "dispute",
          "type": "bytes32"
        },
        {
          "indexed": true,
          "internalType": "bytes32",
          "name": "resolution",
          "type": "bytes32"
        },
        {
          "indexed": false,
          "internalType": "bytes32",
          "name": "settlement",
          "type": "bytes32"
        }
      ],
      "name": "ResolutionSubmitted",
      "type": "event"
    },
    {
      "inputs": [
        {
          "internalType": "bytes32",
          "name": "id",
          "type": "bytes32"
        },
        {
          "components": [
            {
              "internalType": "address",
              "name": "party",
              "type": "address"
            },
            {
              "internalType": "uint256",
              "name": "balance",
              "type": "uint256"
            }
          ],
          "internalType": "struct PositionParams[]",
          "name": "settlement",
          "type": "tuple[]"
        },
        {
          "components": [
            {
              "components": [
                {
                  "internalType": "address",
                  "name": "token",
                  "type": "address"
                },
                {
                  "internalType": "uint256",
                  "name": "amount",
                  "type": "uint256"
                }
              ],
              "internalType": "struct ISignatureTransfer.TokenPermissions",
              "name": "permitted",
              "type": "tuple"
            },
            {
              "internalType": "uint256",
              "name": "nonce",
              "type": "uint256"
            },
            {
              "internalType": "uint256",
              "name": "deadline",
              "type": "uint256"
            }
          ],
          "internalType": "struct ISignatureTransfer.PermitTransferFrom",
          "name": "permit",
          "type": "tuple"
        },
        {
          "internalType": "bytes",
          "name": "signature",
          "type": "bytes"
        }
      ],
      "name": "appealResolution",
      "outputs": [],
      "stateMutability": "nonpayable",
      "type": "function"
    },
    {
      "inputs": [],
      "name": "controller",
      "outputs": [
        {
          "internalType": "address",
          "name": "",
          "type": "address"
        }
      ],
      "stateMutability": "view",
      "type": "function"
    },
    {
      "inputs": [],
      "name": "deposits",
      "outputs": [
        {
          "internalType": "address",
          "name": "token",
          "type": "address"
        },
        {
          "internalType": "uint256",
          "name": "amount",
          "type": "uint256"
        },
        {
          "internalType": "address",
          "name": "recipient",
          "type": "address"
        }
      ],
      "stateMutability": "view",
      "type": "function"
    },
    {
      "inputs": [],
      "name": "enabled",
      "outputs": [
        {
          "internalType": "bool",
          "name": "",
          "type": "bool"
        }
      ],
      "stateMutability": "view",
      "type": "function"
    },
    {
      "inputs": [
        {
          "internalType": "bytes32",
          "name": "id",
          "type": "bytes32"
        },
        {
          "internalType": "bytes32",
          "name": "settlement",
          "type": "bytes32"
        }
      ],
      "name": "endorseResolution",
      "outputs": [],
      "stateMutability": "nonpayable",
      "type": "function"
    },
    {
      "inputs": [
        {
          "internalType": "contract IArbitrable",
          "name": "framework",
          "type": "address"
        },
        {
          "internalType": "bytes32",
          "name": "dispute",
          "type": "bytes32"
        },
        {
          "components": [
            {
              "internalType": "address",
              "name": "party",
              "type": "address"
            },
            {
              "internalType": "uint256",
              "name": "balance",
              "type": "uint256"
            }
          ],
          "internalType": "struct PositionParams[]",
          "name": "settlement",
          "type": "tuple[]"
        }
      ],
      "name": "executeResolution",
      "outputs": [],
      "stateMutability": "nonpayable",
      "type": "function"
    },
    {
      "inputs": [],
      "name": "lockPeriod",
      "outputs": [
        {
          "internalType": "uint256",
          "name": "",
          "type": "uint256"
        }
      ],
      "stateMutability": "view",
      "type": "function"
    },
    {
      "inputs": [],
      "name": "owner",
      "outputs": [
        {
          "internalType": "address",
          "name": "",
          "type": "address"
        }
      ],
      "stateMutability": "view",
      "type": "function"
    },
    {
      "inputs": [],
      "name": "permit2",
      "outputs": [
        {
          "internalType": "contract Permit2",
          "name": "",
          "type": "address"
        }
      ],
      "stateMutability": "view",
      "type": "function"
    },
    {
      "inputs": [
        {
          "internalType": "bytes32",
          "name": "id",
          "type": "bytes32"
        }
      ],
      "name": "resolutionDetails",
      "outputs": [
        {
          "components": [
            {
              "internalType": "enum ResolutionStatus",
              "name": "status",
              "type": "uint8"
            },
            {
              "internalType": "bytes32",
              "name": "settlement",
              "type": "bytes32"
            },
            {
              "internalType": "string",
              "name": "metadataURI",
              "type": "string"
            },
            {
              "internalType": "uint256",
              "name": "unlockTime",
              "type": "uint256"
            }
          ],
          "internalType": "struct Resolution",
          "name": "details",
          "type": "tuple"
        }
      ],
      "stateMutability": "view",
      "type": "function"
    },
    {
      "inputs": [
        {
          "internalType": "bool",
          "name": "status",
          "type": "bool"
        }
      ],
      "name": "setEnabled",
      "outputs": [],
      "stateMutability": "nonpayable",
      "type": "function"
    },
    {
      "inputs": [
        {
          "internalType": "uint256",
          "name": "lockPeriod_",
          "type": "uint256"
        },
        {
          "internalType": "bool",
          "name": "enabled_",
          "type": "bool"
        },
        {
          "components": [
            {
              "internalType": "address",
              "name": "token",
              "type": "address"
            },
            {
              "internalType": "uint256",
              "name": "amount",
              "type": "uint256"
            },
            {
              "internalType": "address",
              "name": "recipient",
              "type": "address"
            }
          ],
          "internalType": "struct DepositConfig",
          "name": "deposits_",
          "type": "tuple"
        }
      ],
      "name": "setUp",
      "outputs": [],
      "stateMutability": "nonpayable",
      "type": "function"
    },
    {
      "inputs": [
        {
          "internalType": "contract IArbitrable",
          "name": "framework",
          "type": "address"
        },
        {
          "internalType": "bytes32",
          "name": "dispute",
          "type": "bytes32"
        },
        {
          "internalType": "string",
          "name": "metadataURI",
          "type": "string"
        },
        {
          "components": [
            {
              "internalType": "address",
              "name": "party",
              "type": "address"
            },
            {
              "internalType": "uint256",
              "name": "balance",
              "type": "uint256"
            }
          ],
          "internalType": "struct PositionParams[]",
          "name": "settlement",
          "type": "tuple[]"
        }
      ],
      "name": "submitResolution",
      "outputs": [
        {
          "internalType": "bytes32",
          "name": "id",
          "type": "bytes32"
        }
      ],
      "stateMutability": "nonpayable",
      "type": "function"
    },
    {
      "inputs": [
        {
          "internalType": "address",
          "name": "newController",
          "type": "address"
        }
      ],
      "name": "transferController",
      "outputs": [],
      "stateMutability": "nonpayable",
      "type": "function"
    },
    {
      "inputs": [
        {
          "internalType": "address",
          "name": "newOwner",
          "type": "address"
        }
      ],
      "name": "transferOwnership",
      "outputs": [],
      "stateMutability": "nonpayable",
      "type": "function"
    }
  ],
  "bytecode": {
    "object": "0x60a0346100ed57601f6117a238819003918201601f19168301916001600160401b038311848410176100f25780849260409485528339810103126100ed5780516001600160a01b039182821682036100ed57602001519182168092036100ed57600080546001600160a01b031990811684178255604051939190829081337f8be0079c531659141344cd1fd0a4f28419497f9722a3daafe3b4186f6b6457e08580a360015416176001557fa06677f7b64342b4bcbde423684dbdb5356acfe41ad0285b6ecbe6dc4bf427f2339180a36080526116999081610109823960805181818161093501526110980152f35b600080fd5b634e487b7160e01b600052604160045260246000fdfe608080604052600436101561001357600080fd5b600090813560e01c90816302fd597d146110bc5750806312261ee71461106b578063238dafe0146110455780632f7f204e14610d42578063323a5e0b14610cf9578063328d8f7214610c925780633fd8b02f14610c74578063410fa8e614610b6a57806341bcf4dc1461060d5780638da5cb5b146105da578063e44cb37b1461046e578063e8ea054b146103e1578063ec67b8c8146101b2578063f2fde38b146100fc5763f77c4791146100c657600080fd5b346100f957806003193601126100f957602073ffffffffffffffffffffffffffffffffffffffff60015416604051908152f35b80fd5b50346100f95760206003193601126100f957610116611454565b815473ffffffffffffffffffffffffffffffffffffffff8082163303610188577fffffffffffffffffffffffff0000000000000000000000000000000000000000921691829116178255337f8be0079c531659141344cd1fd0a4f28419497f9722a3daafe3b4186f6b6457e08380a380f35b60046040517f82b42900000000000000000000000000000000000000000000000000000000008152fd5b50346100f9576020806003193601126103dd578160606040516101d481611551565b8281528284820152816040820152015260043582526006815260408220604051926101fe84611551565b60ff82541660058110156103b057845260018083015492848601938452600281016040519283918591815491610233836115ae565b928386528a838216918260001461036c57505060011461032f575b5050506003929161026091038461156d565b60408701928352015492606086019384526040519585875251600581101561030257858701525160408601525160806060860152805160a086018190529385939291825b8681106102eb57505050837fffffffffffffffffffffffffffffffffffffffffffffffffffffffffffffffe092601f9260c080978701015251608085015201168101030190f35b81810183015188820160c0015287955082016102a4565b6024847f4e487b710000000000000000000000000000000000000000000000000000000081526021600452fd5b8752888720899350879291905b8284106103545750505082010181610260600361024e565b80548489018601528795508a9490930192810161033c565b7fffffffffffffffffffffffffffffffffffffffffffffffffffffffffffffff00168782015293151560051b8601909301935084925061026091506003905061024e565b6024827f4e487b710000000000000000000000000000000000000000000000000000000081526021600452fd5b5080fd5b50346100f95760206003193601126100f9576103fb611454565b73ffffffffffffffffffffffffffffffffffffffff908183541633036101885716807fffffffffffffffffffffffff00000000000000000000000000000000000000006001541617600155337fa06677f7b64342b4bcbde423684dbdb5356acfe41ad0285b6ecbe6dc4bf427f28380a380f35b50346100f95760406003193601126100f95760043560243573ffffffffffffffffffffffffffffffffffffffff8354163303610188578183526006602052604083209081549060ff821660058110156105ad57801561058357600414610559578060018401540361052f577fb6dc686a67a9620536a83f729428ef64a3e6529407d6b5e0df3426fe6b01a2609260037fffffffffffffffffffffffffffffffffffffffffffffffffffffffffffffff0060209416179055604051908152a280f35b60046040517f3a78f7d4000000000000000000000000000000000000000000000000000000008152fd5b60046040517f28b8b078000000000000000000000000000000000000000000000000000000008152fd5b60046040517faffbf64b000000000000000000000000000000000000000000000000000000008152fd5b6024867f4e487b710000000000000000000000000000000000000000000000000000000081526021600452fd5b50346100f957806003193601126100f95773ffffffffffffffffffffffffffffffffffffffff6020915416604051908152f35b50346100f95760e06003193601126100f95767ffffffffffffffff906024358281116103dd576106419036906004016114a5565b7fffffffffffffffffffffffffffffffffffffffffffffffffffffffffffffffbc36019360808512610b6657604080519561067b87611519565b12610b665760405161068c81611535565b60443573ffffffffffffffffffffffffffffffffffffffff8116810361088557815260643560208201528552608435602086015260a435604086015260c435908111610b66576106e0903690600401611477565b949060043585526006602052604085209586549160ff83166005811015610b39578015610583576004811461055957600314610b0f5760405161072281611519565b73ffffffffffffffffffffffffffffffffffffffff60025416808252600354602083015273ffffffffffffffffffffffffffffffffffffffff60045416604083015273ffffffffffffffffffffffffffffffffffffffff8651511603610ae5576040516020810190602082526107cc816107a0604082018b8d611601565b037fffffffffffffffffffffffffffffffffffffffffffffffffffffffffffffffe0810183528261156d565b519020948560018b01540361052f578899895b8b1580610adc575b156108b7578881101561088a578060061b8a013573ffffffffffffffffffffffffffffffffffffffff811680910361088557331461087c575b7fffffffffffffffffffffffffffffffffffffffffffffffffffffffffffffffff811461084f576001016107df565b60248b7f4e487b710000000000000000000000000000000000000000000000000000000081526011600452fd5b60019b50610820565b600080fd5b60248b7f4e487b710000000000000000000000000000000000000000000000000000000081526032600452fd5b508997508a15610ab25760027fffffffffffffffffffffffffffffffffffffffffffffffffffffffffffffff00899716179055602073ffffffffffffffffffffffffffffffffffffffff6040840151169201516040519261091784611535565b8352602083015273ffffffffffffffffffffffffffffffffffffffff7f00000000000000000000000000000000000000000000000000000000000000001690813b15610aae578580946040927fffffffffffffffffffffffffffffffffffffffffffffffffffffffffffffffe0601f610a1d9986519a8b998a9889967f30f28b7a0000000000000000000000000000000000000000000000000000000088526109e46004890182516020809173ffffffffffffffffffffffffffffffffffffffff81511684520151910152565b60208181015160448a01529101516064880152815173ffffffffffffffffffffffffffffffffffffffff166084880152015160a4860152565b3360c485015261010060e48501528061010485015280610124958686013785858286010152011681010301925af18015610aa357610a8f575b50506040519081523360208201527f2a41d71ad20bb81193ade4a1c1c4796777ba30f92f48c41fce7eeb361e109b0e604060043592a280f35b610a98906114d6565b6103dd578183610a56565b6040513d84823e3d90fd5b8580fd5b60046040517f65268788000000000000000000000000000000000000000000000000000000008152fd5b508881106107e7565b60046040517fddafbaef000000000000000000000000000000000000000000000000000000008152fd5b60046040517ffd6f4120000000000000000000000000000000000000000000000000000000008152fd5b6024887f4e487b710000000000000000000000000000000000000000000000000000000081526021600452fd5b8380fd5b50346100f95760a06003193601126100f9576024358015158091036108855760607fffffffffffffffffffffffffffffffffffffffffffffffffffffffffffffffbc3601126103dd5773ffffffffffffffffffffffffffffffffffffffff90818354163303610188576004356005557fffffffffffffffffffffff00ffffffffffffffffffffffffffffffffffffffff74ff00000000000000000000000000000000000000006001549260a01b16911617600155604435818116809103610885577fffffffffffffffffffffffff00000000000000000000000000000000000000009081600254161760025560643560035560843591821680920361088557600454161760045580f35b50346100f957806003193601126100f9576020600554604051908152f35b50346100f95760206003193601126100f957600435801515809103610885577fffffffffffffffffffffff00ffffffffffffffffffffffffffffffffffffffff74ff00000000000000000000000000000000000000006001549260a01b1691161760015580f35b50346100f957806003193601126100f957606073ffffffffffffffffffffffffffffffffffffffff80600254169060035490600454169060405192835260208301526040820152f35b50346100f95760606003193601126100f957610d5c611454565b6024359060443567ffffffffffffffff8111610b6657610d809036906004016114a5565b929060ff60015460a01c161561101b57604051906020820182610dd485878490917fffffffffffffffffffffffffffffffffffffffff00000000000000000000000060349360601b16825260148201520190565b0392610e067fffffffffffffffffffffffffffffffffffffffffffffffffffffffffffffffe09485810183528261156d565b519020948587526006602052604087209283549060ff82166005811015610fee5760028114610fc45760048114610559576003141580610fb7575b610f8d57604051610e6f60208201926020845282610e6360408201888a611601565b0390810183528261156d565b519020958660018601540361052f57889460047fffffffffffffffffffffffffffffffffffffffffffffffffffffffffffffff0073ffffffffffffffffffffffffffffffffffffffff94161790551690813b15610b665783610f0e95604051968795869485937f3d3e73d70000000000000000000000000000000000000000000000000000000085526004850152604060248501526044840191611601565b03925af18015610f8257610f4c575b5060207feb0ed49da371fcf5b9313864d8c92a2130bd637affe927c057a55a06905d0cd491604051908152a280f35b7feb0ed49da371fcf5b9313864d8c92a2130bd637affe927c057a55a06905d0cd49193610f7a6020926114d6565b939150610f1d565b6040513d86823e3d90fd5b60046040517ff268e9e3000000000000000000000000000000000000000000000000000000008152fd5b5060038501544210610e41565b60046040517fe4d068da000000000000000000000000000000000000000000000000000000008152fd5b60248a7f4e487b710000000000000000000000000000000000000000000000000000000081526021600452fd5b60046040517f09131007000000000000000000000000000000000000000000000000000000008152fd5b50346100f957806003193601126100f957602060ff60015460a01c166040519015158152f35b50346100f957806003193601126100f957602060405173ffffffffffffffffffffffffffffffffffffffff7f0000000000000000000000000000000000000000000000000000000000000000168152f35b82346100f95760806003193601126100f9576110d6611454565b9167ffffffffffffffff916044358381116103dd576110f9903690600401611477565b606435858111610b66576111119036906004016114a5565b9290946001549060ff8260a01c161561142c575073ffffffffffffffffffffffffffffffffffffffff16330361018857604051606088901b7fffffffffffffffffffffffffffffffffffffffff000000000000000000000000166020820190815260243560348301529061118881605481016107a0565b519020958685526006602052604085209384549660ff88166005811015610b3957600414610559576001916107a06111f47fffffffffffffffffffffffffffffffffffffffffffffffffffffffffffffff00936040519283916020830195602087526040840191611601565b519020971617845585600185015582116113ff57819061121760028501546115ae565b601f81116113af575b508490601f83116001146113075785926112fc575b50507fffffffffffffffffffffffffffffffffffffffffffffffffffffffffffffffff8260011b9260031b1c19161760028201555b6005544201918242116112cf575091602094916003859401556040519081527f96eab3103fbd8c0266eca3e7a57929bc3bd66ef5223e2cb45f589f884ffcb9ae8573ffffffffffffffffffffffffffffffffffffffff602435941692a4604051908152f35b807f4e487b7100000000000000000000000000000000000000000000000000000000602492526011600452fd5b013590508780611235565b90917fffffffffffffffffffffffffffffffffffffffffffffffffffffffffffffffe016916002850186526020862092865b818110611397575090846001959493921061135f575b505050811b01600282015561126a565b7fffffffffffffffffffffffffffffffffffffffffffffffffffffffffffffffff60f88560031b161c1991013516905587808061134f565b91936020600181928787013581550195019201611339565b90915060028401855260208520601f840160051c8101602085106113f8575b90849392915b601f830160051c820181106113ea575050611220565b8781558594506001016113d4565b50806113ce565b6024847f4e487b710000000000000000000000000000000000000000000000000000000081526041600452fd5b807f091310070000000000000000000000000000000000000000000000000000000060049252fd5b6004359073ffffffffffffffffffffffffffffffffffffffff8216820361088557565b9181601f840112156108855782359167ffffffffffffffff8311610885576020838186019501011161088557565b9181601f840112156108855782359167ffffffffffffffff8311610885576020808501948460061b01011161088557565b67ffffffffffffffff81116114ea57604052565b7f4e487b7100000000000000000000000000000000000000000000000000000000600052604160045260246000fd5b6060810190811067ffffffffffffffff8211176114ea57604052565b6040810190811067ffffffffffffffff8211176114ea57604052565b6080810190811067ffffffffffffffff8211176114ea57604052565b90601f7fffffffffffffffffffffffffffffffffffffffffffffffffffffffffffffffe0910116810190811067ffffffffffffffff8211176114ea57604052565b90600182811c921680156115f7575b60208310146115c857565b7f4e487b7100000000000000000000000000000000000000000000000000000000600052602260045260246000fd5b91607f16916115bd565b918181526020809101929160009182905b82821061162157505050505090565b9091929394853573ffffffffffffffffffffffffffffffffffffffff8116809103610aae5781528582013582820152604090810195019392916001019061161256fea264697066735822122030b21e40afbbad4ad5ebf943dee1344178ff1eaa423dc0be712bdc1cc6e456e664736f6c63430008110033",
    "linkReferences": {}
  },
  "methodIdentifiers": {
    "appealResolution(bytes32,(address,uint256)[],((address,uint256),uint256,uint256),bytes)": "41bcf4dc",
    "controller()": "f77c4791",
    "deposits()": "323a5e0b",
    "enabled()": "238dafe0",
    "endorseResolution(bytes32,bytes32)": "e44cb37b",
    "executeResolution(address,bytes32,(address,uint256)[])": "2f7f204e",
    "lockPeriod()": "3fd8b02f",
    "owner()": "8da5cb5b",
    "permit2()": "12261ee7",
    "resolutionDetails(bytes32)": "ec67b8c8",
    "setEnabled(bool)": "328d8f72",
    "setUp(uint256,bool,(address,uint256,address))": "410fa8e6",
    "submitResolution(address,bytes32,string,(address,uint256)[])": "02fd597d",
    "transferController(address)": "e8ea054b",
    "transferOwnership(address)": "f2fde38b"
  },
  "id": 38
}