{
  "abi": [
    {
      "inputs": [
        {
          "internalType": "contract Permit2",
          "name": "permit2_",
          "type": "address"
        },
        {
          "internalType": "address",
          "name": "owner",
          "type": "address"
        }
      ],
      "stateMutability": "nonpayable",
      "type": "constructor"
    },
    {
      "inputs": [],
      "name": "InvalidPermit",
      "type": "error"
    },
    {
      "inputs": [],
      "name": "IsDisabled",
      "type": "error"
    },
    {
      "inputs": [],
      "name": "NoPartOfSettlement",
      "type": "error"
    },
    {
      "inputs": [],
      "name": "NonExistentResolution",
      "type": "error"
    },
    {
      "inputs": [],
      "name": "ResolutionIsAppealed",
      "type": "error"
    },
    {
      "inputs": [],
      "name": "ResolutionIsEndorsed",
      "type": "error"
    },
    {
      "inputs": [],
      "name": "ResolutionIsExecuted",
      "type": "error"
    },
    {
      "inputs": [],
      "name": "ResolutionIsLocked",
      "type": "error"
    },
    {
      "inputs": [],
      "name": "SettlementPositionsMustMatch",
      "type": "error"
    },
    {
      "inputs": [],
      "name": "Unauthorized",
      "type": "error"
    },
    {
      "anonymous": false,
      "inputs": [
        {
          "indexed": true,
          "internalType": "address",
          "name": "user",
          "type": "address"
        },
        {
          "indexed": true,
          "internalType": "address",
          "name": "newController",
          "type": "address"
        }
      ],
      "name": "ControlTransferred",
      "type": "event"
    },
    {
      "anonymous": false,
      "inputs": [
        {
          "indexed": true,
          "internalType": "address",
          "name": "user",
          "type": "address"
        },
        {
          "indexed": true,
          "internalType": "address",
          "name": "newOwner",
          "type": "address"
        }
      ],
      "name": "OwnershipTransferred",
      "type": "event"
    },
    {
      "anonymous": false,
      "inputs": [
        {
          "indexed": true,
          "internalType": "bytes32",
          "name": "resolution",
          "type": "bytes32"
        },
        {
          "indexed": true,
          "internalType": "bytes32",
          "name": "settlement",
          "type": "bytes32"
        },
        {
          "indexed": false,
          "internalType": "address",
          "name": "account",
          "type": "address"
        }
      ],
      "name": "ResolutionAppealed",
      "type": "event"
    },
    {
      "anonymous": false,
      "inputs": [
        {
          "indexed": true,
          "internalType": "bytes32",
          "name": "resolution",
          "type": "bytes32"
        },
        {
          "indexed": true,
          "internalType": "bytes32",
          "name": "settlement",
          "type": "bytes32"
        }
      ],
      "name": "ResolutionEndorsed",
      "type": "event"
    },
    {
      "anonymous": false,
      "inputs": [
        {
          "indexed": true,
          "internalType": "bytes32",
          "name": "resolution",
          "type": "bytes32"
        },
        {
          "indexed": true,
          "internalType": "bytes32",
          "name": "settlement",
          "type": "bytes32"
        }
      ],
      "name": "ResolutionExecuted",
      "type": "event"
    },
    {
      "anonymous": false,
      "inputs": [
        {
          "indexed": true,
          "internalType": "address",
          "name": "framework",
          "type": "address"
        },
        {
          "indexed": true,
          "internalType": "bytes32",
          "name": "dispute",
          "type": "bytes32"
        },
        {
          "indexed": true,
          "internalType": "bytes32",
          "name": "settlement",
          "type": "bytes32"
        }
      ],
      "name": "ResolutionSubmitted",
      "type": "event"
    },
    {
      "inputs": [
        {
          "internalType": "bytes32",
          "name": "id",
          "type": "bytes32"
        },
        {
          "components": [
            {
              "internalType": "address",
              "name": "party",
              "type": "address"
            },
            {
              "internalType": "uint256",
              "name": "balance",
              "type": "uint256"
            }
          ],
          "internalType": "struct PositionParams[]",
          "name": "settlement",
          "type": "tuple[]"
        },
        {
          "components": [
            {
              "components": [
                {
                  "internalType": "address",
                  "name": "token",
                  "type": "address"
                },
                {
                  "internalType": "uint256",
                  "name": "amount",
                  "type": "uint256"
                }
              ],
              "internalType": "struct ISignatureTransfer.TokenPermissions",
              "name": "permitted",
              "type": "tuple"
            },
            {
              "internalType": "uint256",
              "name": "nonce",
              "type": "uint256"
            },
            {
              "internalType": "uint256",
              "name": "deadline",
              "type": "uint256"
            }
          ],
          "internalType": "struct ISignatureTransfer.PermitTransferFrom",
          "name": "permit",
          "type": "tuple"
        },
        {
          "internalType": "bytes",
          "name": "signature",
          "type": "bytes"
        }
      ],
      "name": "appealResolution",
      "outputs": [],
      "stateMutability": "nonpayable",
      "type": "function"
    },
    {
      "inputs": [],
      "name": "controller",
      "outputs": [
        {
          "internalType": "address",
          "name": "",
          "type": "address"
        }
      ],
      "stateMutability": "view",
      "type": "function"
    },
    {
      "inputs": [],
      "name": "enabled",
      "outputs": [
        {
          "internalType": "bool",
          "name": "",
          "type": "bool"
        }
      ],
      "stateMutability": "view",
      "type": "function"
    },
    {
      "inputs": [
        {
          "internalType": "bytes32",
          "name": "id",
          "type": "bytes32"
        },
        {
          "internalType": "bytes32",
          "name": "settlement",
          "type": "bytes32"
        }
      ],
      "name": "endorseResolution",
      "outputs": [],
      "stateMutability": "nonpayable",
      "type": "function"
    },
    {
      "inputs": [
        {
          "internalType": "contract IArbitrable",
          "name": "framework",
          "type": "address"
        },
        {
          "internalType": "bytes32",
          "name": "dispute",
          "type": "bytes32"
        },
        {
          "components": [
            {
              "internalType": "address",
              "name": "party",
              "type": "address"
            },
            {
              "internalType": "uint256",
              "name": "balance",
              "type": "uint256"
            }
          ],
          "internalType": "struct PositionParams[]",
          "name": "settlement",
          "type": "tuple[]"
        }
      ],
      "name": "executeResolution",
      "outputs": [],
      "stateMutability": "nonpayable",
      "type": "function"
    },
    {
      "inputs": [],
      "name": "lockPeriod",
      "outputs": [
        {
          "internalType": "uint256",
          "name": "",
          "type": "uint256"
        }
      ],
      "stateMutability": "view",
      "type": "function"
    },
    {
      "inputs": [],
      "name": "owner",
      "outputs": [
        {
          "internalType": "address",
          "name": "",
          "type": "address"
        }
      ],
      "stateMutability": "view",
      "type": "function"
    },
    {
      "inputs": [],
      "name": "permit2",
      "outputs": [
        {
          "internalType": "contract Permit2",
          "name": "",
          "type": "address"
        }
      ],
      "stateMutability": "view",
      "type": "function"
    },
    {
      "inputs": [
        {
          "internalType": "bytes32",
          "name": "id",
          "type": "bytes32"
        }
      ],
      "name": "resolutionDetails",
      "outputs": [
        {
          "components": [
            {
              "internalType": "enum ResolutionStatus",
              "name": "status",
              "type": "uint8"
            },
            {
              "internalType": "bytes32",
              "name": "settlement",
              "type": "bytes32"
            },
            {
              "internalType": "string",
              "name": "metadataURI",
              "type": "string"
            },
            {
              "internalType": "uint256",
              "name": "unlockTime",
              "type": "uint256"
            }
          ],
          "internalType": "struct Resolution",
          "name": "details",
          "type": "tuple"
        }
      ],
      "stateMutability": "view",
      "type": "function"
    },
    {
      "inputs": [
        {
          "internalType": "bool",
          "name": "status",
          "type": "bool"
        }
      ],
      "name": "setEnabled",
      "outputs": [],
      "stateMutability": "nonpayable",
      "type": "function"
    },
    {
      "inputs": [
        {
          "internalType": "uint256",
          "name": "lockPeriod_",
          "type": "uint256"
        },
        {
          "internalType": "bool",
          "name": "enabled_",
          "type": "bool"
        },
        {
          "components": [
            {
              "internalType": "address",
              "name": "token",
              "type": "address"
            },
            {
              "internalType": "uint256",
              "name": "amount",
              "type": "uint256"
            },
            {
              "internalType": "address",
              "name": "recipient",
              "type": "address"
            }
          ],
          "internalType": "struct DepositConfig",
          "name": "deposits_",
          "type": "tuple"
        }
      ],
      "name": "setUp",
      "outputs": [],
      "stateMutability": "nonpayable",
      "type": "function"
    },
    {
      "inputs": [
        {
          "internalType": "contract IArbitrable",
          "name": "framework",
          "type": "address"
        },
        {
          "internalType": "bytes32",
          "name": "dispute",
          "type": "bytes32"
        },
        {
          "internalType": "string",
          "name": "metadataURI",
          "type": "string"
        },
        {
          "components": [
            {
              "internalType": "address",
              "name": "party",
              "type": "address"
            },
            {
              "internalType": "uint256",
              "name": "balance",
              "type": "uint256"
            }
          ],
          "internalType": "struct PositionParams[]",
          "name": "settlement",
          "type": "tuple[]"
        }
      ],
      "name": "submitResolution",
      "outputs": [
        {
          "internalType": "bytes32",
          "name": "id",
          "type": "bytes32"
        }
      ],
      "stateMutability": "nonpayable",
      "type": "function"
    },
    {
      "inputs": [
        {
          "internalType": "address",
          "name": "newController",
          "type": "address"
        }
      ],
      "name": "transferController",
      "outputs": [],
      "stateMutability": "nonpayable",
      "type": "function"
    },
    {
      "inputs": [
        {
          "internalType": "address",
          "name": "newOwner",
          "type": "address"
        }
      ],
      "name": "transferOwnership",
      "outputs": [],
      "stateMutability": "nonpayable",
      "type": "function"
    }
  ],
  "bytecode": {
    "object": "0x60a0346100ed57601f6112db38819003918201601f19168301916001600160401b038311848410176100f25780849260409485528339810103126100ed5780516001600160a01b039182821682036100ed57602001519182168092036100ed57600080546001600160a01b031990811684178255604051939190829081337f8be0079c531659141344cd1fd0a4f28419497f9722a3daafe3b4186f6b6457e08580a360015416176001557fa06677f7b64342b4bcbde423684dbdb5356acfe41ad0285b6ecbe6dc4bf427f2339180a36080526111d2908161010982396080518181816107200152610d000152f35b600080fd5b634e487b7160e01b600052604160045260246000fdfe608080604052600436101561001357600080fd5b600090813560e01c90816302fd597d14610d245750806312261ee714610ce0578063238dafe014610cba5780632f7f204e14610a57578063328d8f72146109f05780633fd8b02f146109d2578063410fa8e6146108fe57806341bcf4dc146104fd5780638da5cb5b146104d7578063e44cb37b146103b8578063e8ea054b14610343578063ec67b8c814610182578063f2fde38b146100e45763f77c4791146100bb57600080fd5b346100e157806003193601126100e15760206001600160a01b0360015416604051908152f35b80fd5b50346100e15760206003193601126100e1576100fe610ff7565b81546001600160a01b0380821633036101585773ffffffffffffffffffffffffffffffffffffffff19921691829116178255337f8be0079c531659141344cd1fd0a4f28419497f9722a3daafe3b4186f6b6457e08380a380f35b60046040517f82b42900000000000000000000000000000000000000000000000000000000008152fd5b50346100e15760208060031936011261033f578160606040516101a4816110ce565b8281528284820152816040820152015260043582526006815260408220604051926101ce846110ce565b60ff825416600581101561032b578452600180830154928486019384526002810160405192839185918154916102038361110d565b928386528a83821691826000146103055750506001146102c8575b505050600392916102309103846110ea565b6040870192835201549260608601938452604051958587525160058110156102b457858701525160408601525160806060860152805160a086018190529385939291825b86811061029d5750505083601f1992601f9260c080978701015251608085015201168101030190f35b81810183015188820160c001528795508201610274565b602484634e487b7160e01b81526021600452fd5b8752888720899350879291905b8284106102ed5750505082010181610230600361021e565b80548489018601528795508a949093019281016102d5565b60ff19168782015293151560051b8601909301935084925061023091506003905061021e565b602482634e487b7160e01b81526021600452fd5b5080fd5b50346100e15760206003193601126100e15761035d610ff7565b6001600160a01b039081835416330361015857168073ffffffffffffffffffffffffffffffffffffffff196001541617600155337fa06677f7b64342b4bcbde423684dbdb5356acfe41ad0285b6ecbe6dc4bf427f28380a380f35b50346100e15760406003193601126100e157600435602435906001600160a01b03835416330361015857808352600660205260408320805460ff811660058110156104c35780156104995760041461046f57836001830154036104455760ff191660031790557fb6dc686a67a9620536a83f729428ef64a3e6529407d6b5e0df3426fe6b01a2608380a380f35b60046040517f3a78f7d4000000000000000000000000000000000000000000000000000000008152fd5b60046040517f28b8b078000000000000000000000000000000000000000000000000000000008152fd5b60046040517faffbf64b000000000000000000000000000000000000000000000000000000008152fd5b602486634e487b7160e01b81526021600452fd5b50346100e157806003193601126100e1576001600160a01b036020915416604051908152f35b50346100e15760e06003193601126100e15767ffffffffffffffff9060243582811161033f5761053190369060040161103b565b604319360193608085126108fa57604080519561054d87611096565b126108fa5760405161055e816110b2565b6044356001600160a01b03811681036106c157815260643560208201528552608435602086015260a435604086015260c4359081116108fa576105a590369060040161100d565b949060043585526006602052604085209586549160ff831660058110156108e6578015610499576004811461046f576003146108bc576040516105e781611096565b6001600160a01b036002541680825260035460208301526001600160a01b036004541660408301526001600160a01b0386515116036108925760405160208101906020825261064c8161063e604082018b8d611147565b03601f1981018352826110ea565b519020948560018b015403610445578899895b8b1580610889575b156106da57888110156106c6578060061b8a01356001600160a01b0381168091036106c15733146106b8575b60001981146106a45760010161065f565b60248b634e487b7160e01b81526011600452fd5b60019b50610693565b600080fd5b60248b634e487b7160e01b81526032600452fd5b508997508a1561085f57600260ff1989971617905560206001600160a01b036040840151169201516040519261070f846110b2565b835260208301526001600160a01b037f00000000000000000000000000000000000000000000000000000000000000001690813b1561085b57858094604092601f19601f6107d09986519a8b998a9889967f30f28b7a0000000000000000000000000000000000000000000000000000000088526107a4600489018251602080916001600160a01b0381511684520151910152565b60208181015160448a0152910151606488015281516001600160a01b03166084880152015160a4860152565b3360c485015261010060e48501528061010485015280610124958686013785858286010152011681010301925af180156108505761083c575b50506040513381527f2a41d71ad20bb81193ade4a1c1c4796777ba30f92f48c41fce7eeb361e109b0e602060043592a380f35b6108459061106c565b61033f578183610809565b6040513d84823e3d90fd5b8580fd5b60046040517f65268788000000000000000000000000000000000000000000000000000000008152fd5b50888110610667565b60046040517fddafbaef000000000000000000000000000000000000000000000000000000008152fd5b60046040517ffd6f4120000000000000000000000000000000000000000000000000000000008152fd5b602488634e487b7160e01b81526021600452fd5b8380fd5b50346100e15760a06003193601126100e1576024358015158091036106c157606060431936011261033f576001600160a01b0390818354163303610158576004356005557fffffffffffffffffffffff00ffffffffffffffffffffffffffffffffffffffff74ff00000000000000000000000000000000000000006001549260a01b169116176001556044358181168091036106c15773ffffffffffffffffffffffffffffffffffffffff19908160025416176002556064356003556084359182168092036106c157600454161760045580f35b50346100e157806003193601126100e1576020600554604051908152f35b50346100e15760206003193601126100e1576004358015158091036106c1577fffffffffffffffffffffff00ffffffffffffffffffffffffffffffffffffffff74ff00000000000000000000000000000000000000006001549260a01b1691161760015580f35b50346100e15760606003193601126100e157610a71610ff7565b60243560443567ffffffffffffffff81116108fa57610a9490369060040161103b565b919060ff60015460a01c1615610c9057604051906020820182610ad585888490916bffffffffffffffffffffffff1960349360601b16825260148201520190565b0392610ae9601f19948581018352826110ea565b519020938487526006602052604087209283549060ff82166005811015610c7c5760028114610c52576004811461046f576003141580610c45575b610c1b57604051610b5260208201926020845282610b4660408201888a611147565b039081018352826110ea565b5190209687600186015403610445578894600460ff196001600160a01b0394161790551690813b156108fa5783610bc695604051968795869485937f3d3e73d70000000000000000000000000000000000000000000000000000000085526004850152604060248501526044840191611147565b03925af18015610c1057610bfd575b507feb0ed49da371fcf5b9313864d8c92a2130bd637affe927c057a55a06905d0cd48380a380f35b610c099093919361106c565b9138610bd5565b6040513d86823e3d90fd5b60046040517ff268e9e3000000000000000000000000000000000000000000000000000000008152fd5b5060038501544210610b24565b60046040517fe4d068da000000000000000000000000000000000000000000000000000000008152fd5b60248a634e487b7160e01b81526021600452fd5b60046040517f09131007000000000000000000000000000000000000000000000000000000008152fd5b50346100e157806003193601126100e157602060ff60015460a01c166040519015158152f35b50346100e157806003193601126100e15760206040516001600160a01b037f0000000000000000000000000000000000000000000000000000000000000000168152f35b90503461033f57608060031936011261033f57610d3f610ff7565b9067ffffffffffffffff604435818111610ff357610d6190369060040161100d565b949092606435838111610fef57610d7c90369060040161103b565b909360019788549360ff8560a01c1615610fc757506001600160a01b038094163303610158576040516bffffffffffffffffffffffff1960608a901b16602080830191825260243560348085019190915283529a91601f199190610de16054826110ea565b5190209889885260068c52604088209586549960ff8b166005811015610fb35760041461046f578d60ff1991610e378794610e2b6040519384928684019687526040840191611147565b038781018352826110ea565b5190209a16178655888387015560028601948411610f9f578b610e5a865461110d565b601f8111610f57575b50508791601f8511600114610ef357508791849182610ee6575b505060001991921b9260031b1c19161790555b600554420190814211610ed257600301556040519484929116907f13e72125035158f222b3ac6ecbf37d3090cd1a798bd83ee2e7b63efa553bad499080a48152f35b602484634e487b7160e01b81526011600452fd5b0135915060001938610e7d565b91848d9381959616878b52848b20948b905b88838310610f3d5750505010610f23575b505050811b019055610e90565b60001960f88560031b161c19910135169055388080610f16565b868601358855909601959384019387935090810190610f05565b868a52818a2090601f870160051c8201928710610f95575b601f0160051c019084905b828110610f8a57508d9150610e63565b8a8155018490610f7a565b9091508190610f6f565b602488634e487b7160e01b81526041600452fd5b60248b634e487b7160e01b81526021600452fd5b807f091310070000000000000000000000000000000000000000000000000000000060049252fd5b8280fd5b8480fd5b600435906001600160a01b03821682036106c157565b9181601f840112156106c15782359167ffffffffffffffff83116106c157602083818601950101116106c157565b9181601f840112156106c15782359167ffffffffffffffff83116106c1576020808501948460061b0101116106c157565b67ffffffffffffffff811161108057604052565b634e487b7160e01b600052604160045260246000fd5b6060810190811067ffffffffffffffff82111761108057604052565b6040810190811067ffffffffffffffff82111761108057604052565b6080810190811067ffffffffffffffff82111761108057604052565b90601f601f19910116810190811067ffffffffffffffff82111761108057604052565b90600182811c9216801561113d575b602083101461112757565b634e487b7160e01b600052602260045260246000fd5b91607f169161111c565b918181526020809101929160009182905b82821061116757505050505090565b909192939485356001600160a01b03811680910361085b5781528582013582820152604090810195019392916001019061115856fea2646970667358221220591e60e4a521956a891ef576100a1c43bf677778b15c2414f15a081fa7aacf8a64736f6c63430008110033",
    "linkReferences": {}
  },
  "methodIdentifiers": {
    "appealResolution(bytes32,(address,uint256)[],((address,uint256),uint256,uint256),bytes)": "41bcf4dc",
    "controller()": "f77c4791",
    "enabled()": "238dafe0",
    "endorseResolution(bytes32,bytes32)": "e44cb37b",
    "executeResolution(address,bytes32,(address,uint256)[])": "2f7f204e",
    "lockPeriod()": "3fd8b02f",
    "owner()": "8da5cb5b",
    "permit2()": "12261ee7",
    "resolutionDetails(bytes32)": "ec67b8c8",
    "setEnabled(bool)": "328d8f72",
    "setUp(uint256,bool,(address,uint256,address))": "410fa8e6",
    "submitResolution(address,bytes32,string,(address,uint256)[])": "02fd597d",
    "transferController(address)": "e8ea054b",
    "transferOwnership(address)": "f2fde38b"
  },
  "id": 35
}