{
  "abi": [
    {
      "inputs": [
        {
          "internalType": "contract Permit2",
          "name": "permit2_",
          "type": "address"
        },
        {
          "internalType": "address",
          "name": "owner",
          "type": "address"
        }
      ],
      "stateMutability": "nonpayable",
      "type": "constructor"
    },
    {
      "inputs": [],
      "name": "AgreementIsDisputed",
      "type": "error"
    },
    {
      "inputs": [],
      "name": "AgreementIsFinalized",
      "type": "error"
    },
    {
      "inputs": [],
      "name": "AgreementNotDisputed",
      "type": "error"
    },
    {
      "inputs": [],
      "name": "AgreementNotFinalized",
      "type": "error"
    },
    {
      "inputs": [],
      "name": "AlreadyExistentAgreement",
      "type": "error"
    },
    {
      "inputs": [],
      "name": "InvalidBalance",
      "type": "error"
    },
    {
      "inputs": [],
      "name": "InvalidCriteria",
      "type": "error"
    },
    {
      "inputs": [],
      "name": "InvalidPermit",
      "type": "error"
    },
    {
      "inputs": [],
      "name": "NoPartOfAgreement",
      "type": "error"
    },
    {
      "inputs": [],
      "name": "NonExistentAgreement",
      "type": "error"
    },
    {
      "inputs": [],
      "name": "OnlyArbitrator",
      "type": "error"
    },
    {
      "inputs": [],
      "name": "PartyAlreadyFinalized",
      "type": "error"
    },
    {
      "inputs": [],
      "name": "PartyAlreadyJoined",
      "type": "error"
    },
    {
      "inputs": [],
      "name": "SettlementBalanceMustMatch",
      "type": "error"
    },
    {
      "inputs": [],
      "name": "SettlementPositionsMustMatch",
      "type": "error"
    },
    {
      "inputs": [],
      "name": "Unauthorized",
      "type": "error"
    },
    {
      "anonymous": false,
      "inputs": [
        {
          "indexed": true,
          "internalType": "bytes32",
          "name": "id",
          "type": "bytes32"
        },
        {
          "indexed": false,
          "internalType": "bytes32",
          "name": "termsHash",
          "type": "bytes32"
        },
        {
          "indexed": false,
          "internalType": "uint256",
          "name": "criteria",
          "type": "uint256"
        },
        {
          "indexed": false,
          "internalType": "string",
          "name": "metadataURI",
          "type": "string"
        },
        {
          "indexed": false,
          "internalType": "address",
          "name": "token",
          "type": "address"
        }
      ],
      "name": "AgreementCreated",
      "type": "event"
    },
    {
      "anonymous": false,
      "inputs": [
        {
          "indexed": true,
          "internalType": "bytes32",
          "name": "id",
          "type": "bytes32"
        },
        {
          "indexed": true,
          "internalType": "address",
          "name": "party",
          "type": "address"
        }
      ],
      "name": "AgreementDisputed",
      "type": "event"
    },
    {
      "anonymous": false,
      "inputs": [
        {
          "indexed": true,
          "internalType": "bytes32",
          "name": "id",
          "type": "bytes32"
        }
      ],
      "name": "AgreementFinalized",
      "type": "event"
    },
    {
      "anonymous": false,
      "inputs": [
        {
          "indexed": true,
          "internalType": "bytes32",
          "name": "id",
          "type": "bytes32"
        },
        {
          "indexed": true,
          "internalType": "address",
          "name": "party",
          "type": "address"
        },
        {
          "indexed": false,
          "internalType": "uint256",
          "name": "balance",
          "type": "uint256"
        }
      ],
      "name": "AgreementJoined",
      "type": "event"
    },
    {
      "anonymous": false,
      "inputs": [
        {
          "indexed": true,
          "internalType": "bytes32",
          "name": "id",
          "type": "bytes32"
        },
        {
          "indexed": true,
          "internalType": "address",
          "name": "party",
          "type": "address"
        },
        {
          "indexed": false,
          "internalType": "uint256",
          "name": "balance",
          "type": "uint256"
        },
        {
          "indexed": false,
          "internalType": "enum PositionStatus",
          "name": "status",
          "type": "uint8"
        }
      ],
      "name": "AgreementPositionUpdated",
      "type": "event"
    },
    {
      "anonymous": false,
      "inputs": [
        {
          "indexed": true,
          "internalType": "address",
          "name": "newArbitrator",
          "type": "address"
        }
      ],
      "name": "ArbitrationTransferred",
      "type": "event"
    },
    {
      "anonymous": false,
      "inputs": [
        {
          "indexed": true,
          "internalType": "address",
          "name": "user",
          "type": "address"
        },
        {
          "indexed": true,
          "internalType": "address",
          "name": "newOwner",
          "type": "address"
        }
      ],
      "name": "OwnershipTransferred",
      "type": "event"
    },
    {
      "inputs": [
        {
          "internalType": "bytes32",
          "name": "id",
          "type": "bytes32"
        },
        {
          "components": [
            {
              "internalType": "address",
              "name": "party",
              "type": "address"
            },
            {
              "internalType": "uint256",
              "name": "balance",
              "type": "uint256"
            }
          ],
          "internalType": "struct PositionParams",
          "name": "newPosition",
          "type": "tuple"
        },
        {
          "components": [
            {
              "components": [
                {
                  "internalType": "address",
                  "name": "token",
                  "type": "address"
                },
                {
                  "internalType": "uint256",
                  "name": "amount",
                  "type": "uint256"
                }
              ],
              "internalType": "struct ISignatureTransfer.TokenPermissions",
              "name": "permitted",
              "type": "tuple"
            },
            {
              "internalType": "uint256",
              "name": "nonce",
              "type": "uint256"
            },
            {
              "internalType": "uint256",
              "name": "deadline",
              "type": "uint256"
            }
          ],
          "internalType": "struct ISignatureTransfer.PermitTransferFrom",
          "name": "permit",
          "type": "tuple"
        },
        {
          "internalType": "bytes",
          "name": "signature",
          "type": "bytes"
        }
      ],
      "name": "adjustPosition",
      "outputs": [],
      "stateMutability": "nonpayable",
      "type": "function"
    },
    {
      "inputs": [
        {
          "internalType": "bytes32",
          "name": "id",
          "type": "bytes32"
        }
      ],
      "name": "agreementData",
      "outputs": [
        {
          "components": [
            {
              "internalType": "bytes32",
              "name": "termsHash",
              "type": "bytes32"
            },
            {
              "internalType": "uint256",
              "name": "criteria",
              "type": "uint256"
            },
            {
              "internalType": "string",
              "name": "metadataURI",
              "type": "string"
            },
            {
              "internalType": "address",
              "name": "token",
              "type": "address"
            },
            {
              "internalType": "uint256",
              "name": "balance",
              "type": "uint256"
            },
            {
              "internalType": "enum AgreementStatus",
              "name": "status",
              "type": "uint8"
            }
          ],
          "internalType": "struct AgreementData",
          "name": "data",
          "type": "tuple"
        }
      ],
      "stateMutability": "view",
      "type": "function"
    },
    {
      "inputs": [
        {
          "internalType": "bytes32",
          "name": "id",
          "type": "bytes32"
        }
      ],
      "name": "agreementPositions",
      "outputs": [
        {
          "components": [
            {
              "internalType": "address",
              "name": "party",
              "type": "address"
            },
            {
              "internalType": "uint256",
              "name": "balance",
              "type": "uint256"
            },
            {
              "internalType": "enum PositionStatus",
              "name": "status",
              "type": "uint8"
            }
          ],
          "internalType": "struct PositionData[]",
          "name": "",
          "type": "tuple[]"
        }
      ],
      "stateMutability": "view",
      "type": "function"
    },
    {
      "inputs": [],
      "name": "arbitrator",
      "outputs": [
        {
          "internalType": "address",
          "name": "",
          "type": "address"
        }
      ],
      "stateMutability": "view",
      "type": "function"
    },
    {
      "inputs": [
        {
          "components": [
            {
              "internalType": "bytes32",
              "name": "termsHash",
              "type": "bytes32"
            },
            {
              "internalType": "uint256",
              "name": "criteria",
              "type": "uint256"
            },
            {
              "internalType": "string",
              "name": "metadataURI",
              "type": "string"
            },
            {
              "internalType": "address",
              "name": "token",
              "type": "address"
            }
          ],
          "internalType": "struct AgreementParams",
          "name": "params",
          "type": "tuple"
        },
        {
          "internalType": "bytes32",
          "name": "salt",
          "type": "bytes32"
        }
      ],
      "name": "createAgreement",
      "outputs": [
        {
          "internalType": "bytes32",
          "name": "id",
          "type": "bytes32"
        }
      ],
      "stateMutability": "nonpayable",
      "type": "function"
    },
    {
      "inputs": [],
      "name": "deposits",
      "outputs": [
        {
          "internalType": "address",
          "name": "token",
          "type": "address"
        },
        {
          "internalType": "uint256",
          "name": "amount",
          "type": "uint256"
        },
        {
          "internalType": "address",
          "name": "recipient",
          "type": "address"
        }
      ],
      "stateMutability": "view",
      "type": "function"
    },
    {
      "inputs": [
        {
          "internalType": "bytes32",
          "name": "id",
          "type": "bytes32"
        }
      ],
      "name": "disputeAgreement",
      "outputs": [],
      "stateMutability": "nonpayable",
      "type": "function"
    },
    {
      "inputs": [
        {
          "internalType": "bytes32",
          "name": "id",
          "type": "bytes32"
        }
      ],
      "name": "finalizeAgreement",
      "outputs": [],
      "stateMutability": "nonpayable",
      "type": "function"
    },
    {
      "inputs": [
        {
          "internalType": "bytes32",
          "name": "id",
          "type": "bytes32"
        },
        {
          "components": [
            {
              "internalType": "address",
              "name": "account",
              "type": "address"
            },
            {
              "internalType": "uint256",
              "name": "balance",
              "type": "uint256"
            },
            {
              "internalType": "bytes32[]",
              "name": "proof",
              "type": "bytes32[]"
            }
          ],
          "internalType": "struct CriteriaResolver",
          "name": "resolver",
          "type": "tuple"
        },
        {
          "components": [
            {
              "components": [
                {
                  "internalType": "address",
                  "name": "token",
                  "type": "address"
                },
                {
                  "internalType": "uint256",
                  "name": "amount",
                  "type": "uint256"
                }
              ],
              "internalType": "struct ISignatureTransfer.TokenPermissions[]",
              "name": "permitted",
              "type": "tuple[]"
            },
            {
              "internalType": "uint256",
              "name": "nonce",
              "type": "uint256"
            },
            {
              "internalType": "uint256",
              "name": "deadline",
              "type": "uint256"
            }
          ],
          "internalType": "struct ISignatureTransfer.PermitBatchTransferFrom",
          "name": "permit",
          "type": "tuple"
        },
        {
          "internalType": "bytes",
          "name": "signature",
          "type": "bytes"
        }
      ],
      "name": "joinAgreement",
      "outputs": [],
      "stateMutability": "nonpayable",
      "type": "function"
    },
    {
      "inputs": [],
      "name": "owner",
      "outputs": [
        {
          "internalType": "address",
          "name": "",
          "type": "address"
        }
      ],
      "stateMutability": "view",
      "type": "function"
    },
    {
      "inputs": [],
      "name": "permit2",
      "outputs": [
        {
          "internalType": "contract Permit2",
          "name": "",
          "type": "address"
        }
      ],
      "stateMutability": "view",
      "type": "function"
    },
    {
      "inputs": [
        {
          "internalType": "address",
          "name": "arbitrator_",
          "type": "address"
        },
        {
          "components": [
            {
              "internalType": "address",
              "name": "token",
              "type": "address"
            },
            {
              "internalType": "uint256",
              "name": "amount",
              "type": "uint256"
            },
            {
              "internalType": "address",
              "name": "recipient",
              "type": "address"
            }
          ],
          "internalType": "struct DepositConfig",
          "name": "deposits_",
          "type": "tuple"
        }
      ],
      "name": "setUp",
      "outputs": [],
      "stateMutability": "nonpayable",
      "type": "function"
    },
    {
      "inputs": [
        {
          "internalType": "bytes32",
          "name": "id",
          "type": "bytes32"
        },
        {
          "components": [
            {
              "internalType": "address",
              "name": "party",
              "type": "address"
            },
            {
              "internalType": "uint256",
              "name": "balance",
              "type": "uint256"
            }
          ],
          "internalType": "struct PositionParams[]",
          "name": "settlement",
          "type": "tuple[]"
        }
      ],
      "name": "settleDispute",
      "outputs": [],
      "stateMutability": "nonpayable",
      "type": "function"
    },
    {
      "inputs": [
        {
          "internalType": "address",
          "name": "newArbitrator",
          "type": "address"
        }
      ],
      "name": "transferArbitration",
      "outputs": [],
      "stateMutability": "nonpayable",
      "type": "function"
    },
    {
      "inputs": [
        {
          "internalType": "address",
          "name": "newOwner",
          "type": "address"
        }
      ],
      "name": "transferOwnership",
      "outputs": [],
      "stateMutability": "nonpayable",
      "type": "function"
    },
    {
      "inputs": [
        {
          "internalType": "bytes32",
          "name": "id",
          "type": "bytes32"
        }
      ],
      "name": "withdrawFromAgreement",
      "outputs": [],
      "stateMutability": "nonpayable",
      "type": "function"
    }
  ],
  "bytecode": {
    "object": "0x60a0346100d557601f6123c638819003918201601f19168301916001600160401b038311848410176100da5780849260409485528339810103126100d55780516001600160a01b039182821682036100d557602001519182168092036100d557600080546001600160a01b03191683178155604051929033907f8be0079c531659141344cd1fd0a4f28419497f9722a3daafe3b4186f6b6457e09080a360016002556080526122d590816100f18239608051818181610b1d01528181610beb01528181611750015281816118390152611c1d0152f35b600080fd5b634e487b7160e01b600052604160045260246000fdfe6080604052600436101561001257600080fd5b6000803560e01c8063061ab0bc14611c4157806312261ee714611bfd578063186799a414611ae85780631bd747a2146113de578063323a5e0b146113a257806333099405146111ab5780633d3e73d714610e455780635541e684146109445780636cc6cde11461091d5780638135fe23146107965780638da5cb5b146107705780638f34a85914610476578063ab4f567814610402578063ac41b75114610227578063af0f9df31461016d5763f2fde38b146100cd57600080fd5b3461016a57602060031936011261016a576100e6611df3565b81546001600160a01b0380821633036101405773ffffffffffffffffffffffffffffffffffffffff19921691829116178255337f8be0079c531659141344cd1fd0a4f28419497f9722a3daafe3b4186f6b6457e08380a380f35b60046040517f82b42900000000000000000000000000000000000000000000000000000000008152fd5b80fd5b503461016a57608060031936011261016a57610187611df3565b6060602319360112610223576001600160a01b0380835416330361014057806101ae611f51565b169173ffffffffffffffffffffffffffffffffffffffff199283600354161760035560443560045560643582811680910361021e5783600554161760055516809160015416176001557f15751365e25548da6591a182cf680d8c896ca976a2fd6e5f845bc86b4a81002f8280a280f35b600080fd5b5080fd5b503461016a576020806003193601126102235760043582526006815260408220600781019081549061025882611ddb565b926102666040519485611db8565b828452601f1961027584611ddb565b01865b8181106103ce5750506008869201915b8381106102f957505050506040519180830190808452825180925280604085019301945b8281106102b95784840385f35b9091928260606001926102ea60408a516001600160a01b038151168452858101518685015201516040830190611e7a565b019601910194929190946102ac565b6103068183989698611ee6565b6001600160a01b03809254600392831b1c1660005284885260406000209160ff6040519261033384611d80565b8285541684526001850154948b85019586526002810154604086015201541691610361606082019384611f14565b5116915190519060058210156103ba576103b2939291610397916040519361038885611d34565b84528a84015260408301611f14565b6103a1828a611f3d565b526103ac8189611f3d565b50611ec1565b959395610288565b602488634e487b7160e01b81526021600452fd5b86906040989698959495516103e281611d34565b878152878382015287604082015282828b01015201969496939293610278565b503461016a57602060031936011261016a5761041c611df3565b6001600160a01b039081835416330361014057168073ffffffffffffffffffffffffffffffffffffffff1960015416176001557f15751365e25548da6591a182cf680d8c896ca976a2fd6e5f845bc86b4a81002f8280a280f35b503461016a576003196040813601126102235760043567ffffffffffffffff9182821161076c576080908236030112610768576024810135801561073e57604051926020948585019030825284600401918235968760408201526024356060820152606081526104e581611d80565b5190209485825260068852604082209360019283860180546107145787908a88555560448301936105168587611f7b565b92909383116107005760028801938c61052f8654611e87565b601f81116106b8575b505081601f851160011461061b57956105fc95856105d6958e9f9b97807ff7cbeac7c87f7e00fcf9440cf10b123fb3d766366a39eeb572c219c8eac3ab469f9e9b976064976105de9e999361060e575b505060001991921b9260031b1c19161790555b019260036105a885611f67565b96016001600160a01b0380971673ffffffffffffffffffffffffffffffffffffffff19825416179055611f7b565b949091611f67565b9360405196879687528b870152608060408701526080860191611fcc565b911660608301520390a2604051908152f35b0135915060001938610588565b8581528d812093949392908e5b601f19861682106106a1575050956105fc958c9d9995856105de9a956064957ff7cbeac7c87f7e00fcf9440cf10b123fb3d766366a39eeb572c219c8eac3ab469f9e9b83601f196105d69b1610610687575b505050811b01905561059b565b60001960f88560031b161c1991013516905538808061067a565b808784968294958701358155019501920190610628565b86845281842090601f870160051c82019287106106f6575b601f0160051c019084905b8281106106eb57508e9150610538565b8481550184906106db565b90915081906106d0565b80634e487b7160e01b602492526041600452fd5b60046040517fd8876c2d000000000000000000000000000000000000000000000000000000008152fd5b60046040517f206f6fea000000000000000000000000000000000000000000000000000000008152fd5b8280fd5b8380fd5b503461016a578060031936011261016a576001600160a01b036020915416604051908152f35b503461016a576020908160031936011261016a5760043580825260068352604082206107c1816121d2565b6107cb3382612269565b156108f35760088101933360005284815260ff6003604060002001541660058110156108df576002146108b557336000528481526003604060002001600260ff1982541617905560058201948554600181018091116108a15761087294959655336000528152600260016040600020015491604051928352820152837ff478e398a575434f5cfcff203322ebf8e4a1f357653fcde0cf89762888e099b660403393a361224b565b61087a575080f35b7fc1efb9b165d126a4a64b456bec4ab69b7bf85d85e16aa5acda227f2ba88126c48280a280f35b602486634e487b7160e01b81526011600452fd5b60046040517faf20ef4a000000000000000000000000000000000000000000000000000000008152fd5b602485634e487b7160e01b81526021600452fd5b60046040517f3b278a7a000000000000000000000000000000000000000000000000000000008152fd5b503461016a578060031936011261016a5760206001600160a01b0360015416604051908152f35b503461016a5761010060031936011261016a57604060231936011261016a577fffffffffffffffffffffffffffffffffffffffffffffffffffffffffffffff9c36016080811261022357604080519161099c83611d34565b1261021e576040516109ad81611d64565b6064356001600160a01b038116810361021e5781526084356020820152815260a435602082015260c435604082015260e4359067ffffffffffffffff9182811161076c576109ff903690600401611e4c565b9190610a0f600160025414611fed565b60028055600435855260066020526040852092610a2b846121d2565b610a3c610a36611f51565b85612269565b156108f3576001600160a01b03610a51611f51565b1660005260088401602052604060002060405195608087019087821090821117610e2f576040526001600160a01b038154168652610aaf60ff600360018401549360208a01948552600281015460408b015201541660608801611f14565b606086015160058110156103ba576002146108b557805160443510610e05575160443503916044358311610df1576001600160a01b03845151166001600160a01b0360038701541603610dc757869360405193610b0b85611d64565b30855260208501526001600160a01b037f0000000000000000000000000000000000000000000000000000000000000000163b15610dc357610bde6040928694610bc5855197889687967f30f28b7a000000000000000000000000000000000000000000000000000000008852610b99600489018251602080916001600160a01b0381511684520151910152565b60208181015160448a0152910151606488015281516001600160a01b03166084880152015160a4860152565b3360c485015261010060e4850152610104840191611fcc565b0381836001600160a01b037f0000000000000000000000000000000000000000000000000000000000000000165af18015610db857610da4575b505060608201516005811015610d9057604051610c3481611d64565b602435926001600160a01b0384169384810361021e578252602082019360443585526000526008810160205260086040600020916001600160a01b0360028186511697519401549460405197610c8989611d80565b88526020880194855260408801958652610ca7606089019788611f14565b5116600052016020526001600160a01b03604060002094511673ffffffffffffffffffffffffffffffffffffffff19855416178455516001840155516002830155516005811015610d7a576003610cfe9201612082565b6060610d08611f51565b910151906005821015610d66576001600160a01b0390610d346040519360443585526020850190611e7a565b16907ff478e398a575434f5cfcff203322ebf8e4a1f357653fcde0cf89762888e099b6604060043592a3600160025580f35b602483634e487b7160e01b81526021600452fd5b634e487b7160e01b600052602160045260246000fd5b602484634e487b7160e01b81526021600452fd5b610dad90611d50565b610768578238610c18565b6040513d84823e3d90fd5b8480fd5b60046040517fddafbaef000000000000000000000000000000000000000000000000000000008152fd5b602487634e487b7160e01b81526011600452fd5b60046040517fc52e3eff000000000000000000000000000000000000000000000000000000008152fd5b634e487b7160e01b600052604160045260246000fd5b503461016a57604060031936011261016a5760243567ffffffffffffffff80821161076857366023830112156107685781600401351161022357366024826004013560061b83010111610223576001600160a01b036001541633036111815760043582526006602052604082209060ff6006830154161561115757610ec98261224b565b61112d5782600783015482600401350361110357835b82600401358110610f535750600483015403610f2957600590600401359101556004357fc1efb9b165d126a4a64b456bec4ab69b7bf85d85e16aa5acda227f2ba88126c48280a280f35b60046040517f595fa923000000000000000000000000000000000000000000000000000000008152fd5b906001600160a01b03610f698360078701611ee6565b91905481610f87610f8287896004013560248b01612159565b611f67565b169260031b1c160361110357610fae36610fa984866004013560248801612159565b611e1d565b906001600160a01b03825116600052600885016020526040600020916001600160a01b0381511692600260208301519101549060405194610fee86611d80565b855260208501908152604085019182526001600160a01b036060860193600285525116600052600888016020526001600160a01b03604060002095511673ffffffffffffffffffffffffffffffffffffffff1986541617855551600185015551600284015551906005821015610d7a5761107161108d9260036110fe9501612082565b602061108585876004013560248901612159565b01359061209b565b916110a3610f8282866004013560248801612159565b6001600160a01b0360206110bf84886004013560248a01612159565b0135916040519283526002602084015216907ff478e398a575434f5cfcff203322ebf8e4a1f357653fcde0cf89762888e099b6604060043592a3611ec1565b610edf565b60046040517f3a78f7d4000000000000000000000000000000000000000000000000000000008152fd5b60046040517f8d87dbb6000000000000000000000000000000000000000000000000000000008152fd5b60046040517f4e16946c000000000000000000000000000000000000000000000000000000008152fd5b60046040517f2eef310a000000000000000000000000000000000000000000000000000000008152fd5b503461016a57602080600319360112610223578160a06040516111cd81611d9c565b828152828482015260606040820152826060820152826080820152015260043582526006815260408220908154926001808401549360028101916001600160a01b03908160038401541696611226600485015494612169565b94604051996112348b611d9c565b8a52878a019182526040518093889083549361124f85611e87565b948585528c838216918260001461137f575050600114611343575b505061127892500383611db8565b60408901918252606089019788526080890193845260a0890194600481101561132f57855260405198878a5251878a0152516040890152519460c060608901528551958660e08a0152855b87811061131a57505050610100958487878a010152511660808701525160a086015251906004821015611306575060c0840152601f01601f191682018290030190f35b80634e487b7160e01b602492526021600452fd5b8181018301518a8201610100015282016112c3565b602487634e487b7160e01b81526021600452fd5b8b92508a52818a20908a915b8583106113675750506112789350820101388061126a565b80548389018501528794508c9390920191810161134f565b9150935061127895925060ff1991501682840152151560051b820101388061126a565b503461016a578060031936011261016a5760606001600160a01b0380600354169060045490600554169060405192835260208301526040820152f35b503461016a57608060031936011261016a5767ffffffffffffffff6024351161016a5760606003196024353603011261016a576044359067ffffffffffffffff821161016a576060600319833603011261016a5760405161143e81611d34565b826004013567ffffffffffffffff811161076857830192366023850112156107685760048401359361146f85611ddb565b9061147d6040519283611db8565b8582526024602083019660061b82010190368211611aa057602401955b818710611ace57505082526024810135602083015260440135604082015260643567ffffffffffffffff8111610768576114d8903690600401611e4c565b90916114e8600160025414611fed565b60028055600435845260066020526040842092611504846121d2565b61150e3385612269565b611aa4576001600160a01b03611528602435600401611f67565b16330361073e57600184015473214b6331a42a61070a10918a7b353097d994a3a23b15611aa057604051907fba5d2c340000000000000000000000000000000000000000000000000000000082526004820152604060248201526001600160a01b03611598602435600401611e09565b166044820152602480350135606482015285604460243501357fffffffffffffffffffffffffffffffffffffffffffffffffffffffffffffffdd6024353603018112156102235760243501600481013567ffffffffffffffff8111610768578060051b3603602483011361076857606060848501528060a48501527f07ffffffffffffffffffffffffffffffffffffffffffffffffffffffffffffff81116107685783818193602460c49460051b91018484013760051b810103018173214b6331a42a61070a10918a7b353097d994a3a25af48015611a9557611a82575b5061167f612052565b926001600160a01b036116928451611f20565b5151166001600160a01b0385511603610dc7576001600160a01b036116b78451611f2d565b5151166001600160a01b0360038701541603610dc757602084015191604051926116e084611d34565b60028452875b60408110611a5f5750604051906116fc82611d64565b308252602082015261170d84611f20565b5261171783611f20565b5060405161172481611d64565b308152602480350135602082015261173b84611f2d565b5261174583611f2d565b506001600160a01b037f0000000000000000000000000000000000000000000000000000000000000000163b15611a5b579086939291604051937fedd9444b0000000000000000000000000000000000000000000000000000000085526080600486015260e485019080519160606084880152825180915260206101048801930190885b818110611a1a57505050806020604092015160a4880152015160c486015260031985820301602486015260208085519283815201940190865b8181106119dd5750505061182c859385938493336044860152600319858403016064860152611fcc565b0381836001600160a01b037f0000000000000000000000000000000000000000000000000000000000000000165af18015610db8576119c9575b505060405161187481611d64565b338152602080820192602480350135845201519060078401805490680100000000000000008210156119b557906118b091600182018155611ee6565b81549060031b906001600160a01b03821b809233901b169119161790556001600160a01b03815116918351604051936118e885611d80565b845260208401908152604084019182526001600160a01b036060850193600185525116600052600886016020526001600160a01b03604060002094511673ffffffffffffffffffffffffffffffffffffffff19855416178455516001840155516002830155519060058210156108df579161196b60049260036119769501612082565b51920191825461209b565b9055604051602480350135815233907f314e33b9d3471b9e382d2ab35ef89aa6e094c1be576ddd9090b5d7d1195cbf70602060043592a3600160025580f35b602487634e487b7160e01b81526041600452fd5b6119d290611d50565b610768578284611866565b919596509192936020604082611a096001948a51602080916001600160a01b0381511684520151910152565b019601910191899695949392611802565b9194959697985091926020604082611a486001948951602080916001600160a01b0381511684520151910152565b0195019101918b989796959493926117c9565b8680fd5b602090604051611a6e81611d64565b8a81528a83820152828288010152016116e6565b611a8e90959195611d50565b9385611676565b6040513d88823e3d90fd5b8580fd5b60046040517f6d9bf6df000000000000000000000000000000000000000000000000000000008152fd5b6020604091611add368a611e1d565b81520196019561149a565b503461016a57602060031936011261016a57600435611b0b600160025414611fed565b60028055808252600660205260408220611b23612052565b90611b2d8161224b565b15611bd357611b3c3382612269565b156108f357611b9791338552600882016020526040852091611b8e60018401936003855491896002820181815499555501600360ff198254161790556001600160a01b039283600333920154166120a8565b339151166120a8565b60405190828252600360208301527ff478e398a575434f5cfcff203322ebf8e4a1f357653fcde0cf89762888e099b660403393a3600160025580f35b60046040517fa3b1c9de000000000000000000000000000000000000000000000000000000008152fd5b503461016a578060031936011261016a5760206040516001600160a01b037f0000000000000000000000000000000000000000000000000000000000000000168152f35b503461016a57602060031936011261016a57600435808252600660205260408220611c6b816121d2565b611c753382612269565b156108f357600190611cd5611c88612052565b91338652600881016020526040862092866002850160068154940160ff1990888282541617905560046003880191825416179055556001600160a01b0360408183511692015116906120a8565b015460405190815260046020820152817ff478e398a575434f5cfcff203322ebf8e4a1f357653fcde0cf89762888e099b660403393a333907fb67e3ac5aa7b56d61e366985ea94be26db935eca5c55e0359fd36c5852b6fa398380a380f35b6060810190811067ffffffffffffffff821117610e2f57604052565b67ffffffffffffffff8111610e2f57604052565b6040810190811067ffffffffffffffff821117610e2f57604052565b6080810190811067ffffffffffffffff821117610e2f57604052565b60c0810190811067ffffffffffffffff821117610e2f57604052565b90601f601f19910116810190811067ffffffffffffffff821117610e2f57604052565b67ffffffffffffffff8111610e2f5760051b60200190565b600435906001600160a01b038216820361021e57565b35906001600160a01b038216820361021e57565b919082604091031261021e57604051611e3581611d64565b6020808294611e4381611e09565b84520135910152565b9181601f8401121561021e5782359167ffffffffffffffff831161021e576020838186019501011161021e57565b906005821015610d7a5752565b90600182811c92168015611eb7575b6020831014611ea157565b634e487b7160e01b600052602260045260246000fd5b91607f1691611e96565b6000198114611ed05760010190565b634e487b7160e01b600052601160045260246000fd5b8054821015611efe5760005260206000200190600090565b634e487b7160e01b600052603260045260246000fd5b6005821015610d7a5752565b805115611efe5760200190565b805160011015611efe5760400190565b8051821015611efe5760209160051b010190565b6024356001600160a01b038116810361021e5790565b356001600160a01b038116810361021e5790565b9035907fffffffffffffffffffffffffffffffffffffffffffffffffffffffffffffffe18136030182121561021e570180359067ffffffffffffffff821161021e5760200191813603831361021e57565b601f8260209493601f19938186528686013760008582860101520116010190565b15611ff457565b60646040517f08c379a000000000000000000000000000000000000000000000000000000000815260206004820152600a60248201527f5245454e5452414e4359000000000000000000000000000000000000000000006044820152fd5b6040519061205f82611d34565b8160406001600160a01b0380600354168352600454602084015260055416910152565b906005811015610d7a5760ff60ff198354169116179055565b91908201809211611ed057565b60009182604492602095604051937fa9059cbb000000000000000000000000000000000000000000000000000000008552600485015260248401525af13d15601f3d11600160005114161716156120fb57565b60646040517f08c379a000000000000000000000000000000000000000000000000000000000815260206004820152600f60248201527f5452414e534645525f4641494c454400000000000000000000000000000000006044820152fd5b9190811015611efe5760061b0190565b6007810154801561219a5760058201541015612194576006015460ff1661218f57600190565b600390565b50600290565b50600101546121cd5760046040517fb9e8c16f000000000000000000000000000000000000000000000000000000008152fd5b600090565b6001810154156122215760ff6006820154166121f7576121f19061224b565b61112d57565b60046040517f03144514000000000000000000000000000000000000000000000000000000008152fd5b60046040517fb9e8c16f000000000000000000000000000000000000000000000000000000008152fd5b6007810154801515918261225e57505090565b600501541015919050565b60078101541515918261227b57505090565b90915060086001600160a01b0380921692836000520160205260406000205416149056fea26469706673582212206e9602974fa0b687545ee38bfd4a3b1758f8c5cb29866da3fc2ff2cfb8bfb75564736f6c63430008110033",
    "linkReferences": {}
  },
  "methodIdentifiers": {
    "adjustPosition(bytes32,(address,uint256),((address,uint256),uint256,uint256),bytes)": "5541e684",
    "agreementData(bytes32)": "33099405",
    "agreementPositions(bytes32)": "ac41b751",
    "arbitrator()": "6cc6cde1",
    "createAgreement((bytes32,uint256,string,address),bytes32)": "8f34a859",
    "deposits()": "323a5e0b",
    "disputeAgreement(bytes32)": "061ab0bc",
    "finalizeAgreement(bytes32)": "8135fe23",
    "joinAgreement(bytes32,(address,uint256,bytes32[]),((address,uint256)[],uint256,uint256),bytes)": "1bd747a2",
    "owner()": "8da5cb5b",
    "permit2()": "12261ee7",
    "setUp(address,(address,uint256,address))": "af0f9df3",
    "settleDispute(bytes32,(address,uint256)[])": "3d3e73d7",
    "transferArbitration(address)": "ab4f5678",
    "transferOwnership(address)": "f2fde38b",
    "withdrawFromAgreement(bytes32)": "186799a4"
  },
  "id": 37
}