{
  "abi": [
    {
      "inputs": [
        {
          "internalType": "contract Permit2",
          "name": "permit2_",
          "type": "address"
        },
        {
          "internalType": "address",
          "name": "owner",
          "type": "address"
        }
      ],
      "stateMutability": "nonpayable",
      "type": "constructor"
    },
    {
      "inputs": [],
      "name": "AgreementIsDisputed",
      "type": "error"
    },
    {
      "inputs": [],
      "name": "AgreementIsFinalized",
      "type": "error"
    },
    {
      "inputs": [],
      "name": "AgreementNotDisputed",
      "type": "error"
    },
    {
      "inputs": [],
      "name": "AgreementNotFinalized",
      "type": "error"
    },
    {
      "inputs": [],
      "name": "AlreadyExistentAgreement",
      "type": "error"
    },
    {
      "inputs": [],
      "name": "InvalidBalance",
      "type": "error"
    },
    {
      "inputs": [],
      "name": "InvalidCriteria",
      "type": "error"
    },
    {
      "inputs": [],
      "name": "InvalidPermit",
      "type": "error"
    },
    {
      "inputs": [],
      "name": "NoPartOfAgreement",
      "type": "error"
    },
    {
      "inputs": [],
      "name": "NonExistentAgreement",
      "type": "error"
    },
    {
      "inputs": [],
      "name": "OnlyArbitrator",
      "type": "error"
    },
    {
      "inputs": [],
      "name": "PartyAlreadyFinalized",
      "type": "error"
    },
    {
      "inputs": [],
      "name": "PartyAlreadyJoined",
      "type": "error"
    },
    {
      "inputs": [],
      "name": "SettlementBalanceMustMatch",
      "type": "error"
    },
    {
      "inputs": [],
      "name": "SettlementPositionsMustMatch",
      "type": "error"
    },
    {
      "inputs": [],
      "name": "Unauthorized",
      "type": "error"
    },
    {
      "inputs": [],
      "name": "UnsafeCast",
      "type": "error"
    },
    {
      "anonymous": false,
      "inputs": [
        {
          "indexed": true,
          "internalType": "bytes32",
          "name": "id",
          "type": "bytes32"
        },
        {
          "indexed": false,
          "internalType": "bytes32",
          "name": "termsHash",
          "type": "bytes32"
        },
        {
          "indexed": false,
          "internalType": "uint256",
          "name": "criteria",
          "type": "uint256"
        },
        {
          "indexed": false,
          "internalType": "string",
          "name": "metadataURI",
          "type": "string"
        },
        {
          "indexed": false,
          "internalType": "address",
          "name": "token",
          "type": "address"
        }
      ],
      "name": "AgreementCreated",
      "type": "event"
    },
    {
      "anonymous": false,
      "inputs": [
        {
          "indexed": true,
          "internalType": "bytes32",
          "name": "id",
          "type": "bytes32"
        },
        {
          "indexed": true,
          "internalType": "address",
          "name": "party",
          "type": "address"
        }
      ],
      "name": "AgreementDisputed",
      "type": "event"
    },
    {
      "anonymous": false,
      "inputs": [
        {
          "indexed": true,
          "internalType": "bytes32",
          "name": "id",
          "type": "bytes32"
        }
      ],
      "name": "AgreementFinalized",
      "type": "event"
    },
    {
      "anonymous": false,
      "inputs": [
        {
          "indexed": true,
          "internalType": "bytes32",
          "name": "id",
          "type": "bytes32"
        },
        {
          "indexed": true,
          "internalType": "address",
          "name": "party",
          "type": "address"
        },
        {
          "indexed": false,
          "internalType": "uint256",
          "name": "balance",
          "type": "uint256"
        }
      ],
      "name": "AgreementJoined",
      "type": "event"
    },
    {
      "anonymous": false,
      "inputs": [
        {
          "indexed": true,
          "internalType": "bytes32",
          "name": "id",
          "type": "bytes32"
        },
        {
          "indexed": true,
          "internalType": "address",
          "name": "party",
          "type": "address"
        },
        {
          "indexed": false,
          "internalType": "uint256",
          "name": "balance",
          "type": "uint256"
        },
        {
          "indexed": false,
          "internalType": "enum PositionStatus",
          "name": "status",
          "type": "uint8"
        }
      ],
      "name": "AgreementPositionUpdated",
      "type": "event"
    },
    {
      "anonymous": false,
      "inputs": [
        {
          "indexed": true,
          "internalType": "address",
          "name": "newArbitrator",
          "type": "address"
        }
      ],
      "name": "ArbitrationTransferred",
      "type": "event"
    },
    {
      "anonymous": false,
      "inputs": [
        {
          "indexed": true,
          "internalType": "address",
          "name": "user",
          "type": "address"
        },
        {
          "indexed": true,
          "internalType": "address",
          "name": "newOwner",
          "type": "address"
        }
      ],
      "name": "OwnershipTransferred",
      "type": "event"
    },
    {
      "inputs": [
        {
          "internalType": "bytes32",
          "name": "id",
          "type": "bytes32"
        },
        {
          "components": [
            {
              "internalType": "address",
              "name": "party",
              "type": "address"
            },
            {
              "internalType": "uint256",
              "name": "balance",
              "type": "uint256"
            }
          ],
          "internalType": "struct PositionParams",
          "name": "newPosition",
          "type": "tuple"
        },
        {
          "components": [
            {
              "components": [
                {
                  "internalType": "address",
                  "name": "token",
                  "type": "address"
                },
                {
                  "internalType": "uint256",
                  "name": "amount",
                  "type": "uint256"
                }
              ],
              "internalType": "struct ISignatureTransfer.TokenPermissions",
              "name": "permitted",
              "type": "tuple"
            },
            {
              "internalType": "uint256",
              "name": "nonce",
              "type": "uint256"
            },
            {
              "internalType": "uint256",
              "name": "deadline",
              "type": "uint256"
            }
          ],
          "internalType": "struct ISignatureTransfer.PermitTransferFrom",
          "name": "permit",
          "type": "tuple"
        },
        {
          "internalType": "bytes",
          "name": "signature",
          "type": "bytes"
        }
      ],
      "name": "adjustPosition",
      "outputs": [],
      "stateMutability": "nonpayable",
      "type": "function"
    },
    {
      "inputs": [
        {
          "internalType": "bytes32",
          "name": "id",
          "type": "bytes32"
        }
      ],
      "name": "agreementData",
      "outputs": [
        {
          "components": [
            {
              "internalType": "bytes32",
              "name": "termsHash",
              "type": "bytes32"
            },
            {
              "internalType": "uint256",
              "name": "criteria",
              "type": "uint256"
            },
            {
              "internalType": "string",
              "name": "metadataURI",
              "type": "string"
            },
            {
              "internalType": "address",
              "name": "token",
              "type": "address"
            },
            {
              "internalType": "uint256",
              "name": "balance",
              "type": "uint256"
            },
            {
              "internalType": "enum AgreementStatus",
              "name": "status",
              "type": "uint8"
            }
          ],
          "internalType": "struct AgreementData",
          "name": "data",
          "type": "tuple"
        }
      ],
      "stateMutability": "view",
      "type": "function"
    },
    {
      "inputs": [
        {
          "internalType": "bytes32",
          "name": "id",
          "type": "bytes32"
        }
      ],
      "name": "agreementPositions",
      "outputs": [
        {
          "components": [
            {
              "internalType": "address",
              "name": "party",
              "type": "address"
            },
            {
              "internalType": "uint256",
              "name": "balance",
              "type": "uint256"
            },
            {
              "internalType": "uint256",
              "name": "deposit",
              "type": "uint256"
            },
            {
              "internalType": "enum PositionStatus",
              "name": "status",
              "type": "uint8"
            }
          ],
          "internalType": "struct PositionData[]",
          "name": "",
          "type": "tuple[]"
        }
      ],
      "stateMutability": "view",
      "type": "function"
    },
    {
      "inputs": [],
      "name": "arbitrator",
      "outputs": [
        {
          "internalType": "address",
          "name": "",
          "type": "address"
        }
      ],
      "stateMutability": "view",
      "type": "function"
    },
    {
      "inputs": [
        {
          "components": [
            {
              "internalType": "bytes32",
              "name": "termsHash",
              "type": "bytes32"
            },
            {
              "internalType": "uint256",
              "name": "criteria",
              "type": "uint256"
            },
            {
              "internalType": "string",
              "name": "metadataURI",
              "type": "string"
            },
            {
              "internalType": "address",
              "name": "token",
              "type": "address"
            }
          ],
          "internalType": "struct AgreementParams",
          "name": "params",
          "type": "tuple"
        },
        {
          "internalType": "bytes32",
          "name": "salt",
          "type": "bytes32"
        }
      ],
      "name": "createAgreement",
      "outputs": [
        {
          "internalType": "bytes32",
          "name": "id",
          "type": "bytes32"
        }
      ],
      "stateMutability": "nonpayable",
      "type": "function"
    },
    {
      "inputs": [],
      "name": "deposits",
      "outputs": [
        {
          "internalType": "address",
          "name": "token",
          "type": "address"
        },
        {
          "internalType": "uint256",
          "name": "amount",
          "type": "uint256"
        },
        {
          "internalType": "address",
          "name": "recipient",
          "type": "address"
        }
      ],
      "stateMutability": "view",
      "type": "function"
    },
    {
      "inputs": [
        {
          "internalType": "bytes32",
          "name": "id",
          "type": "bytes32"
        }
      ],
      "name": "disputeAgreement",
      "outputs": [],
      "stateMutability": "nonpayable",
      "type": "function"
    },
    {
      "inputs": [
        {
          "internalType": "bytes32",
          "name": "id",
          "type": "bytes32"
        }
      ],
      "name": "finalizeAgreement",
      "outputs": [],
      "stateMutability": "nonpayable",
      "type": "function"
    },
    {
      "inputs": [
        {
          "internalType": "bytes32",
          "name": "id",
          "type": "bytes32"
        },
        {
          "components": [
            {
              "internalType": "address",
              "name": "account",
              "type": "address"
            },
            {
              "internalType": "uint256",
              "name": "balance",
              "type": "uint256"
            },
            {
              "internalType": "bytes32[]",
              "name": "proof",
              "type": "bytes32[]"
            }
          ],
          "internalType": "struct CriteriaResolver",
          "name": "resolver",
          "type": "tuple"
        },
        {
          "components": [
            {
              "components": [
                {
                  "internalType": "address",
                  "name": "token",
                  "type": "address"
                },
                {
                  "internalType": "uint256",
                  "name": "amount",
                  "type": "uint256"
                }
              ],
              "internalType": "struct ISignatureTransfer.TokenPermissions[]",
              "name": "permitted",
              "type": "tuple[]"
            },
            {
              "internalType": "uint256",
              "name": "nonce",
              "type": "uint256"
            },
            {
              "internalType": "uint256",
              "name": "deadline",
              "type": "uint256"
            }
          ],
          "internalType": "struct ISignatureTransfer.PermitBatchTransferFrom",
          "name": "permit",
          "type": "tuple"
        },
        {
          "internalType": "bytes",
          "name": "signature",
          "type": "bytes"
        }
      ],
      "name": "joinAgreement",
      "outputs": [],
      "stateMutability": "nonpayable",
      "type": "function"
    },
    {
      "inputs": [
        {
          "internalType": "bytes32",
          "name": "id",
          "type": "bytes32"
        },
        {
          "components": [
            {
              "internalType": "address",
              "name": "account",
              "type": "address"
            },
            {
              "internalType": "uint256",
              "name": "balance",
              "type": "uint256"
            },
            {
              "internalType": "bytes32[]",
              "name": "proof",
              "type": "bytes32[]"
            }
          ],
          "internalType": "struct CriteriaResolver",
          "name": "resolver",
          "type": "tuple"
        }
      ],
      "name": "joinAgreementApproved",
      "outputs": [],
      "stateMutability": "nonpayable",
      "type": "function"
    },
    {
      "inputs": [],
      "name": "owner",
      "outputs": [
        {
          "internalType": "address",
          "name": "",
          "type": "address"
        }
      ],
      "stateMutability": "view",
      "type": "function"
    },
    {
      "inputs": [],
      "name": "permit2",
      "outputs": [
        {
          "internalType": "contract Permit2",
          "name": "",
          "type": "address"
        }
      ],
      "stateMutability": "view",
      "type": "function"
    },
    {
      "inputs": [
        {
          "internalType": "address",
          "name": "arbitrator_",
          "type": "address"
        },
        {
          "components": [
            {
              "internalType": "address",
              "name": "token",
              "type": "address"
            },
            {
              "internalType": "uint256",
              "name": "amount",
              "type": "uint256"
            },
            {
              "internalType": "address",
              "name": "recipient",
              "type": "address"
            }
          ],
          "internalType": "struct DepositConfig",
          "name": "deposits_",
          "type": "tuple"
        }
      ],
      "name": "setUp",
      "outputs": [],
      "stateMutability": "nonpayable",
      "type": "function"
    },
    {
      "inputs": [
        {
          "internalType": "bytes32",
          "name": "id",
          "type": "bytes32"
        },
        {
          "components": [
            {
              "internalType": "address",
              "name": "party",
              "type": "address"
            },
            {
              "internalType": "uint256",
              "name": "balance",
              "type": "uint256"
            }
          ],
          "internalType": "struct PositionParams[]",
          "name": "settlement",
          "type": "tuple[]"
        }
      ],
      "name": "settleDispute",
      "outputs": [],
      "stateMutability": "nonpayable",
      "type": "function"
    },
    {
      "inputs": [
        {
          "internalType": "address",
          "name": "newArbitrator",
          "type": "address"
        }
      ],
      "name": "transferArbitration",
      "outputs": [],
      "stateMutability": "nonpayable",
      "type": "function"
    },
    {
      "inputs": [
        {
          "internalType": "address",
          "name": "newOwner",
          "type": "address"
        }
      ],
      "name": "transferOwnership",
      "outputs": [],
      "stateMutability": "nonpayable",
      "type": "function"
    },
    {
      "inputs": [
        {
          "internalType": "bytes32",
          "name": "id",
          "type": "bytes32"
        }
      ],
      "name": "withdrawFromAgreement",
      "outputs": [],
      "stateMutability": "nonpayable",
      "type": "function"
    }
  ],
  "bytecode": {
    "object": "0x60a034620000ce57601f6200306c38819003918201601f19168301916001600160401b03831184841017620000d3578084926040948552833981010312620000ce5780516001600160a01b03918282168203620000ce5760200151918216809203620000ce57600080546001600160a01b03191683178155604051929033907f8be0079c531659141344cd1fd0a4f28419497f9722a3daafe3b4186f6b6457e09080a36001600255608052612f829081620000ea823960805181818161038901528181611f5c01526124be0152f35b600080fd5b634e487b7160e01b600052604160045260246000fdfe60806040526004361015610013575b600080fd5b60003560e01c8063061ab0bc1461016757806312261ee71461015e578063186799a4146101555780631bd747a21461014c578063323a5e0b14610143578063330994051461013a5780633d3e73d7146101315780635541e684146101285780636cc6cde11461011f5780638135fe23146101165780638da5cb5b1461010d5780638f34a85914610104578063a37ee28c146100fb578063ab4f5678146100f2578063ac41b751146100e9578063af0f9df3146100e05763f2fde38b146100d857600080fd5b61000e6117f0565b5061000e6116ac565b5061000e61157f565b5061000e611425565b5061000e611307565b5061000e611129565b5061000e6110f4565b5061000e610f2c565b5061000e610ef7565b5061000e610e3c565b5061000e610b52565b5061000e610a5e565b5061000e610908565b5061000e6107fa565b5061000e6103ad565b5061000e61035b565b503461000e57602060031936011261000e57600435610190816000526006602052604060002090565b61019981612a4d565b6101aa6101a63383612b0e565b1590565b610326576001906102b96101bc61206c565b916101ea33600883019073ffffffffffffffffffffffffffffffffffffffff16600052602052604060002090565b9260006002850161022560068254950160017fffffffffffffffffffffffffffffffffffffffffffffffffffffffffffffff00825416179055565b6102576003870160047fffffffffffffffffffffffffffffffffffffffffffffffffffffffffffffff00825416179055565b556102b3604061029761027e845173ffffffffffffffffffffffffffffffffffffffff1690565b73ffffffffffffffffffffffffffffffffffffffff1690565b92015173ffffffffffffffffffffffffffffffffffffffff1690565b90612717565b0154817ff478e398a575434f5cfcff203322ebf8e4a1f357653fcde0cf89762888e099b6604051806102fa3395826020600491939293604081019481520152565b0390a333907fb67e3ac5aa7b56d61e366985ea94be26db935eca5c55e0359fd36c5852b6fa39600080a3005b60046040517f3b278a7a000000000000000000000000000000000000000000000000000000008152fd5b600091031261000e57565b503461000e57600060031936011261000e57602060405173ffffffffffffffffffffffffffffffffffffffff7f0000000000000000000000000000000000000000000000000000000000000000168152f35b503461000e57602060031936011261000e576004356103d0600160025414611e01565b600280556103e8816000526006602052604060002090565b6103f061206c565b906103fd6101a682612af0565b6105245761040e6101a63383612b0e565b610326576104d7916104b561044633600885019073ffffffffffffffffffffffffffffffffffffffff16600052602052604060002090565b600181019361048b60038654936000600282018181549a55550160037fffffffffffffffffffffffffffffffffffffffffffffffffffffffffffffff00825416179055565b6104b061027e60033393015473ffffffffffffffffffffffffffffffffffffffff1690565b612717565b6104b061027e33925173ffffffffffffffffffffffffffffffffffffffff1690565b604051907ff478e398a575434f5cfcff203322ebf8e4a1f357653fcde0cf89762888e099b63392806105158190600360206040840193600081520152565b0390a36105226001600255565b005b60046040517fa3b1c9de000000000000000000000000000000000000000000000000000000008152fd5b7fffffffffffffffffffffffffffffffffffffffffffffffffffffffffffffffdc606091011261000e57602490565b9081606091031261000e5790565b507f4e487b7100000000000000000000000000000000000000000000000000000000600052604160045260246000fd5b6040810190811067ffffffffffffffff8211176105d757604052565b6105df61058b565b604052565b6060810190811067ffffffffffffffff8211176105d757604052565b60c0810190811067ffffffffffffffff8211176105d757604052565b6080810190811067ffffffffffffffff8211176105d757604052565b67ffffffffffffffff81116105d757604052565b90601f7fffffffffffffffffffffffffffffffffffffffffffffffffffffffffffffffe0910116810190811067ffffffffffffffff8211176105d757604052565b6040519061069a82610600565b565b6040519061069a826105bb565b6040519061069a8261061c565b60209067ffffffffffffffff81116106d0575b60051b0190565b6106d861058b565b6106c9565b73ffffffffffffffffffffffffffffffffffffffff81160361000e57565b7fffffffffffffffffffffffffffffffffffffffffffffffffffffffffffffff9c604091011261000e5760405190610732826105bb565b8160643561073f816106dd565b81526020608435910152565b7fffffffffffffffffffffffffffffffffffffffffffffffffffffffffffffffdc604091011261000e5760405190610782826105bb565b8160243561078f816106dd565b81526020604435910152565b919082604091031261000e576040516107b3816105bb565b602080829480356107c3816106dd565b84520135910152565b9181601f8401121561000e5782359167ffffffffffffffff831161000e576020838186019501011161000e57565b503461000e5760031960808136011261000e5767ffffffffffffffff9060243582811161000e5761082f90369060040161057d565b6044359183831161000e57606090833603011261000e576040805192610854846105e4565b806004013585811161000e5781013660238201121561000e5760048101359061087c826106b6565b906108898551928361064c565b82825260209260248484019160061b8301019136831161000e576024879101915b8383106108ef5750505090865250602482013590850152604401359083015260643592831161000e576108e46105229336906004016107cc565b929091600435611e66565b85906108fb368561079b565b81520191019086906108aa565b503461000e57600060031936011261000e57606073ffffffffffffffffffffffffffffffffffffffff80600354169060045490600554169060405192835260208301526040820152f35b507f4e487b7100000000000000000000000000000000000000000000000000000000600052602160045260246000fd5b90600482101561098f5752565b610997610952565b52565b602080825282518183015280830151604083015260408301519060c060608401528151918260e085015260005b838110610a4957505050601f7fffffffffffffffffffffffffffffffffffffffffffffffffffffffffffffffe091610a4260a0610100966000888589010152610a2d6060820151608089019073ffffffffffffffffffffffffffffffffffffffff169052565b608081015182880152015160c0860190610982565b0116010190565b818101830151858201610100015282016109c7565b503461000e57602060031936011261000e57600060a0604051610a8081610600565b828152826020820152606060408201528260608201528260808201520152610b4e610ab76004356000526006602052604060002090565b610b42815491600181015490610b34610ae7600383015473ffffffffffffffffffffffffffffffffffffffff1690565b610b126002600485015494610afb816127e6565b96610b0461068d565b998a5260208a0152016118d6565b604087015273ffffffffffffffffffffffffffffffffffffffff166060860152565b608084015260a08301611999565b6040519182918261099a565b0390f35b503461000e5760408060031936011261000e57600480359167ffffffffffffffff916024359183831161000e573660238401121561000e578282013593841161000e576024830192602436918660061b01011161000e57610bcb61027e60015473ffffffffffffffffffffffffffffffffffffffff1690565b3303610e1657610be5856000526006602052604060002090565b92610bf76101a6600686015460ff1690565b610def57610c0484612af0565b610dc857600090600785019081548703610d9f57825b878110610c80575050508284015403610c5a575050600501557fc1efb9b165d126a4a64b456bec4ab69b7bf85d85e16aa5acda227f2ba88126c4600080a2005b517f595fa923000000000000000000000000000000000000000000000000000000008152fd5b610cad610c8d8285611ac9565b905473ffffffffffffffffffffffffffffffffffffffff9160031b1c1690565b610cc361027e610cbe848c876127c8565b611ba3565b73ffffffffffffffffffffffffffffffffffffffff80921603610d775790888a7ff478e398a575434f5cfcff203322ebf8e4a1f357653fcde0cf89762888e099b6610d7294610d24610d1e610d1987878b6127c8565b612696565b8d612da4565b610d3e6020998a610d3688888c6127c8565b01359061270a565b98610d5886610d51610cbe82898d6127c8565b968a6127c8565b8b51910135815260026020820152931692604090a3611a5f565b610c1a565b8686517f3a78f7d4000000000000000000000000000000000000000000000000000000008152fd5b505050517f3a78f7d4000000000000000000000000000000000000000000000000000000008152fd5b50517f8d87dbb6000000000000000000000000000000000000000000000000000000008152fd5b50517f4e16946c000000000000000000000000000000000000000000000000000000008152fd5b517f2eef310a000000000000000000000000000000000000000000000000000000008152fd5b503461000e5761010060031936011261000e5760407fffffffffffffffffffffffffffffffffffffffffffffffffffffffffffffffdc36011261000e5760807fffffffffffffffffffffffffffffffffffffffffffffffffffffffffffffff9c36011261000e57604051610eaf816105e4565b610eb8366106fb565b815260a435602082015260c435604082015260e4359067ffffffffffffffff821161000e57610eee6105229236906004016107cc565b91600435612388565b503461000e57600060031936011261000e57602073ffffffffffffffffffffffffffffffffffffffff60015416604051908152f35b503461000e57602060031936011261000e57600435610f55816000526006602052604060002090565b610f5e81612a4d565b610f6b6101a63383612b0e565b6103265760088101906002610fad6003610fa533869073ffffffffffffffffffffffffffffffffffffffff16600052602052604060002090565b015460ff1690565b610fb6816114e0565b146110ca57600161105461109d9361101f6003610ff333849073ffffffffffffffffffffffffffffffffffffffff16600052602052604060002090565b0160027fffffffffffffffffffffffffffffffffffffffffffffffffffffffffffffff00825416179055565b6005840161102d81546126fc565b90553373ffffffffffffffffffffffffffffffffffffffff16600052602052604060002090565b0154837ff478e398a575434f5cfcff203322ebf8e4a1f357653fcde0cf89762888e099b6604051806110953395826020600291939293604081019481520152565b0390a3612af0565b6110a357005b7fc1efb9b165d126a4a64b456bec4ab69b7bf85d85e16aa5acda227f2ba88126c4600080a2005b60046040517faf20ef4a000000000000000000000000000000000000000000000000000000008152fd5b503461000e57600060031936011261000e57602073ffffffffffffffffffffffffffffffffffffffff60005416604051908152f35b503461000e576040600319818136011261000e576004359067ffffffffffffffff821161000e5760808260040191833603011261000e5760248201359081156112de5783513060208201908152823560408301819052602435606084015292916111be81608081015b037fffffffffffffffffffffffffffffffffffffffffffffffffffffffffffffffe0810183528261064c565b519020936111d6856000526006602052604060002090565b916001830180546112b5578361129861129088958895610b4e9c9a6112a4968d9b7ff7cbeac7c87f7e00fcf9440cf10b123fb3d766366a39eeb572c219c8eac3ab469b555561128b6064604484019361123c6112328686611bad565b9060028b01611c52565b0195600361124988611ba3565b91019073ffffffffffffffffffffffffffffffffffffffff167fffffffffffffffffffffffff0000000000000000000000000000000000000000825416179055565b611bad565b919092611ba3565b91885195869586611dc0565b0390a2519081529081906020820190565b600488517fd8876c2d000000000000000000000000000000000000000000000000000000008152fd5b600484517f206f6fea000000000000000000000000000000000000000000000000000000008152fd5b503461000e57604060031936011261000e5760043560243567ffffffffffffffff811161000e5761133c90369060040161057d565b9061134b600160025414611e01565b600280558060005260066020526113f1604060002061136b33858361292f565b61137361206c565b80516113a19060209073ffffffffffffffffffffffffffffffffffffffff16920191825190309033906121e6565b6113d860206113ca61027e600386015473ffffffffffffffffffffffffffffffffffffffff1690565b9601358096309033906121e6565b6113e061069c565b338152908560208301525191612ca2565b60405191825233917f314e33b9d3471b9e382d2ab35ef89aa6e094c1be576ddd9090b5d7d1195cbf70908060208101610515565b503461000e57602060031936011261000e57600435611443816106dd565b73ffffffffffffffffffffffffffffffffffffffff90816000541633036114b65716807fffffffffffffffffffffffff000000000000000000000000000000000000000060015416176001557f15751365e25548da6591a182cf680d8c896ca976a2fd6e5f845bc86b4a81002f600080a2005b60046040517f82b42900000000000000000000000000000000000000000000000000000000008152fd5b600511156114ea57565b61069a610952565b90600582101561098f5752565b60208082019080835283518092528060408094019401926000905b83821061152957505050505090565b9091929394836080600192611572895173ffffffffffffffffffffffffffffffffffffffff815116835284810151858401528681015187840152606080910151908301906114f2565b019601949392019061151a565b503461000e5760208060031936011261000e576115a86004356000526006602052604060002090565b60078101918254916115b9836119a5565b93600860009201915b8481106115d75760405180610b4e88826114ff565b806116196116146115ee610c8d6116a79587611ac9565b869073ffffffffffffffffffffffffffffffffffffffff16600052602052604060002090565b611afb565b61168c61163a825173ffffffffffffffffffffffffffffffffffffffff1690565b9187810151906040808201519060608093015193611657856114e0565b61167e6116626106a9565b73ffffffffffffffffffffffffffffffffffffffff9098168852565b8b8701528501528301611aef565b6116968289611b72565b526116a18188611b72565b50611a5f565b6115c2565b503461000e57608060031936011261000e576004356116ca816106dd565b6116d33661054e565b9073ffffffffffffffffffffffffffffffffffffffff91826000541633036114b65760408161174a61179e9335611709816106dd565b73ffffffffffffffffffffffffffffffffffffffff167fffffffffffffffffffffffff00000000000000000000000000000000000000006003541617600355565b6020810135600455013561175d816106dd565b73ffffffffffffffffffffffffffffffffffffffff167fffffffffffffffffffffffff00000000000000000000000000000000000000006005541617600555565b16807fffffffffffffffffffffffff000000000000000000000000000000000000000060015416176001557f15751365e25548da6591a182cf680d8c896ca976a2fd6e5f845bc86b4a81002f600080a2005b503461000e57602060031936011261000e5760043561180e816106dd565b600090815473ffffffffffffffffffffffffffffffffffffffff80821633036114b6577fffffffffffffffffffffffff0000000000000000000000000000000000000000921691829116178255337f8be0079c531659141344cd1fd0a4f28419497f9722a3daafe3b4186f6b6457e08380a380f35b90600182811c921680156118cc575b602083101461189d57565b7f4e487b7100000000000000000000000000000000000000000000000000000000600052602260045260246000fd5b91607f1691611892565b90604051918260008254926118ea84611883565b9081845260019485811690816000146119575750600114611914575b505061069a9250038361064c565b9093915060005260209081600020936000915b81831061193f57505061069a93508201013880611906565b85548884018501529485019487945091830191611927565b905061069a9550602093507fffffffffffffffffffffffffffffffffffffffffffffffffffffffffffffff0091501682840152151560051b8201013880611906565b600482101561098f5752565b906119af826106b6565b6040906119be8251918261064c565b8381527fffffffffffffffffffffffffffffffffffffffffffffffffffffffffffffffe06119ec82956106b6565b019160005b8381106119fe5750505050565b6020908251611a0c8161061c565b6000815282600081830152600085830152600060608301528286010152016119f1565b507f4e487b7100000000000000000000000000000000000000000000000000000000600052601160045260246000fd5b6001907fffffffffffffffffffffffffffffffffffffffffffffffffffffffffffffffff8114611a8d570190565b611a95611a2f565b0190565b507f4e487b7100000000000000000000000000000000000000000000000000000000600052603260045260246000fd5b8054821015611ae2575b60005260206000200190600090565b611aea611a99565b611ad3565b600582101561098f5752565b9061069a604051611b0b8161061c565b606060ff6003839673ffffffffffffffffffffffffffffffffffffffff815416855260018101546020860152600281015460408601520154169101611aef565b602090805115611b59570190565b611a95611a99565b604090805160011015611b59570190565b6020918151811015611b87575b60051b010190565b611b8f611a99565b611b7f565b602435611ba0816106dd565b90565b35611ba0816106dd565b9035907fffffffffffffffffffffffffffffffffffffffffffffffffffffffffffffffe18136030182121561000e570180359067ffffffffffffffff821161000e5760200191813603831361000e57565b90601f8111611c0c57505050565b600091825260208220906020601f850160051c83019410611c48575b601f0160051c01915b828110611c3d57505050565b818155600101611c31565b9092508290611c28565b90929167ffffffffffffffff8111611d74575b611c7981611c738454611883565b84611bfe565b6000601f8211600114611cd05781929394600092611cc5575b50507fffffffffffffffffffffffffffffffffffffffffffffffffffffffffffffffff8260011b9260031b1c1916179055565b013590503880611c92565b7fffffffffffffffffffffffffffffffffffffffffffffffffffffffffffffffe0821694611d0384600052602060002090565b91805b878110611d5c575083600195969710611d24575b505050811b019055565b7fffffffffffffffffffffffffffffffffffffffffffffffffffffffffffffffff60f88560031b161c19910135169055388080611d1a565b90926020600181928686013581550194019101611d06565b611d7c61058b565b611c65565b601f82602094937fffffffffffffffffffffffffffffffffffffffffffffffffffffffffffffffe0938186528686013760008582860101520116010190565b939260609373ffffffffffffffffffffffffffffffffffffffff93611dfa9398979887526020870152608060408701526080860191611d81565b9416910152565b15611e0857565b60646040517f08c379a000000000000000000000000000000000000000000000000000000000815260206004820152600a60248201527f5245454e5452414e4359000000000000000000000000000000000000000000006044820152fd5b92939093611e78600160025414611e01565b60028055611e90846000526006602052604060002090565b91611e9c33878561292f565b611ea461206c565b95611ecd611eb28651611b4b565b515173ffffffffffffffffffffffffffffffffffffffff1690565b90611eef61027e895173ffffffffffffffffffffffffffffffffffffffff1690565b73ffffffffffffffffffffffffffffffffffffffff8093160361204257611f19611eb28751611b61565b82611f3e61027e600389015473ffffffffffffffffffffffffffffffffffffffff1690565b91160361204257602080910135970192611f59845189612b70565b917f000000000000000000000000000000000000000000000000000000000000000016803b1561000e57611fdf9660008094611fc6604051978896879586947fedd9444b00000000000000000000000000000000000000000000000000000000865233916004870161210a565b03925af18015612035575b61201c575b506113e061069c565b60405191825233917f314e33b9d3471b9e382d2ab35ef89aa6e094c1be576ddd9090b5d7d1195cbf709080602081015b0390a361069a6001600255565b8061202961202f92610638565b80610350565b38611fd6565b61203d6121d9565b611fd1565b60046040517fddafbaef000000000000000000000000000000000000000000000000000000008152fd5b60405190612079826105e4565b81604073ffffffffffffffffffffffffffffffffffffffff80600354168352600454602084015260055416910152565b90815180825260208080930193019160005b8281106120c9575050505090565b90919293826040826120fe60019489516020809173ffffffffffffffffffffffffffffffffffffffff81511684520151910152565b019501939291016120bb565b9095949293916080825260e082019680519060606080850152815180995261010084019860208093019060005b818110612199575050509761218c928260408b61216d95611ba09c9d015160a0890152015160c0870152858303908601526120a9565b73ffffffffffffffffffffffffffffffffffffffff9095166040830152565b6060818503910152611d81565b90919a846040826121ce8f94600195516020809173ffffffffffffffffffffffffffffffffffffffff81511684520151910152565b019c01929101612137565b506040513d6000823e3d90fd5b9291906040519261226f6020808601957f23b872dd000000000000000000000000000000000000000000000000000000008752612257816111928689896024850160409194939294606082019573ffffffffffffffffffffffffffffffffffffffff80921683521660208201520152565b60009687915190828a5af185516001143d1517161590565b61227b575b5050505050565b6122849061233d565b936e22d473030f116ddee9f6b43ac78ba391823b15612339576040517f36c7851600000000000000000000000000000000000000000000000000000000815273ffffffffffffffffffffffffffffffffffffffff9182166004820152938116602485015294851660448401529093166064820152918290608490829084905af1801561232c575b612319575b80808080612274565b8061202961232692610638565b38612310565b6123346121d9565b61230b565b8480fd5b73ffffffffffffffffffffffffffffffffffffffff9081811161235e571690565b60046040517fc4bd89a9000000000000000000000000000000000000000000000000000000008152fd5b919092612399600160025414611e01565b600280556123b1836000526006602052604060002090565b936123bb85612a4d565b6123cf6101a66123c9611b94565b87612b0e565b6103265761240a6116146123e1611b94565b600888019073ffffffffffffffffffffffffffffffffffffffff16600052602052604060002090565b9060608201916002835161241d816114e0565b612426816114e0565b146110ca57602001958651966044358098116125bb576124479051886125e5565b93612468835173ffffffffffffffffffffffffffffffffffffffff90511690565b9461248d61027e600385015473ffffffffffffffffffffffffffffffffffffffff1690565b73ffffffffffffffffffffffffffffffffffffffff80971603612042576124b261069c565b308152906020820152857f00000000000000000000000000000000000000000000000000000000000000001696873b1561000e577ff478e398a575434f5cfcff203322ebf8e4a1f357653fcde0cf89762888e099b697612577956000809461254b604051978896879586947f30f28b7a0000000000000000000000000000000000000000000000000000000086523391600487016125fa565b03925af180156125ae575b61259b575b50825190612568826114e0565b6125713661074b565b90612ebc565b61200f612582611b94565b915161258d816114e0565b6040519384931696836126a1565b806120296125a892610638565b3861255b565b6125b66121d9565b612556565b60046040517fc52e3eff000000000000000000000000000000000000000000000000000000008152fd5b919082039182116125f257565b61069a611a2f565b919261267f611ba09694604073ffffffffffffffffffffffffffffffffffffffff946126478782516020809173ffffffffffffffffffffffffffffffffffffffff81511684520151910152565b602081810151888401529101516060870152815173ffffffffffffffffffffffffffffffffffffffff166080870152015160a0850152565b1660c0820152610100908160e08201520191611d81565b611ba090369061079b565b90815260408101929161069a91602001906114f2565b9060058110156126ef575b60ff7fffffffffffffffffffffffffffffffffffffffffffffffffffffffffffffff008354169116179055565b6126f7610952565b6126c2565b90600182018092116125f257565b919082018092116125f257565b60009182604492602095604051937fa9059cbb000000000000000000000000000000000000000000000000000000008552600485015260248401525af13d15601f3d116001600051141617161561276a57565b60646040517f08c379a000000000000000000000000000000000000000000000000000000000815260206004820152600f60248201527f5452414e534645525f4641494c454400000000000000000000000000000000006044820152fd5b91908110156127d9575b60061b0190565b6127e1611a99565b6127d2565b600781015480156128175760058201541015612811576006015460ff1661280c57600190565b600390565b50600290565b506001015461284a5760046040517fb9e8c16f000000000000000000000000000000000000000000000000000000008152fd5b600090565b90918281527f07ffffffffffffffffffffffffffffffffffffffffffffffffffffffffffffff831161000e5760209260051b809284830137010190565b919082526040602083015273ffffffffffffffffffffffffffffffffffffffff81356128b7816106dd565b1660408301526020810135606083015260408101357fffffffffffffffffffffffffffffffffffffffffffffffffffffffffffffffe18236030181121561000e57016020813591019067ffffffffffffffff811161000e578060051b3603821361000e5760a08360606080611ba0960152019161284f565b9161293983612a4d565b6129438184612b0e565b612a235773ffffffffffffffffffffffffffffffffffffffff61296861027e84611ba3565b9116036129f95760017329ef8e540df281dd3563a4ca8e1b51b6784ce44192015490823b1561000e576129cd926000926040518095819482937fba5d2c340000000000000000000000000000000000000000000000000000000084526004840161288c565b03915af480156129ec575b6129df5750565b8061202961069a92610638565b6129f46121d9565b6129d8565b60046040517f206f6fea000000000000000000000000000000000000000000000000000000008152fd5b60046040517f6d9bf6df000000000000000000000000000000000000000000000000000000008152fd5b600181015415612ac65760ff600682015416612a9c57612a6c90612af0565b612a7257565b60046040517f8d87dbb6000000000000000000000000000000000000000000000000000000008152fd5b60046040517f03144514000000000000000000000000000000000000000000000000000000008152fd5b60046040517fb9e8c16f000000000000000000000000000000000000000000000000000000008152fd5b60078101548015159182612b0357505090565b600501541015919050565b90600782015415159182612b2157505090565b819250612b6860089273ffffffffffffffffffffffffffffffffffffffff938493019073ffffffffffffffffffffffffffffffffffffffff16600052602052604060002090565b541691161490565b919091604090815191612b82836105e4565b600283526000805b828110612be8575050908291612be59395815190612ba7826105bb565b3082526020820152612bb884611b4b565b52612bc283611b4b565b505190612bce826105bb565b3082526020820152612bdf82611b61565b52611b61565b50565b6020908351612bf6816105bb565b838152828481830152828801015201612b8a565b6003606061069a93612c6e73ffffffffffffffffffffffffffffffffffffffff825116859073ffffffffffffffffffffffffffffffffffffffff167fffffffffffffffffffffffff0000000000000000000000000000000000000000825416179055565b60208101516001850155604081015160028501550151916005831015612c95575b016126b7565b612c9d610952565b612c8f565b91600490612d88612d93936007860173ffffffffffffffffffffffffffffffffffffffff90612cef828451169180549068010000000000000000821015612d97575b600182018155611ac9565b909283549160031b90811b9283911b16911916179055612d836123e1612d29835173ffffffffffffffffffffffffffffffffffffffff1690565b9260208101958651612d58612d3c6106a9565b73ffffffffffffffffffffffffffffffffffffffff9097168752565b60208601526040850152600160608501525173ffffffffffffffffffffffffffffffffffffffff1690565b612c0a565b51920191825461270a565b9055565b612d9f61058b565b612ce4565b906003600861069a93019173ffffffffffffffffffffffffffffffffffffffff92612df284835116829073ffffffffffffffffffffffffffffffffffffffff16600052602052604060002090565b612e9f8584511695612e5b600260208701519401549460405198612e158a61061c565b895260208901948552604089019586528260608a0197612e358960029052565b511673ffffffffffffffffffffffffffffffffffffffff16600052602052604060002090565b965116869073ffffffffffffffffffffffffffffffffffffffff167fffffffffffffffffffffffff0000000000000000000000000000000000000000825416179055565b51600185015551600284015551916005831015612c9557016126b7565b61069a926008600392019273ffffffffffffffffffffffffffffffffffffffff612e9f612f0c82845116879073ffffffffffffffffffffffffffffffffffffffff16600052602052604060002090565b91612e5b81855116978260026020880151960154966040519a612f2e8c61061c565b8b5260208b0196875260408b01978852612e3560608c01998a611aef56fea2646970667358221220c7d4650adce3e838a474865cc1582ec475e18b0cc520810629fbb47d77a00f1364736f6c63430008110033",
    "linkReferences": {}
  },
  "methodIdentifiers": {
    "adjustPosition(bytes32,(address,uint256),((address,uint256),uint256,uint256),bytes)": "5541e684",
    "agreementData(bytes32)": "33099405",
    "agreementPositions(bytes32)": "ac41b751",
    "arbitrator()": "6cc6cde1",
    "createAgreement((bytes32,uint256,string,address),bytes32)": "8f34a859",
    "deposits()": "323a5e0b",
    "disputeAgreement(bytes32)": "061ab0bc",
    "finalizeAgreement(bytes32)": "8135fe23",
    "joinAgreement(bytes32,(address,uint256,bytes32[]),((address,uint256)[],uint256,uint256),bytes)": "1bd747a2",
    "joinAgreementApproved(bytes32,(address,uint256,bytes32[]))": "a37ee28c",
    "owner()": "8da5cb5b",
    "permit2()": "12261ee7",
    "setUp(address,(address,uint256,address))": "af0f9df3",
    "settleDispute(bytes32,(address,uint256)[])": "3d3e73d7",
    "transferArbitration(address)": "ab4f5678",
    "transferOwnership(address)": "f2fde38b",
    "withdrawFromAgreement(bytes32)": "186799a4"
  },
  "id": 40
}