{
  "abi": [
    {
      "inputs": [
        {
          "internalType": "contract Permit2",
          "name": "permit2_",
          "type": "address"
        },
        {
          "internalType": "address",
          "name": "owner",
          "type": "address"
        }
      ],
      "stateMutability": "nonpayable",
      "type": "constructor"
    },
    {
      "inputs": [],
      "name": "AgreementIsDisputed",
      "type": "error"
    },
    {
      "inputs": [],
      "name": "AgreementIsFinalized",
      "type": "error"
    },
    {
      "inputs": [],
      "name": "AgreementNotDisputed",
      "type": "error"
    },
    {
      "inputs": [],
      "name": "AgreementNotFinalized",
      "type": "error"
    },
    {
      "inputs": [],
      "name": "AlreadyExistentAgreement",
      "type": "error"
    },
    {
      "inputs": [],
      "name": "InvalidBalance",
      "type": "error"
    },
    {
      "inputs": [],
      "name": "InvalidCriteria",
      "type": "error"
    },
    {
      "inputs": [],
      "name": "InvalidPermit",
      "type": "error"
    },
    {
      "inputs": [],
      "name": "NoPartOfAgreement",
      "type": "error"
    },
    {
      "inputs": [],
      "name": "NonExistentAgreement",
      "type": "error"
    },
    {
      "inputs": [],
      "name": "OnlyArbitrator",
      "type": "error"
    },
    {
      "inputs": [],
      "name": "PartyAlreadyFinalized",
      "type": "error"
    },
    {
      "inputs": [],
      "name": "PartyAlreadyJoined",
      "type": "error"
    },
    {
      "inputs": [],
      "name": "SettlementBalanceMustMatch",
      "type": "error"
    },
    {
      "inputs": [],
      "name": "SettlementPositionsMustMatch",
      "type": "error"
    },
    {
      "inputs": [],
      "name": "Unauthorized",
      "type": "error"
    },
    {
      "inputs": [],
      "name": "UnsafeCast",
      "type": "error"
    },
    {
      "anonymous": false,
      "inputs": [
        {
          "indexed": true,
          "internalType": "bytes32",
          "name": "id",
          "type": "bytes32"
        },
        {
          "indexed": false,
          "internalType": "bytes32",
          "name": "termsHash",
          "type": "bytes32"
        },
        {
          "indexed": false,
          "internalType": "uint256",
          "name": "criteria",
          "type": "uint256"
        },
        {
          "indexed": false,
          "internalType": "string",
          "name": "metadataURI",
          "type": "string"
        },
        {
          "indexed": false,
          "internalType": "address",
          "name": "token",
          "type": "address"
        }
      ],
      "name": "AgreementCreated",
      "type": "event"
    },
    {
      "anonymous": false,
      "inputs": [
        {
          "indexed": true,
          "internalType": "bytes32",
          "name": "id",
          "type": "bytes32"
        },
        {
          "indexed": true,
          "internalType": "address",
          "name": "party",
          "type": "address"
        }
      ],
      "name": "AgreementDisputed",
      "type": "event"
    },
    {
      "anonymous": false,
      "inputs": [
        {
          "indexed": true,
          "internalType": "bytes32",
          "name": "id",
          "type": "bytes32"
        }
      ],
      "name": "AgreementFinalized",
      "type": "event"
    },
    {
      "anonymous": false,
      "inputs": [
        {
          "indexed": true,
          "internalType": "bytes32",
          "name": "id",
          "type": "bytes32"
        },
        {
          "indexed": true,
          "internalType": "address",
          "name": "party",
          "type": "address"
        },
        {
          "indexed": false,
          "internalType": "uint256",
          "name": "balance",
          "type": "uint256"
        }
      ],
      "name": "AgreementJoined",
      "type": "event"
    },
    {
      "anonymous": false,
      "inputs": [
        {
          "indexed": true,
          "internalType": "bytes32",
          "name": "id",
          "type": "bytes32"
        },
        {
          "indexed": true,
          "internalType": "address",
          "name": "party",
          "type": "address"
        },
        {
          "indexed": false,
          "internalType": "uint256",
          "name": "balance",
          "type": "uint256"
        },
        {
          "indexed": false,
          "internalType": "enum PositionStatus",
          "name": "status",
          "type": "uint8"
        }
      ],
      "name": "AgreementPositionUpdated",
      "type": "event"
    },
    {
      "anonymous": false,
      "inputs": [
        {
          "indexed": true,
          "internalType": "address",
          "name": "newArbitrator",
          "type": "address"
        }
      ],
      "name": "ArbitrationTransferred",
      "type": "event"
    },
    {
      "anonymous": false,
      "inputs": [
        {
          "indexed": true,
          "internalType": "address",
          "name": "user",
          "type": "address"
        },
        {
          "indexed": true,
          "internalType": "address",
          "name": "newOwner",
          "type": "address"
        }
      ],
      "name": "OwnershipTransferred",
      "type": "event"
    },
    {
      "inputs": [
        {
          "internalType": "bytes32",
          "name": "id",
          "type": "bytes32"
        },
        {
          "components": [
            {
              "internalType": "address",
              "name": "party",
              "type": "address"
            },
            {
              "internalType": "uint256",
              "name": "balance",
              "type": "uint256"
            }
          ],
          "internalType": "struct PositionParams",
          "name": "newPosition",
          "type": "tuple"
        },
        {
          "components": [
            {
              "components": [
                {
                  "internalType": "address",
                  "name": "token",
                  "type": "address"
                },
                {
                  "internalType": "uint256",
                  "name": "amount",
                  "type": "uint256"
                }
              ],
              "internalType": "struct ISignatureTransfer.TokenPermissions",
              "name": "permitted",
              "type": "tuple"
            },
            {
              "internalType": "uint256",
              "name": "nonce",
              "type": "uint256"
            },
            {
              "internalType": "uint256",
              "name": "deadline",
              "type": "uint256"
            }
          ],
          "internalType": "struct ISignatureTransfer.PermitTransferFrom",
          "name": "permit",
          "type": "tuple"
        },
        {
          "internalType": "bytes",
          "name": "signature",
          "type": "bytes"
        }
      ],
      "name": "adjustPosition",
      "outputs": [],
      "stateMutability": "nonpayable",
      "type": "function"
    },
    {
      "inputs": [
        {
          "internalType": "bytes32",
          "name": "id",
          "type": "bytes32"
        }
      ],
      "name": "agreementData",
      "outputs": [
        {
          "components": [
            {
              "internalType": "bytes32",
              "name": "termsHash",
              "type": "bytes32"
            },
            {
              "internalType": "uint256",
              "name": "criteria",
              "type": "uint256"
            },
            {
              "internalType": "string",
              "name": "metadataURI",
              "type": "string"
            },
            {
              "internalType": "address",
              "name": "token",
              "type": "address"
            },
            {
              "internalType": "uint256",
              "name": "balance",
              "type": "uint256"
            },
            {
              "internalType": "enum AgreementStatus",
              "name": "status",
              "type": "uint8"
            }
          ],
          "internalType": "struct AgreementData",
          "name": "data",
          "type": "tuple"
        }
      ],
      "stateMutability": "view",
      "type": "function"
    },
    {
      "inputs": [
        {
          "internalType": "bytes32",
          "name": "id",
          "type": "bytes32"
        }
      ],
      "name": "agreementPositions",
      "outputs": [
        {
          "components": [
            {
              "internalType": "address",
              "name": "party",
              "type": "address"
            },
            {
              "internalType": "uint256",
              "name": "balance",
              "type": "uint256"
            },
            {
              "internalType": "enum PositionStatus",
              "name": "status",
              "type": "uint8"
            }
          ],
          "internalType": "struct PositionData[]",
          "name": "",
          "type": "tuple[]"
        }
      ],
      "stateMutability": "view",
      "type": "function"
    },
    {
      "inputs": [],
      "name": "arbitrator",
      "outputs": [
        {
          "internalType": "address",
          "name": "",
          "type": "address"
        }
      ],
      "stateMutability": "view",
      "type": "function"
    },
    {
      "inputs": [
        {
          "components": [
            {
              "internalType": "bytes32",
              "name": "termsHash",
              "type": "bytes32"
            },
            {
              "internalType": "uint256",
              "name": "criteria",
              "type": "uint256"
            },
            {
              "internalType": "string",
              "name": "metadataURI",
              "type": "string"
            },
            {
              "internalType": "address",
              "name": "token",
              "type": "address"
            }
          ],
          "internalType": "struct AgreementParams",
          "name": "params",
          "type": "tuple"
        },
        {
          "internalType": "bytes32",
          "name": "salt",
          "type": "bytes32"
        }
      ],
      "name": "createAgreement",
      "outputs": [
        {
          "internalType": "bytes32",
          "name": "id",
          "type": "bytes32"
        }
      ],
      "stateMutability": "nonpayable",
      "type": "function"
    },
    {
      "inputs": [],
      "name": "deposits",
      "outputs": [
        {
          "internalType": "address",
          "name": "token",
          "type": "address"
        },
        {
          "internalType": "uint256",
          "name": "amount",
          "type": "uint256"
        },
        {
          "internalType": "address",
          "name": "recipient",
          "type": "address"
        }
      ],
      "stateMutability": "view",
      "type": "function"
    },
    {
      "inputs": [
        {
          "internalType": "bytes32",
          "name": "id",
          "type": "bytes32"
        }
      ],
      "name": "disputeAgreement",
      "outputs": [],
      "stateMutability": "nonpayable",
      "type": "function"
    },
    {
      "inputs": [
        {
          "internalType": "bytes32",
          "name": "id",
          "type": "bytes32"
        }
      ],
      "name": "finalizeAgreement",
      "outputs": [],
      "stateMutability": "nonpayable",
      "type": "function"
    },
    {
      "inputs": [
        {
          "internalType": "bytes32",
          "name": "id",
          "type": "bytes32"
        },
        {
          "components": [
            {
              "internalType": "address",
              "name": "account",
              "type": "address"
            },
            {
              "internalType": "uint256",
              "name": "balance",
              "type": "uint256"
            },
            {
              "internalType": "bytes32[]",
              "name": "proof",
              "type": "bytes32[]"
            }
          ],
          "internalType": "struct CriteriaResolver",
          "name": "resolver",
          "type": "tuple"
        },
        {
          "components": [
            {
              "components": [
                {
                  "internalType": "address",
                  "name": "token",
                  "type": "address"
                },
                {
                  "internalType": "uint256",
                  "name": "amount",
                  "type": "uint256"
                }
              ],
              "internalType": "struct ISignatureTransfer.TokenPermissions[]",
              "name": "permitted",
              "type": "tuple[]"
            },
            {
              "internalType": "uint256",
              "name": "nonce",
              "type": "uint256"
            },
            {
              "internalType": "uint256",
              "name": "deadline",
              "type": "uint256"
            }
          ],
          "internalType": "struct ISignatureTransfer.PermitBatchTransferFrom",
          "name": "permit",
          "type": "tuple"
        },
        {
          "internalType": "bytes",
          "name": "signature",
          "type": "bytes"
        }
      ],
      "name": "joinAgreement",
      "outputs": [],
      "stateMutability": "nonpayable",
      "type": "function"
    },
    {
      "inputs": [
        {
          "internalType": "bytes32",
          "name": "id",
          "type": "bytes32"
        },
        {
          "components": [
            {
              "internalType": "address",
              "name": "account",
              "type": "address"
            },
            {
              "internalType": "uint256",
              "name": "balance",
              "type": "uint256"
            },
            {
              "internalType": "bytes32[]",
              "name": "proof",
              "type": "bytes32[]"
            }
          ],
          "internalType": "struct CriteriaResolver",
          "name": "resolver",
          "type": "tuple"
        }
      ],
      "name": "joinAgreementApproved",
      "outputs": [],
      "stateMutability": "nonpayable",
      "type": "function"
    },
    {
      "inputs": [],
      "name": "owner",
      "outputs": [
        {
          "internalType": "address",
          "name": "",
          "type": "address"
        }
      ],
      "stateMutability": "view",
      "type": "function"
    },
    {
      "inputs": [],
      "name": "permit2",
      "outputs": [
        {
          "internalType": "contract Permit2",
          "name": "",
          "type": "address"
        }
      ],
      "stateMutability": "view",
      "type": "function"
    },
    {
      "inputs": [
        {
          "internalType": "address",
          "name": "arbitrator_",
          "type": "address"
        },
        {
          "components": [
            {
              "internalType": "address",
              "name": "token",
              "type": "address"
            },
            {
              "internalType": "uint256",
              "name": "amount",
              "type": "uint256"
            },
            {
              "internalType": "address",
              "name": "recipient",
              "type": "address"
            }
          ],
          "internalType": "struct DepositConfig",
          "name": "deposits_",
          "type": "tuple"
        }
      ],
      "name": "setUp",
      "outputs": [],
      "stateMutability": "nonpayable",
      "type": "function"
    },
    {
      "inputs": [
        {
          "internalType": "bytes32",
          "name": "id",
          "type": "bytes32"
        },
        {
          "components": [
            {
              "internalType": "address",
              "name": "party",
              "type": "address"
            },
            {
              "internalType": "uint256",
              "name": "balance",
              "type": "uint256"
            }
          ],
          "internalType": "struct PositionParams[]",
          "name": "settlement",
          "type": "tuple[]"
        }
      ],
      "name": "settleDispute",
      "outputs": [],
      "stateMutability": "nonpayable",
      "type": "function"
    },
    {
      "inputs": [
        {
          "internalType": "address",
          "name": "newArbitrator",
          "type": "address"
        }
      ],
      "name": "transferArbitration",
      "outputs": [],
      "stateMutability": "nonpayable",
      "type": "function"
    },
    {
      "inputs": [
        {
          "internalType": "address",
          "name": "newOwner",
          "type": "address"
        }
      ],
      "name": "transferOwnership",
      "outputs": [],
      "stateMutability": "nonpayable",
      "type": "function"
    },
    {
      "inputs": [
        {
          "internalType": "bytes32",
          "name": "id",
          "type": "bytes32"
        }
      ],
      "name": "withdrawFromAgreement",
      "outputs": [],
      "stateMutability": "nonpayable",
      "type": "function"
    }
  ],
  "bytecode": {
    "object": "0x60a034620000ce57601f6200305638819003918201601f19168301916001600160401b03831184841017620000d3578084926040948552833981010312620000ce5780516001600160a01b03918282168203620000ce5760200151918216809203620000ce57600080546001600160a01b03191683178155604051929033907f8be0079c531659141344cd1fd0a4f28419497f9722a3daafe3b4186f6b6457e09080a36001600255608052612f6c9081620000ea823960805181818161038901528181611f4601526124a80152f35b600080fd5b634e487b7160e01b600052604160045260246000fdfe60806040526004361015610013575b600080fd5b60003560e01c8063061ab0bc1461016757806312261ee71461015e578063186799a4146101555780631bd747a21461014c578063323a5e0b14610143578063330994051461013a5780633d3e73d7146101315780635541e684146101285780636cc6cde11461011f5780638135fe23146101165780638da5cb5b1461010d5780638f34a85914610104578063a37ee28c146100fb578063ab4f5678146100f2578063ac41b751146100e9578063af0f9df3146100e05763f2fde38b146100d857600080fd5b61000e6117e1565b5061000e61169d565b5061000e611581565b5061000e611432565b5061000e611314565b5061000e611136565b5061000e611101565b5061000e610f39565b5061000e610f04565b5061000e610e49565b5061000e610b5f565b5061000e610a6b565b5061000e610915565b5061000e610807565b5061000e6103ad565b5061000e61035b565b503461000e57602060031936011261000e57600435610190816000526006602052604060002090565b61019981612a37565b6101aa6101a63383612af8565b1590565b610326576001906102b96101bc612056565b916101ea33600883019073ffffffffffffffffffffffffffffffffffffffff16600052602052604060002090565b9260006002850161022560068254950160017fffffffffffffffffffffffffffffffffffffffffffffffffffffffffffffff00825416179055565b6102576003870160047fffffffffffffffffffffffffffffffffffffffffffffffffffffffffffffff00825416179055565b556102b3604061029761027e845173ffffffffffffffffffffffffffffffffffffffff1690565b73ffffffffffffffffffffffffffffffffffffffff1690565b92015173ffffffffffffffffffffffffffffffffffffffff1690565b90612701565b0154817ff478e398a575434f5cfcff203322ebf8e4a1f357653fcde0cf89762888e099b6604051806102fa3395826020600491939293604081019481520152565b0390a333907fb67e3ac5aa7b56d61e366985ea94be26db935eca5c55e0359fd36c5852b6fa39600080a3005b60046040517f3b278a7a000000000000000000000000000000000000000000000000000000008152fd5b600091031261000e57565b503461000e57600060031936011261000e57602060405173ffffffffffffffffffffffffffffffffffffffff7f0000000000000000000000000000000000000000000000000000000000000000168152f35b503461000e57602060031936011261000e576004356103d0600160025414611deb565b600280556103e8816000526006602052604060002090565b6103f0612056565b906103fd6101a682612ada565b6105245761040e6101a63383612af8565b610326576104d7916104b561044633600885019073ffffffffffffffffffffffffffffffffffffffff16600052602052604060002090565b600181019361048b60038654936000600282018181549a55550160037fffffffffffffffffffffffffffffffffffffffffffffffffffffffffffffff00825416179055565b6104b061027e60033393015473ffffffffffffffffffffffffffffffffffffffff1690565b612701565b6104b061027e33925173ffffffffffffffffffffffffffffffffffffffff1690565b604051907ff478e398a575434f5cfcff203322ebf8e4a1f357653fcde0cf89762888e099b63392806105158190600360206040840193600081520152565b0390a36105226001600255565b005b60046040517fa3b1c9de000000000000000000000000000000000000000000000000000000008152fd5b7fffffffffffffffffffffffffffffffffffffffffffffffffffffffffffffffdc606091011261000e57602490565b9081606091031261000e5790565b507f4e487b7100000000000000000000000000000000000000000000000000000000600052604160045260246000fd5b6040810190811067ffffffffffffffff8211176105d757604052565b6105df61058b565b604052565b6060810190811067ffffffffffffffff8211176105d757604052565b60c0810190811067ffffffffffffffff8211176105d757604052565b6080810190811067ffffffffffffffff8211176105d757604052565b67ffffffffffffffff81116105d757604052565b90601f7fffffffffffffffffffffffffffffffffffffffffffffffffffffffffffffffe0910116810190811067ffffffffffffffff8211176105d757604052565b6040519061069a82610600565b565b6040519061069a826105bb565b6040519061069a826105e4565b6040519061069a8261061c565b60209067ffffffffffffffff81116106dd575b60051b0190565b6106e561058b565b6106d6565b73ffffffffffffffffffffffffffffffffffffffff81160361000e57565b7fffffffffffffffffffffffffffffffffffffffffffffffffffffffffffffff9c604091011261000e576040519061073f826105bb565b8160643561074c816106ea565b81526020608435910152565b7fffffffffffffffffffffffffffffffffffffffffffffffffffffffffffffffdc604091011261000e576040519061078f826105bb565b8160243561079c816106ea565b81526020604435910152565b919082604091031261000e576040516107c0816105bb565b602080829480356107d0816106ea565b84520135910152565b9181601f8401121561000e5782359167ffffffffffffffff831161000e576020838186019501011161000e57565b503461000e5760031960808136011261000e5767ffffffffffffffff9060243582811161000e5761083c90369060040161057d565b6044359183831161000e57606090833603011261000e576040805192610861846105e4565b806004013585811161000e5781013660238201121561000e57600481013590610889826106c3565b906108968551928361064c565b82825260209260248484019160061b8301019136831161000e576024879101915b8383106108fc5750505090865250602482013590850152604401359083015260643592831161000e576108f16105229336906004016107d9565b929091600435611e50565b859061090836856107a8565b81520191019086906108b7565b503461000e57600060031936011261000e57606073ffffffffffffffffffffffffffffffffffffffff80600354169060045490600554169060405192835260208301526040820152f35b507f4e487b7100000000000000000000000000000000000000000000000000000000600052602160045260246000fd5b90600482101561099c5752565b6109a461095f565b52565b602080825282518183015280830151604083015260408301519060c060608401528151918260e085015260005b838110610a5657505050601f7fffffffffffffffffffffffffffffffffffffffffffffffffffffffffffffffe091610a4f60a0610100966000888589010152610a3a6060820151608089019073ffffffffffffffffffffffffffffffffffffffff169052565b608081015182880152015160c086019061098f565b0116010190565b818101830151858201610100015282016109d4565b503461000e57602060031936011261000e57600060a0604051610a8d81610600565b828152826020820152606060408201528260608201528260808201520152610b5b610ac46004356000526006602052604060002090565b610b4f815491600181015490610b41610af4600383015473ffffffffffffffffffffffffffffffffffffffff1690565b610b1f6002600485015494610b08816127d0565b96610b1161068d565b998a5260208a0152016118c7565b604087015273ffffffffffffffffffffffffffffffffffffffff166060860152565b608084015260a0830161198a565b604051918291826109a7565b0390f35b503461000e5760408060031936011261000e57600480359167ffffffffffffffff916024359183831161000e573660238401121561000e578282013593841161000e576024830192602436918660061b01011161000e57610bd861027e60015473ffffffffffffffffffffffffffffffffffffffff1690565b3303610e2357610bf2856000526006602052604060002090565b92610c046101a6600686015460ff1690565b610dfc57610c1184612ada565b610dd557600090600785019081548703610dac57825b878110610c8d575050508284015403610c67575050600501557fc1efb9b165d126a4a64b456bec4ab69b7bf85d85e16aa5acda227f2ba88126c4600080a2005b517f595fa923000000000000000000000000000000000000000000000000000000008152fd5b610cba610c9a8285611ab3565b905473ffffffffffffffffffffffffffffffffffffffff9160031b1c1690565b610cd061027e610ccb848c876127b2565b611b8d565b73ffffffffffffffffffffffffffffffffffffffff80921603610d845790888a7ff478e398a575434f5cfcff203322ebf8e4a1f357653fcde0cf89762888e099b6610d7f94610d31610d2b610d2687878b6127b2565b612680565b8d612d8e565b610d4b6020998a610d4388888c6127b2565b0135906126f4565b98610d6586610d5e610ccb82898d6127b2565b968a6127b2565b8b51910135815260026020820152931692604090a3611a49565b610c27565b8686517f3a78f7d4000000000000000000000000000000000000000000000000000000008152fd5b505050517f3a78f7d4000000000000000000000000000000000000000000000000000000008152fd5b50517f8d87dbb6000000000000000000000000000000000000000000000000000000008152fd5b50517f4e16946c000000000000000000000000000000000000000000000000000000008152fd5b517f2eef310a000000000000000000000000000000000000000000000000000000008152fd5b503461000e5761010060031936011261000e5760407fffffffffffffffffffffffffffffffffffffffffffffffffffffffffffffffdc36011261000e5760807fffffffffffffffffffffffffffffffffffffffffffffffffffffffffffffff9c36011261000e57604051610ebc816105e4565b610ec536610708565b815260a435602082015260c435604082015260e4359067ffffffffffffffff821161000e57610efb6105229236906004016107d9565b91600435612372565b503461000e57600060031936011261000e57602073ffffffffffffffffffffffffffffffffffffffff60015416604051908152f35b503461000e57602060031936011261000e57600435610f62816000526006602052604060002090565b610f6b81612a37565b610f786101a63383612af8565b6103265760088101906002610fba6003610fb233869073ffffffffffffffffffffffffffffffffffffffff16600052602052604060002090565b015460ff1690565b610fc3816114ed565b146110d75760016110616110aa9361102c600361100033849073ffffffffffffffffffffffffffffffffffffffff16600052602052604060002090565b0160027fffffffffffffffffffffffffffffffffffffffffffffffffffffffffffffff00825416179055565b6005840161103a81546126e6565b90553373ffffffffffffffffffffffffffffffffffffffff16600052602052604060002090565b0154837ff478e398a575434f5cfcff203322ebf8e4a1f357653fcde0cf89762888e099b6604051806110a23395826020600291939293604081019481520152565b0390a3612ada565b6110b057005b7fc1efb9b165d126a4a64b456bec4ab69b7bf85d85e16aa5acda227f2ba88126c4600080a2005b60046040517faf20ef4a000000000000000000000000000000000000000000000000000000008152fd5b503461000e57600060031936011261000e57602073ffffffffffffffffffffffffffffffffffffffff60005416604051908152f35b503461000e576040600319818136011261000e576004359067ffffffffffffffff821161000e5760808260040191833603011261000e5760248201359081156112eb5783513060208201908152823560408301819052602435606084015292916111cb81608081015b037fffffffffffffffffffffffffffffffffffffffffffffffffffffffffffffffe0810183528261064c565b519020936111e3856000526006602052604060002090565b916001830180546112c257836112a561129d88958895610b5b9c9a6112b1968d9b7ff7cbeac7c87f7e00fcf9440cf10b123fb3d766366a39eeb572c219c8eac3ab469b55556112986064604484019361124961123f8686611b97565b9060028b01611c3c565b0195600361125688611b8d565b91019073ffffffffffffffffffffffffffffffffffffffff167fffffffffffffffffffffffff0000000000000000000000000000000000000000825416179055565b611b97565b919092611b8d565b91885195869586611daa565b0390a2519081529081906020820190565b600488517fd8876c2d000000000000000000000000000000000000000000000000000000008152fd5b600484517f206f6fea000000000000000000000000000000000000000000000000000000008152fd5b503461000e57604060031936011261000e5760043560243567ffffffffffffffff811161000e5761134990369060040161057d565b90611358600160025414611deb565b600280558060005260066020526113fe6040600020611378338583612919565b611380612056565b80516113ae9060209073ffffffffffffffffffffffffffffffffffffffff16920191825190309033906121d0565b6113e560206113d761027e600386015473ffffffffffffffffffffffffffffffffffffffff1690565b9601358096309033906121d0565b6113ed61069c565b338152908560208301525191612c8c565b60405191825233917f314e33b9d3471b9e382d2ab35ef89aa6e094c1be576ddd9090b5d7d1195cbf70908060208101610515565b503461000e57602060031936011261000e57600435611450816106ea565b73ffffffffffffffffffffffffffffffffffffffff90816000541633036114c35716807fffffffffffffffffffffffff000000000000000000000000000000000000000060015416176001557f15751365e25548da6591a182cf680d8c896ca976a2fd6e5f845bc86b4a81002f600080a2005b60046040517f82b42900000000000000000000000000000000000000000000000000000000008152fd5b600511156114f757565b61069a61095f565b90600582101561099c5752565b60208082019080835283518092528060408094019401926000905b83821061153657505050505090565b9091929394836060600192611574858a5173ffffffffffffffffffffffffffffffffffffffff815116845285810151868501520151868301906114ff565b0196019493920190611527565b503461000e5760208060031936011261000e57600435600052600681526040806000209060078201918254906115b682611996565b93600860009201915b8381106115d357845180610b5b888261150c565b806116156116106115ea610c9a6116989587611ab3565b869073ffffffffffffffffffffffffffffffffffffffff16600052602052604060002090565b611ae5565b61167d611636825173ffffffffffffffffffffffffffffffffffffffff1690565b9160608b8201519101519061164a826114ed565b6116716116556106a9565b73ffffffffffffffffffffffffffffffffffffffff9095168552565b8b840152888301611ad9565b6116878289611b5c565b526116928188611b5c565b50611a49565b6115bf565b503461000e57608060031936011261000e576004356116bb816106ea565b6116c43661054e565b9073ffffffffffffffffffffffffffffffffffffffff91826000541633036114c35760408161173b61178f93356116fa816106ea565b73ffffffffffffffffffffffffffffffffffffffff167fffffffffffffffffffffffff00000000000000000000000000000000000000006003541617600355565b6020810135600455013561174e816106ea565b73ffffffffffffffffffffffffffffffffffffffff167fffffffffffffffffffffffff00000000000000000000000000000000000000006005541617600555565b16807fffffffffffffffffffffffff000000000000000000000000000000000000000060015416176001557f15751365e25548da6591a182cf680d8c896ca976a2fd6e5f845bc86b4a81002f600080a2005b503461000e57602060031936011261000e576004356117ff816106ea565b600090815473ffffffffffffffffffffffffffffffffffffffff80821633036114c3577fffffffffffffffffffffffff0000000000000000000000000000000000000000921691829116178255337f8be0079c531659141344cd1fd0a4f28419497f9722a3daafe3b4186f6b6457e08380a380f35b90600182811c921680156118bd575b602083101461188e57565b7f4e487b7100000000000000000000000000000000000000000000000000000000600052602260045260246000fd5b91607f1691611883565b90604051918260008254926118db84611874565b9081845260019485811690816000146119485750600114611905575b505061069a9250038361064c565b9093915060005260209081600020936000915b81831061193057505061069a935082010138806118f7565b85548884018501529485019487945091830191611918565b905061069a9550602093507fffffffffffffffffffffffffffffffffffffffffffffffffffffffffffffff0091501682840152151560051b82010138806118f7565b600482101561099c5752565b906119a0826106c3565b6040906119af8251918261064c565b8381527fffffffffffffffffffffffffffffffffffffffffffffffffffffffffffffffe06119dd82956106c3565b0191600091825b8481106119f2575050505050565b6020908351611a00816105e4565b85815282868183015286868301528285010152016119e4565b507f4e487b7100000000000000000000000000000000000000000000000000000000600052601160045260246000fd5b6001907fffffffffffffffffffffffffffffffffffffffffffffffffffffffffffffffff8114611a77570190565b611a7f611a19565b0190565b507f4e487b7100000000000000000000000000000000000000000000000000000000600052603260045260246000fd5b8054821015611acc575b60005260206000200190600090565b611ad4611a83565b611abd565b600582101561099c5752565b9061069a604051611af58161061c565b606060ff6003839673ffffffffffffffffffffffffffffffffffffffff815416855260018101546020860152600281015460408601520154169101611ad9565b602090805115611b43570190565b611a7f611a83565b604090805160011015611b43570190565b6020918151811015611b71575b60051b010190565b611b79611a83565b611b69565b602435611b8a816106ea565b90565b35611b8a816106ea565b9035907fffffffffffffffffffffffffffffffffffffffffffffffffffffffffffffffe18136030182121561000e570180359067ffffffffffffffff821161000e5760200191813603831361000e57565b90601f8111611bf657505050565b600091825260208220906020601f850160051c83019410611c32575b601f0160051c01915b828110611c2757505050565b818155600101611c1b565b9092508290611c12565b90929167ffffffffffffffff8111611d5e575b611c6381611c5d8454611874565b84611be8565b6000601f8211600114611cba5781929394600092611caf575b50507fffffffffffffffffffffffffffffffffffffffffffffffffffffffffffffffff8260011b9260031b1c1916179055565b013590503880611c7c565b7fffffffffffffffffffffffffffffffffffffffffffffffffffffffffffffffe0821694611ced84600052602060002090565b91805b878110611d46575083600195969710611d0e575b505050811b019055565b7fffffffffffffffffffffffffffffffffffffffffffffffffffffffffffffffff60f88560031b161c19910135169055388080611d04565b90926020600181928686013581550194019101611cf0565b611d6661058b565b611c4f565b601f82602094937fffffffffffffffffffffffffffffffffffffffffffffffffffffffffffffffe0938186528686013760008582860101520116010190565b939260609373ffffffffffffffffffffffffffffffffffffffff93611de49398979887526020870152608060408701526080860191611d6b565b9416910152565b15611df257565b60646040517f08c379a000000000000000000000000000000000000000000000000000000000815260206004820152600a60248201527f5245454e5452414e4359000000000000000000000000000000000000000000006044820152fd5b92939093611e62600160025414611deb565b60028055611e7a846000526006602052604060002090565b91611e86338785612919565b611e8e612056565b95611eb7611e9c8651611b35565b515173ffffffffffffffffffffffffffffffffffffffff1690565b90611ed961027e895173ffffffffffffffffffffffffffffffffffffffff1690565b73ffffffffffffffffffffffffffffffffffffffff8093160361202c57611f03611e9c8751611b4b565b82611f2861027e600389015473ffffffffffffffffffffffffffffffffffffffff1690565b91160361202c57602080910135970192611f43845189612b5a565b917f000000000000000000000000000000000000000000000000000000000000000016803b1561000e57611fc99660008094611fb0604051978896879586947fedd9444b0000000000000000000000000000000000000000000000000000000086523391600487016120f4565b03925af1801561201f575b612006575b506113ed61069c565b60405191825233917f314e33b9d3471b9e382d2ab35ef89aa6e094c1be576ddd9090b5d7d1195cbf709080602081015b0390a361069a6001600255565b8061201361201992610638565b80610350565b38611fc0565b6120276121c3565b611fbb565b60046040517fddafbaef000000000000000000000000000000000000000000000000000000008152fd5b60405190612063826105e4565b81604073ffffffffffffffffffffffffffffffffffffffff80600354168352600454602084015260055416910152565b90815180825260208080930193019160005b8281106120b3575050505090565b90919293826040826120e860019489516020809173ffffffffffffffffffffffffffffffffffffffff81511684520151910152565b019501939291016120a5565b9095949293916080825260e082019680519060606080850152815180995261010084019860208093019060005b8181106121835750505097612176928260408b61215795611b8a9c9d015160a0890152015160c087015285830390860152612093565b73ffffffffffffffffffffffffffffffffffffffff9095166040830152565b6060818503910152611d6b565b90919a846040826121b88f94600195516020809173ffffffffffffffffffffffffffffffffffffffff81511684520151910152565b019c01929101612121565b506040513d6000823e3d90fd5b929190604051926122596020808601957f23b872dd0000000000000000000000000000000000000000000000000000000087526122418161119f8689896024850160409194939294606082019573ffffffffffffffffffffffffffffffffffffffff80921683521660208201520152565b60009687915190828a5af185516001143d1517161590565b612265575b5050505050565b61226e90612327565b936e22d473030f116ddee9f6b43ac78ba391823b15612323576040517f36c7851600000000000000000000000000000000000000000000000000000000815273ffffffffffffffffffffffffffffffffffffffff9182166004820152938116602485015294851660448401529093166064820152918290608490829084905af18015612316575b612303575b8080808061225e565b8061201361231092610638565b386122fa565b61231e6121c3565b6122f5565b8480fd5b73ffffffffffffffffffffffffffffffffffffffff90818111612348571690565b60046040517fc4bd89a9000000000000000000000000000000000000000000000000000000008152fd5b919092612383600160025414611deb565b6002805561239b836000526006602052604060002090565b936123a585612a37565b6123b96101a66123b3611b7e565b87612af8565b610326576123f46116106123cb611b7e565b600888019073ffffffffffffffffffffffffffffffffffffffff16600052602052604060002090565b90606082019160028351612407816114ed565b612410816114ed565b146110d757602001958651966044358098116125a5576124319051886125cf565b93612452835173ffffffffffffffffffffffffffffffffffffffff90511690565b9461247761027e600385015473ffffffffffffffffffffffffffffffffffffffff1690565b73ffffffffffffffffffffffffffffffffffffffff8097160361202c5761249c61069c565b308152906020820152857f00000000000000000000000000000000000000000000000000000000000000001696873b1561000e577ff478e398a575434f5cfcff203322ebf8e4a1f357653fcde0cf89762888e099b6976125619560008094612535604051978896879586947f30f28b7a0000000000000000000000000000000000000000000000000000000086523391600487016125e4565b03925af18015612598575b612585575b50825190612552826114ed565b61255b36610758565b90612ea6565b611ff961256c611b7e565b9151612577816114ed565b60405193849316968361268b565b8061201361259292610638565b38612545565b6125a06121c3565b612540565b60046040517fc52e3eff000000000000000000000000000000000000000000000000000000008152fd5b919082039182116125dc57565b61069a611a19565b9192612669611b8a9694604073ffffffffffffffffffffffffffffffffffffffff946126318782516020809173ffffffffffffffffffffffffffffffffffffffff81511684520151910152565b602081810151888401529101516060870152815173ffffffffffffffffffffffffffffffffffffffff166080870152015160a0850152565b1660c0820152610100908160e08201520191611d6b565b611b8a9036906107a8565b90815260408101929161069a91602001906114ff565b9060058110156126d9575b60ff7fffffffffffffffffffffffffffffffffffffffffffffffffffffffffffffff008354169116179055565b6126e161095f565b6126ac565b90600182018092116125dc57565b919082018092116125dc57565b60009182604492602095604051937fa9059cbb000000000000000000000000000000000000000000000000000000008552600485015260248401525af13d15601f3d116001600051141617161561275457565b60646040517f08c379a000000000000000000000000000000000000000000000000000000000815260206004820152600f60248201527f5452414e534645525f4641494c454400000000000000000000000000000000006044820152fd5b91908110156127c3575b60061b0190565b6127cb611a83565b6127bc565b6007810154801561280157600582015410156127fb576006015460ff166127f657600190565b600390565b50600290565b50600101546128345760046040517fb9e8c16f000000000000000000000000000000000000000000000000000000008152fd5b600090565b90918281527f07ffffffffffffffffffffffffffffffffffffffffffffffffffffffffffffff831161000e5760209260051b809284830137010190565b919082526040602083015273ffffffffffffffffffffffffffffffffffffffff81356128a1816106ea565b1660408301526020810135606083015260408101357fffffffffffffffffffffffffffffffffffffffffffffffffffffffffffffffe18236030181121561000e57016020813591019067ffffffffffffffff811161000e578060051b3603821361000e5760a08360606080611b8a9601520191612839565b9161292383612a37565b61292d8184612af8565b612a0d5773ffffffffffffffffffffffffffffffffffffffff61295261027e84611b8d565b9116036129e357600173__$b1ed49e240efdb18d32c7618ac64cad43c$__92015490823b1561000e576129b7926000926040518095819482937fba5d2c3400000000000000000000000000000000000000000000000000000000845260048401612876565b03915af480156129d6575b6129c95750565b8061201361069a92610638565b6129de6121c3565b6129c2565b60046040517f206f6fea000000000000000000000000000000000000000000000000000000008152fd5b60046040517f6d9bf6df000000000000000000000000000000000000000000000000000000008152fd5b600181015415612ab05760ff600682015416612a8657612a5690612ada565b612a5c57565b60046040517f8d87dbb6000000000000000000000000000000000000000000000000000000008152fd5b60046040517f03144514000000000000000000000000000000000000000000000000000000008152fd5b60046040517fb9e8c16f000000000000000000000000000000000000000000000000000000008152fd5b60078101548015159182612aed57505090565b600501541015919050565b90600782015415159182612b0b57505090565b819250612b5260089273ffffffffffffffffffffffffffffffffffffffff938493019073ffffffffffffffffffffffffffffffffffffffff16600052602052604060002090565b541691161490565b919091604090815191612b6c836105e4565b600283526000805b828110612bd2575050908291612bcf9395815190612b91826105bb565b3082526020820152612ba284611b35565b52612bac83611b35565b505190612bb8826105bb565b3082526020820152612bc982611b4b565b52611b4b565b50565b6020908351612be0816105bb565b838152828481830152828801015201612b74565b6003606061069a93612c5873ffffffffffffffffffffffffffffffffffffffff825116859073ffffffffffffffffffffffffffffffffffffffff167fffffffffffffffffffffffff0000000000000000000000000000000000000000825416179055565b60208101516001850155604081015160028501550151916005831015612c7f575b016126a1565b612c8761095f565b612c79565b91600490612d72612d7d936007860173ffffffffffffffffffffffffffffffffffffffff90612cd9828451169180549068010000000000000000821015612d81575b600182018155611ab3565b909283549160031b90811b9283911b16911916179055612d6d6123cb612d13835173ffffffffffffffffffffffffffffffffffffffff1690565b9260208101958651612d42612d266106b6565b73ffffffffffffffffffffffffffffffffffffffff9097168752565b60208601526040850152600160608501525173ffffffffffffffffffffffffffffffffffffffff1690565b612bf4565b5192019182546126f4565b9055565b612d8961058b565b612cce565b906003600861069a93019173ffffffffffffffffffffffffffffffffffffffff92612ddc84835116829073ffffffffffffffffffffffffffffffffffffffff16600052602052604060002090565b612e898584511695612e45600260208701519401549460405198612dff8a61061c565b895260208901948552604089019586528260608a0197612e1f8960029052565b511673ffffffffffffffffffffffffffffffffffffffff16600052602052604060002090565b965116869073ffffffffffffffffffffffffffffffffffffffff167fffffffffffffffffffffffff0000000000000000000000000000000000000000825416179055565b51600185015551600284015551916005831015612c7f57016126a1565b61069a926008600392019273ffffffffffffffffffffffffffffffffffffffff612e89612ef682845116879073ffffffffffffffffffffffffffffffffffffffff16600052602052604060002090565b91612e4581855116978260026020880151960154966040519a612f188c61061c565b8b5260208b0196875260408b01978852612e1f60608c01998a611ad956fea26469706673582212203b4211d3f5af0a86a20d3b4eeb90d72c834fe5b0189b22af638ab63e8d54c0be64736f6c63430008110033",
    "linkReferences": {
      "src/libraries/CriteriaResolution.sol": {
        "CriteriaResolution": [
          {
            "start": 10823,
            "length": 20
          }
        ]
      }
    }
  },
  "methodIdentifiers": {
    "adjustPosition(bytes32,(address,uint256),((address,uint256),uint256,uint256),bytes)": "5541e684",
    "agreementData(bytes32)": "33099405",
    "agreementPositions(bytes32)": "ac41b751",
    "arbitrator()": "6cc6cde1",
    "createAgreement((bytes32,uint256,string,address),bytes32)": "8f34a859",
    "deposits()": "323a5e0b",
    "disputeAgreement(bytes32)": "061ab0bc",
    "finalizeAgreement(bytes32)": "8135fe23",
    "joinAgreement(bytes32,(address,uint256,bytes32[]),((address,uint256)[],uint256,uint256),bytes)": "1bd747a2",
    "joinAgreementApproved(bytes32,(address,uint256,bytes32[]))": "a37ee28c",
    "owner()": "8da5cb5b",
    "permit2()": "12261ee7",
    "setUp(address,(address,uint256,address))": "af0f9df3",
    "settleDispute(bytes32,(address,uint256)[])": "3d3e73d7",
    "transferArbitration(address)": "ab4f5678",
    "transferOwnership(address)": "f2fde38b",
    "withdrawFromAgreement(bytes32)": "186799a4"
  },
  "id": 40
}