{
  "abi": [
    {
      "inputs": [
        {
          "internalType": "uint256",
          "name": "deadline",
          "type": "uint256"
        }
      ],
      "name": "AllowanceExpired",
      "type": "error"
    },
    {
      "inputs": [],
      "name": "ExcessiveInvalidation",
      "type": "error"
    },
    {
      "inputs": [
        {
          "internalType": "uint256",
          "name": "amount",
          "type": "uint256"
        }
      ],
      "name": "InsufficientAllowance",
      "type": "error"
    },
    {
      "inputs": [
        {
          "internalType": "uint256",
          "name": "maxAmount",
          "type": "uint256"
        }
      ],
      "name": "InvalidAmount",
      "type": "error"
    },
    {
      "inputs": [],
      "name": "InvalidContractSignature",
      "type": "error"
    },
    {
      "inputs": [],
      "name": "InvalidNonce",
      "type": "error"
    },
    {
      "inputs": [],
      "name": "InvalidSignature",
      "type": "error"
    },
    {
      "inputs": [],
      "name": "InvalidSignatureLength",
      "type": "error"
    },
    {
      "inputs": [],
      "name": "InvalidSigner",
      "type": "error"
    },
    {
      "inputs": [],
      "name": "LengthMismatch",
      "type": "error"
    },
    {
      "inputs": [
        {
          "internalType": "uint256",
          "name": "signatureDeadline",
          "type": "uint256"
        }
      ],
      "name": "SignatureExpired",
      "type": "error"
    },
    {
      "anonymous": false,
      "inputs": [
        {
          "indexed": true,
          "internalType": "address",
          "name": "owner",
          "type": "address"
        },
        {
          "indexed": true,
          "internalType": "address",
          "name": "token",
          "type": "address"
        },
        {
          "indexed": true,
          "internalType": "address",
          "name": "spender",
          "type": "address"
        },
        {
          "indexed": false,
          "internalType": "uint160",
          "name": "amount",
          "type": "uint160"
        },
        {
          "indexed": false,
          "internalType": "uint48",
          "name": "expiration",
          "type": "uint48"
        }
      ],
      "name": "Approval",
      "type": "event"
    },
    {
      "anonymous": false,
      "inputs": [
        {
          "indexed": true,
          "internalType": "address",
          "name": "owner",
          "type": "address"
        },
        {
          "indexed": false,
          "internalType": "address",
          "name": "token",
          "type": "address"
        },
        {
          "indexed": false,
          "internalType": "address",
          "name": "spender",
          "type": "address"
        }
      ],
      "name": "Lockdown",
      "type": "event"
    },
    {
      "anonymous": false,
      "inputs": [
        {
          "indexed": true,
          "internalType": "address",
          "name": "owner",
          "type": "address"
        },
        {
          "indexed": true,
          "internalType": "address",
          "name": "token",
          "type": "address"
        },
        {
          "indexed": true,
          "internalType": "address",
          "name": "spender",
          "type": "address"
        },
        {
          "indexed": false,
          "internalType": "uint48",
          "name": "newNonce",
          "type": "uint48"
        },
        {
          "indexed": false,
          "internalType": "uint48",
          "name": "oldNonce",
          "type": "uint48"
        }
      ],
      "name": "NonceInvalidation",
      "type": "event"
    },
    {
      "anonymous": false,
      "inputs": [
        {
          "indexed": true,
          "internalType": "address",
          "name": "owner",
          "type": "address"
        },
        {
          "indexed": true,
          "internalType": "address",
          "name": "token",
          "type": "address"
        },
        {
          "indexed": true,
          "internalType": "address",
          "name": "spender",
          "type": "address"
        },
        {
          "indexed": false,
          "internalType": "uint160",
          "name": "amount",
          "type": "uint160"
        },
        {
          "indexed": false,
          "internalType": "uint48",
          "name": "expiration",
          "type": "uint48"
        },
        {
          "indexed": false,
          "internalType": "uint48",
          "name": "nonce",
          "type": "uint48"
        }
      ],
      "name": "Permit",
      "type": "event"
    },
    {
      "anonymous": false,
      "inputs": [
        {
          "indexed": true,
          "internalType": "address",
          "name": "owner",
          "type": "address"
        },
        {
          "indexed": false,
          "internalType": "uint256",
          "name": "word",
          "type": "uint256"
        },
        {
          "indexed": false,
          "internalType": "uint256",
          "name": "mask",
          "type": "uint256"
        }
      ],
      "name": "UnorderedNonceInvalidation",
      "type": "event"
    },
    {
      "inputs": [],
      "name": "DOMAIN_SEPARATOR",
      "outputs": [
        {
          "internalType": "bytes32",
          "name": "",
          "type": "bytes32"
        }
      ],
      "stateMutability": "view",
      "type": "function"
    },
    {
      "inputs": [
        {
          "internalType": "address",
          "name": "",
          "type": "address"
        },
        {
          "internalType": "address",
          "name": "",
          "type": "address"
        },
        {
          "internalType": "address",
          "name": "",
          "type": "address"
        }
      ],
      "name": "allowance",
      "outputs": [
        {
          "internalType": "uint160",
          "name": "amount",
          "type": "uint160"
        },
        {
          "internalType": "uint48",
          "name": "expiration",
          "type": "uint48"
        },
        {
          "internalType": "uint48",
          "name": "nonce",
          "type": "uint48"
        }
      ],
      "stateMutability": "view",
      "type": "function"
    },
    {
      "inputs": [
        {
          "internalType": "address",
          "name": "token",
          "type": "address"
        },
        {
          "internalType": "address",
          "name": "spender",
          "type": "address"
        },
        {
          "internalType": "uint160",
          "name": "amount",
          "type": "uint160"
        },
        {
          "internalType": "uint48",
          "name": "expiration",
          "type": "uint48"
        }
      ],
      "name": "approve",
      "outputs": [],
      "stateMutability": "nonpayable",
      "type": "function"
    },
    {
      "inputs": [
        {
          "internalType": "address",
          "name": "token",
          "type": "address"
        },
        {
          "internalType": "address",
          "name": "spender",
          "type": "address"
        },
        {
          "internalType": "uint48",
          "name": "newNonce",
          "type": "uint48"
        }
      ],
      "name": "invalidateNonces",
      "outputs": [],
      "stateMutability": "nonpayable",
      "type": "function"
    },
    {
      "inputs": [
        {
          "internalType": "uint256",
          "name": "wordPos",
          "type": "uint256"
        },
        {
          "internalType": "uint256",
          "name": "mask",
          "type": "uint256"
        }
      ],
      "name": "invalidateUnorderedNonces",
      "outputs": [],
      "stateMutability": "nonpayable",
      "type": "function"
    },
    {
      "inputs": [
        {
          "components": [
            {
              "internalType": "address",
              "name": "token",
              "type": "address"
            },
            {
              "internalType": "address",
              "name": "spender",
              "type": "address"
            }
          ],
          "internalType": "struct IAllowanceTransfer.TokenSpenderPair[]",
          "name": "approvals",
          "type": "tuple[]"
        }
      ],
      "name": "lockdown",
      "outputs": [],
      "stateMutability": "nonpayable",
      "type": "function"
    },
    {
      "inputs": [
        {
          "internalType": "address",
          "name": "",
          "type": "address"
        },
        {
          "internalType": "uint256",
          "name": "",
          "type": "uint256"
        }
      ],
      "name": "nonceBitmap",
      "outputs": [
        {
          "internalType": "uint256",
          "name": "",
          "type": "uint256"
        }
      ],
      "stateMutability": "view",
      "type": "function"
    },
    {
      "inputs": [
        {
          "internalType": "address",
          "name": "owner",
          "type": "address"
        },
        {
          "components": [
            {
              "components": [
                {
                  "internalType": "address",
                  "name": "token",
                  "type": "address"
                },
                {
                  "internalType": "uint160",
                  "name": "amount",
                  "type": "uint160"
                },
                {
                  "internalType": "uint48",
                  "name": "expiration",
                  "type": "uint48"
                },
                {
                  "internalType": "uint48",
                  "name": "nonce",
                  "type": "uint48"
                }
              ],
              "internalType": "struct IAllowanceTransfer.PermitDetails[]",
              "name": "details",
              "type": "tuple[]"
            },
            {
              "internalType": "address",
              "name": "spender",
              "type": "address"
            },
            {
              "internalType": "uint256",
              "name": "sigDeadline",
              "type": "uint256"
            }
          ],
          "internalType": "struct IAllowanceTransfer.PermitBatch",
          "name": "permitBatch",
          "type": "tuple"
        },
        {
          "internalType": "bytes",
          "name": "signature",
          "type": "bytes"
        }
      ],
      "name": "permit",
      "outputs": [],
      "stateMutability": "nonpayable",
      "type": "function"
    },
    {
      "inputs": [
        {
          "internalType": "address",
          "name": "owner",
          "type": "address"
        },
        {
          "components": [
            {
              "components": [
                {
                  "internalType": "address",
                  "name": "token",
                  "type": "address"
                },
                {
                  "internalType": "uint160",
                  "name": "amount",
                  "type": "uint160"
                },
                {
                  "internalType": "uint48",
                  "name": "expiration",
                  "type": "uint48"
                },
                {
                  "internalType": "uint48",
                  "name": "nonce",
                  "type": "uint48"
                }
              ],
              "internalType": "struct IAllowanceTransfer.PermitDetails",
              "name": "details",
              "type": "tuple"
            },
            {
              "internalType": "address",
              "name": "spender",
              "type": "address"
            },
            {
              "internalType": "uint256",
              "name": "sigDeadline",
              "type": "uint256"
            }
          ],
          "internalType": "struct IAllowanceTransfer.PermitSingle",
          "name": "permitSingle",
          "type": "tuple"
        },
        {
          "internalType": "bytes",
          "name": "signature",
          "type": "bytes"
        }
      ],
      "name": "permit",
      "outputs": [],
      "stateMutability": "nonpayable",
      "type": "function"
    },
    {
      "inputs": [
        {
          "components": [
            {
              "components": [
                {
                  "internalType": "address",
                  "name": "token",
                  "type": "address"
                },
                {
                  "internalType": "uint256",
                  "name": "amount",
                  "type": "uint256"
                }
              ],
              "internalType": "struct ISignatureTransfer.TokenPermissions",
              "name": "permitted",
              "type": "tuple"
            },
            {
              "internalType": "uint256",
              "name": "nonce",
              "type": "uint256"
            },
            {
              "internalType": "uint256",
              "name": "deadline",
              "type": "uint256"
            }
          ],
          "internalType": "struct ISignatureTransfer.PermitTransferFrom",
          "name": "permit",
          "type": "tuple"
        },
        {
          "components": [
            {
              "internalType": "address",
              "name": "to",
              "type": "address"
            },
            {
              "internalType": "uint256",
              "name": "requestedAmount",
              "type": "uint256"
            }
          ],
          "internalType": "struct ISignatureTransfer.SignatureTransferDetails",
          "name": "transferDetails",
          "type": "tuple"
        },
        {
          "internalType": "address",
          "name": "owner",
          "type": "address"
        },
        {
          "internalType": "bytes",
          "name": "signature",
          "type": "bytes"
        }
      ],
      "name": "permitTransferFrom",
      "outputs": [],
      "stateMutability": "nonpayable",
      "type": "function"
    },
    {
      "inputs": [
        {
          "components": [
            {
              "components": [
                {
                  "internalType": "address",
                  "name": "token",
                  "type": "address"
                },
                {
                  "internalType": "uint256",
                  "name": "amount",
                  "type": "uint256"
                }
              ],
              "internalType": "struct ISignatureTransfer.TokenPermissions[]",
              "name": "permitted",
              "type": "tuple[]"
            },
            {
              "internalType": "uint256",
              "name": "nonce",
              "type": "uint256"
            },
            {
              "internalType": "uint256",
              "name": "deadline",
              "type": "uint256"
            }
          ],
          "internalType": "struct ISignatureTransfer.PermitBatchTransferFrom",
          "name": "permit",
          "type": "tuple"
        },
        {
          "components": [
            {
              "internalType": "address",
              "name": "to",
              "type": "address"
            },
            {
              "internalType": "uint256",
              "name": "requestedAmount",
              "type": "uint256"
            }
          ],
          "internalType": "struct ISignatureTransfer.SignatureTransferDetails[]",
          "name": "transferDetails",
          "type": "tuple[]"
        },
        {
          "internalType": "address",
          "name": "owner",
          "type": "address"
        },
        {
          "internalType": "bytes",
          "name": "signature",
          "type": "bytes"
        }
      ],
      "name": "permitTransferFrom",
      "outputs": [],
      "stateMutability": "nonpayable",
      "type": "function"
    },
    {
      "inputs": [
        {
          "components": [
            {
              "components": [
                {
                  "internalType": "address",
                  "name": "token",
                  "type": "address"
                },
                {
                  "internalType": "uint256",
                  "name": "amount",
                  "type": "uint256"
                }
              ],
              "internalType": "struct ISignatureTransfer.TokenPermissions",
              "name": "permitted",
              "type": "tuple"
            },
            {
              "internalType": "uint256",
              "name": "nonce",
              "type": "uint256"
            },
            {
              "internalType": "uint256",
              "name": "deadline",
              "type": "uint256"
            }
          ],
          "internalType": "struct ISignatureTransfer.PermitTransferFrom",
          "name": "permit",
          "type": "tuple"
        },
        {
          "components": [
            {
              "internalType": "address",
              "name": "to",
              "type": "address"
            },
            {
              "internalType": "uint256",
              "name": "requestedAmount",
              "type": "uint256"
            }
          ],
          "internalType": "struct ISignatureTransfer.SignatureTransferDetails",
          "name": "transferDetails",
          "type": "tuple"
        },
        {
          "internalType": "address",
          "name": "owner",
          "type": "address"
        },
        {
          "internalType": "bytes32",
          "name": "witness",
          "type": "bytes32"
        },
        {
          "internalType": "string",
          "name": "witnessTypeString",
          "type": "string"
        },
        {
          "internalType": "bytes",
          "name": "signature",
          "type": "bytes"
        }
      ],
      "name": "permitWitnessTransferFrom",
      "outputs": [],
      "stateMutability": "nonpayable",
      "type": "function"
    },
    {
      "inputs": [
        {
          "components": [
            {
              "components": [
                {
                  "internalType": "address",
                  "name": "token",
                  "type": "address"
                },
                {
                  "internalType": "uint256",
                  "name": "amount",
                  "type": "uint256"
                }
              ],
              "internalType": "struct ISignatureTransfer.TokenPermissions[]",
              "name": "permitted",
              "type": "tuple[]"
            },
            {
              "internalType": "uint256",
              "name": "nonce",
              "type": "uint256"
            },
            {
              "internalType": "uint256",
              "name": "deadline",
              "type": "uint256"
            }
          ],
          "internalType": "struct ISignatureTransfer.PermitBatchTransferFrom",
          "name": "permit",
          "type": "tuple"
        },
        {
          "components": [
            {
              "internalType": "address",
              "name": "to",
              "type": "address"
            },
            {
              "internalType": "uint256",
              "name": "requestedAmount",
              "type": "uint256"
            }
          ],
          "internalType": "struct ISignatureTransfer.SignatureTransferDetails[]",
          "name": "transferDetails",
          "type": "tuple[]"
        },
        {
          "internalType": "address",
          "name": "owner",
          "type": "address"
        },
        {
          "internalType": "bytes32",
          "name": "witness",
          "type": "bytes32"
        },
        {
          "internalType": "string",
          "name": "witnessTypeString",
          "type": "string"
        },
        {
          "internalType": "bytes",
          "name": "signature",
          "type": "bytes"
        }
      ],
      "name": "permitWitnessTransferFrom",
      "outputs": [],
      "stateMutability": "nonpayable",
      "type": "function"
    },
    {
      "inputs": [
        {
          "components": [
            {
              "internalType": "address",
              "name": "from",
              "type": "address"
            },
            {
              "internalType": "address",
              "name": "to",
              "type": "address"
            },
            {
              "internalType": "uint160",
              "name": "amount",
              "type": "uint160"
            },
            {
              "internalType": "address",
              "name": "token",
              "type": "address"
            }
          ],
          "internalType": "struct IAllowanceTransfer.AllowanceTransferDetails[]",
          "name": "transferDetails",
          "type": "tuple[]"
        }
      ],
      "name": "transferFrom",
      "outputs": [],
      "stateMutability": "nonpayable",
      "type": "function"
    },
    {
      "inputs": [
        {
          "internalType": "address",
          "name": "from",
          "type": "address"
        },
        {
          "internalType": "address",
          "name": "to",
          "type": "address"
        },
        {
          "internalType": "uint160",
          "name": "amount",
          "type": "uint160"
        },
        {
          "internalType": "address",
          "name": "token",
          "type": "address"
        }
      ],
      "name": "transferFrom",
      "outputs": [],
      "stateMutability": "nonpayable",
      "type": "function"
    }
  ],
  "bytecode": {
    "object": "0x60c0346100bb574660a052602081017f8cad95687ba82c2ce50e74f7b754645e5117c3a5bec8151c0726d5857980a86681527f9ac997416e8ff9d2ff6bebeb7149f65cdae5e32e2b90440b566bb3044041d36a60408301524660608301523060808301526080825260a082019180831060018060401b038411176100a55782604052519020608052611e5f90816100c1823960805181611601015260a051816115db0152f35b634e487b7160e01b600052604160045260246000fd5b600080fdfe6040608081526004908136101561001557600080fd5b600090813560e01c80630d58b1db14610f48578063137c29fe14610dab5780632a2d80d114610b4a5780632b67b570146109d357806330f28b7a1461090f5780633644e515146108ec57806336c78516146108a25780633ff9dcb1146108405780634fe02b441461080257806365d9723c146106b357806387517c45146105ac578063927da10514610520578063cc53287f1461042b578063edd9444b146102fe5763fe8ec1a7146100c657600080fd5b346102fa5760c06003193601126102fa5767ffffffffffffffff83358181116102f6576100f6903690860161123b565b6024358281116102f25761010d903690870161120a565b61011561111b565b916084358581116102ee5761012d9036908a016111b1565b98909560a4359081116102ea57610146913691016111b1565b96909581519061015582611079565b606b82527f5065726d697442617463685769746e6573735472616e7366657246726f6d285460208301527f6f6b656e5065726d697373696f6e735b5d207065726d69747465642c61646472838301527f657373207370656e6465722c75696e74323536206e6f6e63652c75696e74323560608301527f3620646561646c696e652c000000000000000000000000000000000000000000608083015282519a8b91816102046020850180966119a4565b918237018a8152039961021f601f199b8c81018352826110b1565b5190209085515161022f81611903565b908a5b8181106102bd5750506102ba999a6102b191835161026481610258602082018095611977565b038481018352826110b1565b519020602089810151858b015195519182019687526040820192909252336060820152608081019190915260a081019390935260643560c08401528260e081015b039081018352826110b1565b5190209361178b565b80f35b806102d56102cf6102e5938c51611335565b51611a58565b6102df8286611335565b52611934565b610232565b8880fd5b8780fd5b8480fd5b8380fd5b5080fd5b5091346102fa5760806003193601126102fa5767ffffffffffffffff9080358281116102f657610331903690830161123b565b6024358381116102f257610348903690840161120a565b93909261035361111b565b916064359081116104275761036a913691016111b1565b9490938351519761037a89611903565b98885b8181106104055750506102ba979881516103ad8161039f602082018095611977565b03601f1981018352826110b1565b5190206020860151828701519083519260208401947ffcf35f5ac6a2c28868dc44c302166470266239195f02b0ee408334829333b7668652840152336060840152608083015260a082015260a081526102b181611095565b808b6102df8261041c6102cf610422968d51611335565b92611335565b61037d565b8680fd5b50823461051c57602090816003193601126102f65780359067ffffffffffffffff82116102f25761045e9136910161120a565b929091845b84811061046e578580f35b8061048461047f6001938888611466565b611476565b61049984610493848a8a611466565b01611476565b338952838552858920916001600160a01b0380911692838b528652868a20911690818a5285528589207fffffffffffffffffffffffff000000000000000000000000000000000000000081541690558551918252848201527f89b1add15eff56b3dfe299ad94e01f2b52fbcb80ae1a3baea6ae8c04cb2b98a4853392a201610463565b8280fd5b50346102fa5760606003193601126102fa576105a88161053e6110ef565b93610547611105565b61054f61111b565b6001600160a01b03968716835260016020908152848420928816845291825283832090871683528152919020549251938316845260a083901c65ffffffffffff169084015260d09190911c604083015281906060820190565b0390f35b50346102fa5760806003193601126102fa576105c66110ef565b906105cf611105565b916105d861111b565b65ffffffffffff92606435848116908181036102ee5779ffffffffffff0000000000000000000000000000000000000000947fda9fa7c1b00402c17d0161b249b1ab8bbec047c5a52207b9c112deffd817036b94338a5260016020527fffffffffffff0000000000000000000000000000000000000000000000000000858b20986001600160a01b03809416998a8d5260205283878d209b169a8b8d52602052868c209486156000146106ab57504216925b8454921697889360a01b16911617179055815193845260208401523392a480f35b90509261068a565b50823461051c57606060031936011261051c576106ce6110ef565b906106d7611105565b9265ffffffffffff60443581811693908481036102ee5733885260209160018352848920966001600160a01b0380911697888b528452858a20981697888a5283528489205460d01c93848711156107f35761ffff9085840316116107cc5750907f55eb90d810e1700b35a8e7e25395ff7f2b2259abd7415ca2284dfb1c246418f393929133895260018252838920878a528252838920888a5282528389209079ffffffffffffffffffffffffffffffffffffffffffffffffffff7fffffffffffff000000000000000000000000000000000000000000000000000083549260d01b16911617905582519485528401523392a480f35b84517f24d35a26000000000000000000000000000000000000000000000000000000008152fd5b508451633ab3447f60e11b8152fd5b50346102fa57806003193601126102fa57806020926001600160a01b036108276110ef565b1681528084528181206024358252845220549051908152f35b50823461051c578160031936011261051c577f3704902f963766a4e561bbaab6e6cdc1b1dd12f6e9e99648da8843b3f46b918d90359160243533855284602052818520848652602052818520818154179055815193845260208401523392a280f35b82346108e95760806003193601126108e9576108bc6110ef565b6108c4611105565b6108cc61111b565b606435916001600160a01b03831683036102f2576102ba9361135f565b80fd5b50346102fa57816003193601126102fa576020906109086115d8565b9051908152f35b5082903461051c5761010060031936011261051c5761092d36611145565b90806083193601126102f6576109416110d4565b9160e43567ffffffffffffffff81116109cf576102ba94610964913691016111b1565b9390926109718351611a58565b6020840151828501519083519260208401947f939c21a48a8dbe3a9a2404a1d46691e4d39f6583d6ec6b35714604c986d801068652840152336060840152608083015260a082015260a081526109c681611095565b519020916116df565b8580fd5b5091346102fa576101006003193601126102fa576109ef6110ef565b602319360160c081126102f6576080855191610a0a8361105d565b126102f657845190610a1b8261102b565b6001600160a01b03916024358381168103610427578152604435838116810361042757602082015265ffffffffffff60643581811681036102ee57888301526084359081168103610427576060820152815260a4359382851685036109cf576020820194855260c4359087830182815260e43567ffffffffffffffff81116102ea57610aaa90369084016111b1565b929093804211610b34575050918591610b246102ba999a610b2a95610acf88516119cf565b90898c511690519083519260208401947ff3841cd1ff0085026a6327b620b67997ce40f282c88a8e905a7a5626e310f3d086528401526060830152608082015260808152610b1c81611079565b519020611693565b91611abe565b519251169161148a565b602492508a519163cd21db4f60e01b8352820152fd5b5091346102fa5760606003199381853601126102f657610b686110ef565b9260249081359267ffffffffffffffff978885116102ee57859085360301126104275780519785890189811082821117610d99578252848301358181116102ea57850190366023830112156102ea578382013591610bc5836111df565b90610bd2855192836110b1565b838252602093878584019160071b83010191368311610d95578801905b828210610d38575050508a526044610c08868801611131565b96838c01978852013594838b0191868352604435908111610d3457610c3090369087016111b1565b959096804211610d22575050508998995151610c4b81611903565b908b5b818110610cff57505092889492610b2492610ccc97958351610c778161039f8682018095611977565b519020906001600160a01b039a8b8b51169151928551948501957faf1b0d30d2cab0380e68f0689007e3254993c596f2fdd0aaa7f4d04f794408638752850152830152608082015260808152610b1c81611079565b51169082515192845b848110610ce0578580f35b80610cf98585610cf36001958751611335565b5161148a565b01610cd5565b806102d5610d148e9f9e93610d1a9451611335565b516119cf565b9b9a9b610c4e565b85519163cd21db4f60e01b8352820152fd5b8a80fd5b608082360312610d9557856080918851610d518161102b565b610d5a85611131565b8152610d67838601611131565b83820152610d768a86016111f7565b8a8201528d610d868187016111f7565b90820152815201910190610bef565b8c80fd5b8489604186634e487b7160e01b835252fd5b50823461051c5761014060031936011261051c57610dc836611145565b91806083193601126102f657610ddc6110d4565b67ffffffffffffffff93906101043585811161042757610dff90369086016111b1565b9093610124359687116102ee57610e1f6109c6966102ba983691016111b1565b969095825190610e2e82611079565b606482527f5065726d69745769746e6573735472616e7366657246726f6d28546f6b656e5060208301527f65726d697373696f6e73207065726d69747465642c6164647265737320737065848301527f6e6465722c75696e74323536206e6f6e63652c75696e7432353620646561646c60608301527f696e652c000000000000000000000000000000000000000000000000000000006080830152835194859181610edd6020850180966119a4565b918237018b81520393610ef8601f19958681018352826110b1565b51902092610f068651611a58565b6020878101518589015195519182019687526040820192909252336060820152608081019190915260a081019390935260e43560c08401528260e081016102a5565b50823461051c576020806003193601126102f657813567ffffffffffffffff928382116109cf57366023830112156109cf578101359283116102f2576024906007368386831b8401011161042757865b858110610fa3578780f35b80821b830190608060231983360301126102ea57611025888760019460608351610fcc8161102b565b6110086084610fdc8d8601611131565b94858452610fec60448201611131565b8097850152610ffd60648201611131565b809885015201611131565b91829101526001600160a01b03808080931695169316911661135f565b01610f98565b6080810190811067ffffffffffffffff82111761104757604052565b634e487b7160e01b600052604160045260246000fd5b6060810190811067ffffffffffffffff82111761104757604052565b60a0810190811067ffffffffffffffff82111761104757604052565b60c0810190811067ffffffffffffffff82111761104757604052565b90601f601f19910116810190811067ffffffffffffffff82111761104757604052565b60c435906001600160a01b03821682036110ea57565b600080fd5b600435906001600160a01b03821682036110ea57565b602435906001600160a01b03821682036110ea57565b604435906001600160a01b03821682036110ea57565b35906001600160a01b03821682036110ea57565b6003190190608082126110ea5760408051906111608261105d565b808294126110ea57805181810181811067ffffffffffffffff8211176110475782526004356001600160a01b03811681036110ea578152602435602082015282526044356020830152606435910152565b9181601f840112156110ea5782359167ffffffffffffffff83116110ea57602083818601950101116110ea57565b67ffffffffffffffff81116110475760051b60200190565b359065ffffffffffff821682036110ea57565b9181601f840112156110ea5782359167ffffffffffffffff83116110ea576020808501948460061b0101116110ea57565b9190916060818403126110ea5760408051916112568361105d565b8294813567ffffffffffffffff908181116110ea57830182601f820112156110ea578035611283816111df565b92611290875194856110b1565b818452602094858086019360061b850101938185116110ea579086899897969594939201925b8484106112d3575050505050855280820135908501520135910152565b9091929394959697848303126110ea578851908982019082821085831117611320578a928992845261130487611131565b81528287013583820152815201930191908897969594936112b6565b60246000634e487b7160e01b81526041600452fd5b80518210156113495760209160051b010190565b634e487b7160e01b600052603260045260246000fd5b9291926001600160a01b03604060008284168152600160205282828220961695868252602052818120338252602052209485549565ffffffffffff8760a01c168042116114355750828716968388036113c3575b50506113c195501692611d72565b565b878484161160001461140057602488604051907ff96fb0710000000000000000000000000000000000000000000000000000000082526004820152fd5b7fffffffffffffffffffffffff000000000000000000000000000000000000000084846113c19a0316911617905538806113b3565b602490604051907fd81b2f2e0000000000000000000000000000000000000000000000000000000082526004820152fd5b91908110156113495760061b0190565b356001600160a01b03811681036110ea5790565b9065ffffffffffff90816060840151166001600160a01b03908185511694826020820151169280866040809401511695169560009187835260016020528383208984526020528383209916988983526020528282209184835460d01c036115c85791856115a194927fc6a377bfc4eb120024a8ac08eef205be16b817020812c73223e81d1bdb9708ec989796945087156000146115a65779ffffffffffff00000000000000000000000000000000000000009042165b60a01b167fffffffffffff00000000000000000000000000000000000000000000000000006001860160d01b161717905551938493849160409194936001600160a01b03606085019616845265ffffffffffff809216602085015216910152565b0390a4565b5079ffffffffffff000000000000000000000000000000000000000087611540565b60048451633ab3447f60e11b8152fd5b467f000000000000000000000000000000000000000000000000000000000000000003611623577f000000000000000000000000000000000000000000000000000000000000000090565b60405160208101907f8cad95687ba82c2ce50e74f7b754645e5117c3a5bec8151c0726d5857980a86682527f9ac997416e8ff9d2ff6bebeb7149f65cdae5e32e2b90440b566bb3044041d36a60408201524660608201523060808201526080815261168d81611079565b51902090565b61169b6115d8565b906040519060208201927f19010000000000000000000000000000000000000000000000000000000000008452602283015260428201526042815261168d8161102b565b9192909360a43593604084015180421161177357506020845101518086116117425750918591610b2461171f9461171a6020880151866118b5565b611693565b6001600160a01b0380915151169260843591821682036110ea576113c193611d72565b602490604051907f3728b83d0000000000000000000000000000000000000000000000000000000082526004820152fd5b6024906040519063cd21db4f60e01b82526004820152fd5b95909395805151956040928383015180421161189e5750848803611875576117c2918691610b2460209b61171a8d880151866118b5565b60005b8681106117d6575050505050505050565b6117e1818351611335565b51886117ee83878a611466565b01359089810151808311611845575091818888886001968596611818575b505050505050016117c5565b61183a95611834926001600160a01b0361047f93511695611466565b91611d72565b80388888888361180c565b6024908651907f3728b83d0000000000000000000000000000000000000000000000000000000082526004820152fd5b600484517fff633a38000000000000000000000000000000000000000000000000000000008152fd5b60249085519063cd21db4f60e01b82526004820152fd5b906001600160a01b03600160ff83161b9216600052600060205260406000209060081c60005260205260406000208181541880915516156118f257565b6004604051633ab3447f60e11b8152fd5b9061190d826111df565b61191a60405191826110b1565b828152601f1961192a82946111df565b0190602036910137565b7fffffffffffffffffffffffffffffffffffffffffffffffffffffffffffffffff81146119615760010190565b634e487b7160e01b600052601160045260246000fd5b805160208092019160005b828110611990575050505090565b835185529381019392810192600101611982565b9081519160005b8381106119bc575050016000815290565b80602080928401015181850152016119ab565b60405160208101917f65626cad6cb96493bf6f5ebea28756c966f023ab9e8a83a7101849d5573b367883526001600160a01b038082511660408401526020820151166060830152606065ffffffffffff9182604082015116608085015201511660a082015260a0815260c0810181811067ffffffffffffffff8211176110475760405251902090565b6040516020808201927f618358ac3db8dc274f0cd8829da7e234bd48cd73c4a740aede1adec9846d06a184526001600160a01b038151166040840152015160608201526060815261168d8161102b565b91908260409103126110ea576020823592013590565b6000843b611c18575060418203611b9657611adb82820182611aa8565b939092604010156113495760209360009360ff6040608095013560f81c5b60405194855216868401526040830152606082015282805260015afa15611b8a576001600160a01b038060005116918215611b60571603611b3657565b60046040517f815e1d64000000000000000000000000000000000000000000000000000000008152fd5b60046040517f8baa579f000000000000000000000000000000000000000000000000000000008152fd5b6040513d6000823e3d90fd5b60408203611bee57611baa91810190611aa8565b91601b7f7fffffffffffffffffffffffffffffffffffffffffffffffffffffffffffffff84169360ff1c019060ff82116119615760209360009360ff608094611af9565b60046040517f4be6321b000000000000000000000000000000000000000000000000000000008152fd5b929391601f92816001600160a01b036064602095601f19604051988997889687947f1626ba7e000000000000000000000000000000000000000000000000000000009e8f8752600487015260406024870152816044870152868601378b85828601015201168101030192165afa908115611d67578291611ce9575b507fffffffff0000000000000000000000000000000000000000000000000000000091501603611cbf57565b60046040517fb0669cbc000000000000000000000000000000000000000000000000000000008152fd5b90506020813d8211611d5f575b81611d03602093836110b1565b810103126102fa5751907fffffffff00000000000000000000000000000000000000000000000000000000821682036108e957507fffffffff000000000000000000000000000000000000000000000000000000009038611c93565b3d9150611cf6565b6040513d84823e3d90fd5b9060006064926020958295604051947f23b872dd0000000000000000000000000000000000000000000000000000000086526004860152602485015260448401525af13d15601f3d1160016000511416171615611dcb57565b60646040517f08c379a000000000000000000000000000000000000000000000000000000000815260206004820152601460248201527f5452414e534645525f46524f4d5f4641494c45440000000000000000000000006044820152fdfea2646970667358221220b27b899fa1eb8abe4d9abc64a312ac9282c1d180f3601f25eefa9fd856509b7d64736f6c63430008110033",
    "linkReferences": {}
  },
  "methodIdentifiers": {
    "DOMAIN_SEPARATOR()": "3644e515",
    "allowance(address,address,address)": "927da105",
    "approve(address,address,uint160,uint48)": "87517c45",
    "invalidateNonces(address,address,uint48)": "65d9723c",
    "invalidateUnorderedNonces(uint256,uint256)": "3ff9dcb1",
    "lockdown((address,address)[])": "cc53287f",
    "nonceBitmap(address,uint256)": "4fe02b44",
    "permit(address,((address,uint160,uint48,uint48),address,uint256),bytes)": "2b67b570",
    "permit(address,((address,uint160,uint48,uint48)[],address,uint256),bytes)": "2a2d80d1",
    "permitTransferFrom(((address,uint256),uint256,uint256),(address,uint256),address,bytes)": "30f28b7a",
    "permitTransferFrom(((address,uint256)[],uint256,uint256),(address,uint256)[],address,bytes)": "edd9444b",
    "permitWitnessTransferFrom(((address,uint256),uint256,uint256),(address,uint256),address,bytes32,string,bytes)": "137c29fe",
    "permitWitnessTransferFrom(((address,uint256)[],uint256,uint256),(address,uint256)[],address,bytes32,string,bytes)": "fe8ec1a7",
    "transferFrom((address,address,uint160,address)[])": "0d58b1db",
    "transferFrom(address,address,uint160,address)": "36c78516"
  },
  "id": 19
}